{"abi":[{"type":"constructor","inputs":[{"name":"_owner","type":"address","internalType":"address"},{"name":"_devFund","type":"address","internalType":"address"},{"name":"_prizeFund","type":"address","internalType":"address"},{"name":"_nft","type":"address","internalType":"contract AldersonDiceNFT"},{"name":"_vaultToken","type":"address","internalType":"contract ERC4626"},{"name":"_refundPrice","type":"uint256","internalType":"uint256"},{"name":"_mintDevFee","type":"uint256","internalType":"uint256"},{"name":"_mintPrizeFee","type":"uint256","internalType":"uint256"},{"name":"_tokenURIPrefix","type":"string","internalType":"string"}],"stateMutability":"nonpayable"},{"type":"function","name":"NUM_COLORS","inputs":[],"outputs":[{"name":"","type":"uint256","internalType":"uint256"}],"stateMutability":"view"},{"type":"function","name":"NUM_DICE_BAG","inputs":[],"outputs":[{"name":"","type":"uint8","internalType":"uint8"}],"stateMutability":"view"},{"type":"function","name":"NUM_ROLLS","inputs":[],"outputs":[{"name":"","type":"uint8","internalType":"uint8"}],"stateMutability":"view"},{"type":"function","name":"NUM_SIDES","inputs":[],"outputs":[{"name":"","type":"uint256","internalType":"uint256"}],"stateMutability":"view"},{"type":"function","name":"blockhashPrng","inputs":[],"outputs":[{"name":"prng","type":"tuple","internalType":"struct LibPRNG.PRNG","components":[{"name":"state","type":"uint256","internalType":"uint256"}]}],"stateMutability":"view"},{"type":"function","name":"buyNumDice","inputs":[{"name":"receiver","type":"address","internalType":"address"},{"name":"numDice","type":"uint256","internalType":"uint256"}],"outputs":[],"stateMutability":"nonpayable"},{"type":"function","name":"cancelOwnershipHandover","inputs":[],"outputs":[],"stateMutability":"payable"},{"type":"function","name":"color","inputs":[{"name":"diceId","type":"uint256","internalType":"uint256"}],"outputs":[{"name":"","type":"uint256","internalType":"uint256"}],"stateMutability":"view"},{"type":"function","name":"completeOwnershipHandover","inputs":[{"name":"pendingOwner","type":"address","internalType":"address"}],"outputs":[],"stateMutability":"payable"},{"type":"function","name":"currentBag","inputs":[],"outputs":[{"name":"bag","type":"uint256[]","internalType":"uint256[]"}],"stateMutability":"view"},{"type":"function","name":"currentBag","inputs":[{"name":"prng","type":"tuple","internalType":"struct LibPRNG.PRNG","components":[{"name":"state","type":"uint256","internalType":"uint256"}]},{"name":"numDice","type":"uint256","internalType":"uint256"}],"outputs":[{"name":"bag","type":"uint256[]","internalType":"uint256[]"}],"stateMutability":"pure"},{"type":"function","name":"devFund","inputs":[],"outputs":[{"name":"","type":"address","internalType":"address"}],"stateMutability":"view"},{"type":"function","name":"dice","inputs":[{"name":"","type":"uint256","internalType":"uint256"}],"outputs":[{"name":"name","type":"string","internalType":"string"},{"name":"symbol","type":"string","internalType":"string"}],"stateMutability":"view"},{"type":"function","name":"endSponsership","inputs":[{"name":"who","type":"address","internalType":"address"},{"name":"amount","type":"uint256","internalType":"uint256"}],"outputs":[],"stateMutability":"nonpayable"},{"type":"function","name":"fixGameApprovals","inputs":[],"outputs":[],"stateMutability":"nonpayable"},{"type":"function","name":"mintDevFee","inputs":[],"outputs":[{"name":"","type":"uint256","internalType":"uint256"}],"stateMutability":"view"},{"type":"function","name":"mintPrizeFee","inputs":[],"outputs":[{"name":"","type":"uint256","internalType":"uint256"}],"stateMutability":"view"},{"type":"function","name":"name","inputs":[{"name":"id","type":"uint256","internalType":"uint256"}],"outputs":[{"name":"","type":"string","internalType":"string"}],"stateMutability":"view"},{"type":"function","name":"nft","inputs":[],"outputs":[{"name":"","type":"address","internalType":"contract AldersonDiceNFT"}],"stateMutability":"view"},{"type":"function","name":"numberPrng","inputs":[{"name":"n","type":"uint256","internalType":"uint256"}],"outputs":[{"name":"prng","type":"tuple","internalType":"struct LibPRNG.PRNG","components":[{"name":"state","type":"uint256","internalType":"uint256"}]}],"stateMutability":"pure"},{"type":"function","name":"owner","inputs":[],"outputs":[{"name":"result","type":"address","internalType":"address"}],"stateMutability":"view"},{"type":"function","name":"ownershipHandoverExpiresAt","inputs":[{"name":"pendingOwner","type":"address","internalType":"address"}],"outputs":[{"name":"result","type":"uint256","internalType":"uint256"}],"stateMutability":"view"},{"type":"function","name":"players","inputs":[{"name":"","type":"address","internalType":"address"}],"outputs":[{"name":"minted","type":"uint256","internalType":"uint256"}],"stateMutability":"view"},{"type":"function","name":"priceWithFees","inputs":[],"outputs":[{"name":"","type":"uint256","internalType":"uint256"}],"stateMutability":"view"},{"type":"function","name":"prizeFund","inputs":[],"outputs":[{"name":"","type":"address","internalType":"address"}],"stateMutability":"view"},{"type":"function","name":"prizeSharesAvailable","inputs":[],"outputs":[{"name":"prizeShares","type":"uint256","internalType":"uint256"}],"stateMutability":"view"},{"type":"function","name":"prizeToken","inputs":[],"outputs":[{"name":"","type":"address","internalType":"contract ERC20"}],"stateMutability":"view"},{"type":"function","name":"prizeTokenAvailable","inputs":[],"outputs":[{"name":"available","type":"uint256","internalType":"uint256"}],"stateMutability":"view"},{"type":"function","name":"randomDice","inputs":[{"name":"prng","type":"tuple","internalType":"struct LibPRNG.PRNG","components":[{"name":"state","type":"uint256","internalType":"uint256"}]},{"name":"numDice","type":"uint256","internalType":"uint256"}],"outputs":[{"name":"tokenIds","type":"uint256[]","internalType":"uint256[]"},{"name":"amounts","type":"uint256[]","internalType":"uint256[]"}],"stateMutability":"pure"},{"type":"function","name":"randomRoll","inputs":[{"name":"prng","type":"tuple","internalType":"struct LibPRNG.PRNG","components":[{"name":"state","type":"uint256","internalType":"uint256"}]}],"outputs":[{"name":"faceId","type":"uint256","internalType":"uint256"}],"stateMutability":"pure"},{"type":"function","name":"recover","inputs":[{"name":"token","type":"address","internalType":"address"},{"name":"to","type":"address","internalType":"address"},{"name":"amount","type":"uint256","internalType":"uint256"}],"outputs":[],"stateMutability":"nonpayable"},{"type":"function","name":"refundPrice","inputs":[],"outputs":[{"name":"","type":"uint256","internalType":"uint256"}],"stateMutability":"view"},{"type":"function","name":"renounceOwnership","inputs":[],"outputs":[],"stateMutability":"payable"},{"type":"function","name":"requestOwnershipHandover","inputs":[],"outputs":[],"stateMutability":"payable"},{"type":"function","name":"returnDice","inputs":[{"name":"player","type":"address","internalType":"address"},{"name":"diceIds","type":"uint256[]","internalType":"uint256[]"},{"name":"diceAmounts","type":"uint256[]","internalType":"uint256[]"}],"outputs":[{"name":"refundAssets","type":"uint256","internalType":"uint256"}],"stateMutability":"nonpayable"},{"type":"function","name":"setDiceBag","inputs":[{"name":"player","type":"address","internalType":"address"},{"name":"favoriteDice","type":"uint256[12]","internalType":"uint256[12]"}],"outputs":[],"stateMutability":"nonpayable"},{"type":"function","name":"setMintDevFee","inputs":[{"name":"_fee","type":"uint256","internalType":"uint256"}],"outputs":[],"stateMutability":"nonpayable"},{"type":"function","name":"setMintPrizeFee","inputs":[{"name":"_fee","type":"uint256","internalType":"uint256"}],"outputs":[],"stateMutability":"nonpayable"},{"type":"function","name":"setTokenURIPrefix","inputs":[{"name":"_tokenURIPrefix","type":"string","internalType":"string"}],"outputs":[],"stateMutability":"nonpayable"},{"type":"function","name":"skirmishBags","inputs":[{"name":"diceBag0","type":"uint256[]","internalType":"uint256[]"},{"name":"diceBag1","type":"uint256[]","internalType":"uint256[]"},{"name":"draws","type":"uint8","internalType":"uint8"}],"outputs":[{"name":"wins0","type":"uint8","internalType":"uint8"},{"name":"wins1","type":"uint8","internalType":"uint8"},{"name":"ties","type":"uint8","internalType":"uint8"}],"stateMutability":"nonpayable"},{"type":"function","name":"skirmishColors","inputs":[{"name":"hashPrng","type":"tuple","internalType":"struct LibPRNG.PRNG","components":[{"name":"state","type":"uint256","internalType":"uint256"}]},{"name":"color0","type":"uint256","internalType":"uint256"},{"name":"color1","type":"uint256","internalType":"uint256"},{"name":"rounds","type":"uint8","internalType":"uint8"}],"outputs":[{"name":"wins0","type":"uint8","internalType":"uint8"},{"name":"wins1","type":"uint8","internalType":"uint8"},{"name":"ties","type":"uint8","internalType":"uint8"}],"stateMutability":"nonpayable"},{"type":"function","name":"skirmishPVE","inputs":[{"name":"player","type":"address","internalType":"address"}],"outputs":[{"name":"wins0","type":"uint8","internalType":"uint8"},{"name":"wins1","type":"uint8","internalType":"uint8"},{"name":"ties","type":"uint8","internalType":"uint8"}],"stateMutability":"nonpayable"},{"type":"function","name":"skirmishPlayers","inputs":[{"name":"player0","type":"address","internalType":"address"},{"name":"player1","type":"address","internalType":"address"}],"outputs":[{"name":"wins0","type":"uint8","internalType":"uint8"},{"name":"wins1","type":"uint8","internalType":"uint8"},{"name":"ties","type":"uint8","internalType":"uint8"}],"stateMutability":"nonpayable"},{"type":"function","name":"sponsor","inputs":[{"name":"account","type":"address","internalType":"address"},{"name":"amount","type":"uint256","internalType":"uint256"}],"outputs":[{"name":"","type":"uint256","internalType":"uint256"},{"name":"shares","type":"uint256","internalType":"uint256"}],"stateMutability":"nonpayable"},{"type":"function","name":"sponsorships","inputs":[{"name":"who","type":"address","internalType":"address"}],"outputs":[{"name":"withdrawable","type":"uint256","internalType":"uint256"}],"stateMutability":"view"},{"type":"function","name":"sweepPrizeFund","inputs":[],"outputs":[{"name":"shares","type":"uint256","internalType":"uint256"}],"stateMutability":"nonpayable"},{"type":"function","name":"symbol","inputs":[{"name":"id","type":"uint256","internalType":"uint256"}],"outputs":[{"name":"","type":"string","internalType":"string"}],"stateMutability":"view"},{"type":"function","name":"tokenURI","inputs":[{"name":"id","type":"uint256","internalType":"uint256"}],"outputs":[{"name":"","type":"string","internalType":"string"}],"stateMutability":"view"},{"type":"function","name":"totalDiceValue","inputs":[],"outputs":[{"name":"","type":"uint256","internalType":"uint256"}],"stateMutability":"view"},{"type":"function","name":"totalSponsorships","inputs":[],"outputs":[{"name":"","type":"uint256","internalType":"uint256"}],"stateMutability":"view"},{"type":"function","name":"transferOwnership","inputs":[{"name":"newOwner","type":"address","internalType":"address"}],"outputs":[],"stateMutability":"payable"},{"type":"function","name":"upgrade","inputs":[{"name":"_newGameLogic","type":"address","internalType":"address"}],"outputs":[],"stateMutability":"nonpayable"},{"type":"function","name":"value","inputs":[{"name":"numDice","type":"uint256","internalType":"uint256"}],"outputs":[{"name":"refundAssets","type":"uint256","internalType":"uint256"}],"stateMutability":"view"},{"type":"function","name":"vaultToken","inputs":[],"outputs":[{"name":"","type":"address","internalType":"contract ERC4626"}],"stateMutability":"view"},{"type":"event","name":"FavoriteDice","inputs":[{"name":"player","type":"address","indexed":true,"internalType":"address"},{"name":"dice","type":"uint256[12]","indexed":false,"internalType":"uint256[12]"}],"anonymous":false},{"type":"event","name":"Fees","inputs":[{"name":"player","type":"address","indexed":true,"internalType":"address"},{"name":"devFundAmount","type":"uint256","indexed":false,"internalType":"uint256"},{"name":"prizePoolShares","type":"uint256","indexed":false,"internalType":"uint256"},{"name":"totalDiceValue","type":"uint256","indexed":false,"internalType":"uint256"},{"name":"totalSponsorships","type":"uint256","indexed":false,"internalType":"uint256"}],"anonymous":false},{"type":"event","name":"OwnershipHandoverCanceled","inputs":[{"name":"pendingOwner","type":"address","indexed":true,"internalType":"address"}],"anonymous":false},{"type":"event","name":"OwnershipHandoverRequested","inputs":[{"name":"pendingOwner","type":"address","indexed":true,"internalType":"address"}],"anonymous":false},{"type":"event","name":"OwnershipTransferred","inputs":[{"name":"oldOwner","type":"address","indexed":true,"internalType":"address"},{"name":"newOwner","type":"address","indexed":true,"internalType":"address"}],"anonymous":false},{"type":"event","name":"SetMintDevFee","inputs":[{"name":"newFee","type":"uint256","indexed":false,"internalType":"uint256"}],"anonymous":false},{"type":"event","name":"SetMintPrizeFee","inputs":[{"name":"newFee","type":"uint256","indexed":false,"internalType":"uint256"}],"anonymous":false},{"type":"event","name":"SkirmishBags","inputs":[{"name":"draws","type":"uint256","indexed":false,"internalType":"uint256"},{"name":"diceBag0","type":"uint256[]","indexed":false,"internalType":"uint256[]"},{"name":"diceBag1","type":"uint256[]","indexed":false,"internalType":"uint256[]"}],"anonymous":false},{"type":"event","name":"SkirmishColor","inputs":[{"name":"color0","type":"uint256","indexed":false,"internalType":"uint256"},{"name":"color1","type":"uint256","indexed":false,"internalType":"uint256"},{"name":"round","type":"uint16","indexed":false,"internalType":"uint16"},{"name":"side0","type":"uint256","indexed":false,"internalType":"uint256"},{"name":"side1","type":"uint256","indexed":false,"internalType":"uint256"}],"anonymous":false},{"type":"event","name":"SkirmishPlayers","inputs":[{"name":"player0","type":"address","indexed":true,"internalType":"address"},{"name":"player1","type":"address","indexed":true,"internalType":"address"},{"name":"wins0","type":"uint8","indexed":false,"internalType":"uint8"},{"name":"wins1","type":"uint8","indexed":false,"internalType":"uint8"},{"name":"ties","type":"uint8","indexed":false,"internalType":"uint8"}],"anonymous":false},{"type":"event","name":"Sponsored","inputs":[{"name":"sender","type":"address","indexed":true,"internalType":"address"},{"name":"account","type":"address","indexed":true,"internalType":"address"},{"name":"amount","type":"uint256","indexed":false,"internalType":"uint256"},{"name":"balance","type":"uint256","indexed":false,"internalType":"uint256"},{"name":"total","type":"uint256","indexed":false,"internalType":"uint256"}],"anonymous":false},{"type":"error","name":"AlreadyInitialized","inputs":[]},{"type":"error","name":"NewOwnerIsZeroAddress","inputs":[]},{"type":"error","name":"NoHandoverRequest","inputs":[]},{"type":"error","name":"Unauthorized","inputs":[]}],"bytecode":{"object":"0x6101006040525f80555f600155348015610017575f80fd5b5060405161486c38038061486c83398101604081905261003691610687565b5f84116100725760405162461bcd60e51b815260206004820152600660248201526521707269636560d01b604482015260640160405180910390fd5b61007b89610574565b600480546001600160a01b03808b166001600160a01b031992831617909255600580548a84169216919091179055868116608052851660a05260e08490526006839055600782905560036100cf828261083d565b5060a0516001600160a01b03166338d52e0f6040518163ffffffff1660e01b8152600401602060405180830381865afa15801561010e573d5f803e3d5ffd5b505050506040513d601f19601f8201168201806040525081019061013291906108f7565b6001600160a01b0390811660c081905260405163095ea7b360e01b815291871660048301525f1960248301529063095ea7b3906044016020604051808303815f875af1158015610184573d5f803e3d5ffd5b505050506040513d601f19601f820116820180604052508101906101a89190610919565b5060408051610120810182526004606082018181526080830182905260a0830182905260c0830182905260e083018290526009610100840152825282518084018452600381526214995960ea1b602080830191909152808401919091528351808501855291825263f09f9fa560e01b9082015291810191909152805160089061023490829060066105b0565b5060208201516001820190610249908261083d565b506040820151600282019061025e908261083d565b505060408051610120810182526003606082018181526080830182905260a0830182905260c0830191909152600860e0830181905261010083015281528151808301835260068082526559656c6c6f7760d01b602080840191909152808401929092528351808501855281815265e2ad90efb88f60d01b92810192909252928201528051909250600b916102f39183916105b0565b5060208201516001820190610308908261083d565b506040820151600282019061031d908261083d565b505060408051610120810182526002606082018181526080830182905260a0830191909152600760c0830181905260e08301819052610100830152815281518083018352600480825263426c756560e01b602080840191909152808401929092528351808501855290815263f09f94b760e01b91810191909152918101919091528051909150600e906103b390829060066105b0565b50602082015160018201906103c8908261083d565b50604082015160028201906103dd908261083d565b505060408051610120810182526001606082018181526080830191909152600660a0830181905260c0830181905260e0830181905261010083018190529082528251808401845260078152664d6167656e746160c81b602080830191909152808401919091528351808501855260048152633c27e4a760e21b918101919091529282019290925280519092506011916104779183916105b0565b506020820151600182019061048c908261083d565b50604082015160028201906104a1908261083d565b505060408051610120810182525f6060820190815260056080830181905260a0830181905260c0830181905260e08301819052610100830181905290825282518084018452908152644f6c69766560d81b60208083019190915280830191909152825180840184526004815263784fd5c960e11b9181019190915291810191909152805190915060149061053890829060066105b0565b506020820151600182019061054d908261083d565b5060408201516002820190610562908261083d565b50905050505050505050505050610938565b6001600160a01b0316638b78c6d819819055805f7f8be0079c531659141344cd1fd0a4f28419497f9722a3daafe3b4186f6b6457e08180a35b50565b60018301918390821561063b579160200282015f5b8382111561060957835183826101000a81548163ffffffff021916908363ffffffff16021790555092602001926004016020816003010492830192600103026105c5565b80156106395782816101000a81549063ffffffff0219169055600401602081600301049283019260010302610609565b505b5061064792915061064b565b5090565b5b80821115610647575f815560010161064c565b6001600160a01b03811681146105ad575f80fd5b634e487b7160e01b5f52604160045260245ffd5b5f805f805f805f805f6101208a8c0312156106a0575f80fd5b89516106ab8161065f565b60208b01519099506106bc8161065f565b60408b01519098506106cd8161065f565b60608b01519097506106de8161065f565b60808b01519096506106ef8161065f565b60a08b015160c08c015160e08d01516101008e0151939850919650945092506001600160401b03811115610721575f80fd5b8a015f601f82018d13610732575f80fd5b81516001600160401b0381111561074b5761074b610673565b604051601f8201601f19908116603f011681016001600160401b038111828210171561077957610779610673565b6040528181528382016020018f1015610790575f80fd5b8160208501602083015e5f60208383010152809250809450505050509295985092959850929598565b600181811c908216806107cd57607f821691505b6020821081036107eb57634e487b7160e01b5f52602260045260245ffd5b50919050565b601f82111561083857805f5260205f20601f840160051c810160208510156108165750805b601f840160051c820191505b81811015610835575f8155600101610822565b50505b505050565b81516001600160401b0381111561085657610856610673565b61086a8161086484546107b9565b846107f1565b6020601f82116001811461089c575f83156108855750848201515b5f19600385901b1c1916600184901b178455610835565b5f84815260208120601f198516915b828110156108cb57878501518255602094850194600190920191016108ab565b50848210156108e857868401515f19600387901b60f8161c191681555b50505050600190811b01905550565b5f60208284031215610907575f80fd5b81516109128161065f565b9392505050565b5f60208284031215610929575f80fd5b81518015158114610912575f80fd5b60805160a05160c05160e051613e36610a365f395f8181610600015261275001525f8181610860015281816114c601528181611915015261212c01525f818161057d01528181610e1601528181611247015281816114e8015281816115660152818161183301528181611959015281816119e4015281816121720152818161242901528181612535015281816128fe0152818161297901528181612a280152818161326201526132ee01525f81816104b801528181610bef01528181610f1f015281816110ea01528181611620015281816116e1015281816117640152818161220b0152818161233b015281816125ba01526134380152613e365ff3fe608060405260043610610326575f3560e01c806399d7de81116101a3578063ca7b798a116100f2578063f122e4b011610092578063f88d67321161006d578063f88d673214610958578063f979dce614610985578063fd86bbc714610999578063fee81cf4146109b8575f80fd5b8063f122e4b014610912578063f2fde38b14610926578063f3ac3df514610939575f80fd5b8063e2eb41ff116100cd578063e2eb41ff146108a1578063e808c6ee146108cc578063ef7de992146108e0578063f04e283e146108ff575f80fd5b8063ca7b798a14610830578063d0ef024a1461084f578063d4e28c9c14610882575f80fd5b8063a9bd30371161015d578063b9375fb211610138578063b9375fb2146107b4578063bef9c2e1146107d3578063c5a46ee6146107f2578063c87b56dd14610811575f80fd5b8063a9bd303714610760578063aa92f01d14610774578063ad7c952d14610793575f80fd5b806399d7de81146106a257806399e0dd7c146106b6578063a100d967146106d5578063a1d4872d14610700578063a53d1a4b1461072d578063a612ee8d14610741575f80fd5b806354e05b1111610279578063727670091161021957806382c82f54116101f457806382c82f54146106225780638c995e44146106415780638da5cb5b14610675578063978a70551461068d575f80fd5b806372767009146105bb5780637315ab50146105da578063808d5259146105ef575f80fd5b80636454a592116102545780636454a59214610558578063703bafd51461056c578063715018a61461059f5780637249db4d146105a7575f80fd5b806354e05b111461050157806355b49068146105155780636177a2e914610543575f80fd5b80632fe0dd2a116102e45780634390d2a8116102bf5780634390d2a81461047057806347ccca02146104a75780634e41a1fb146104da57806354d1f13d146104f9575f80fd5b80632fe0dd2a146104175780633e22c36e14610436578063409ffae71461045c575f80fd5b8062ad800c1461032a5780630900f0101461035f578063096664ee146103805780631764ded2146103ad5780631ec82cb8146103f0578063256929621461040f575b5f80fd5b348015610335575f80fd5b506103496103443660046134c1565b6109e9565b6040516103569190613506565b60405180910390f35b34801561036a575f80fd5b5061037e610379366004613533565b610bc2565b005b34801561038b575f80fd5b5061039f61039a3660046135cf565b610c49565b604051908152602001610356565b3480156103b8575f80fd5b506103cc6103c73660046135e9565b610c64565b6040805160ff94851681529284166020840152921691810191909152606001610356565b3480156103fb575f80fd5b5061037e61040a36600461361a565b610ddc565b61037e610e9c565b348015610422575f80fd5b5061037e610431366004613654565b610ee8565b348015610441575f80fd5b5061044a600c81565b60405160ff9091168152602001610356565b348015610467575f80fd5b5061039f611224565b34801561047b575f80fd5b5060045461048f906001600160a01b031681565b6040516001600160a01b039091168152602001610356565b3480156104b2575f80fd5b5061048f7f000000000000000000000000000000000000000000000000000000000000000081565b3480156104e5575f80fd5b506103496104f43660046134c1565b6112be565b61037e611480565b34801561050c575f80fd5b5061037e6114b9565b348015610520575f80fd5b5061053461052f3660046134c1565b611510565b60405190518152602001610356565b34801561054e575f80fd5b5061039f60075481565b348015610563575f80fd5b5061039f61152c565b348015610577575f80fd5b5061048f7f000000000000000000000000000000000000000000000000000000000000000081565b61037e6115d7565b3480156105b2575f80fd5b5061039f600581565b3480156105c6575f80fd5b5061039f6105d53660046136cd565b6115e8565b3480156105e5575f80fd5b5061039f60015481565b3480156105fa575f80fd5b5061039f7f000000000000000000000000000000000000000000000000000000000000000081565b34801561062d575f80fd5b5061037e61063c3660046134c1565b6118c2565b34801561064c575f80fd5b5061066061065b36600461374b565b611906565b60408051928352602083019190915201610356565b348015610680575f80fd5b50638b78c6d8195461048f565b348015610698575f80fd5b5061039f60065481565b3480156106ad575f80fd5b50610534611b47565b3480156106c1575f80fd5b5061037e6106d0366004613773565b611b5c565b3480156106e0575f80fd5b5061039f6106ef366004613533565b60026020525f908152604090205481565b34801561070b575f80fd5b5061071f61071a366004613805565b611b74565b60405161035692919061385a565b348015610738575f80fd5b5061039f5f5481565b34801561074c575f80fd5b506103cc61075b366004613916565b611d5b565b34801561076b575f80fd5b5061044a600a81565b34801561077f575f80fd5b5061037e61078e3660046134c1565b611f3c565b34801561079e575f80fd5b506107a7611f79565b6040516103569190613988565b3480156107bf575f80fd5b506103cc6107ce366004613533565b611f92565b3480156107de575f80fd5b5061037e6107ed36600461374b565b6120d0565b3480156107fd575f80fd5b5061039f61080c3660046134c1565b612207565b34801561081c575f80fd5b5061034961082b3660046134c1565b6122d8565b34801561083b575f80fd5b5061037e61084a36600461374b565b612304565b34801561085a575f80fd5b5061048f7f000000000000000000000000000000000000000000000000000000000000000081565b34801561088d575f80fd5b5061039f61089c3660046134c1565b6125a7565b3480156108ac575f80fd5b5061039f6108bb366004613533565b60176020525f908152604090205481565b3480156108d7575f80fd5b5061039f600681565b3480156108eb575f80fd5b506107a76108fa366004613805565b612613565b61037e61090d366004613533565b61270a565b34801561091d575f80fd5b5061039f612747565b61037e610934366004613533565b612788565b348015610944575f80fd5b5060055461048f906001600160a01b031681565b348015610963575f80fd5b506109776109723660046134c1565b6127ae565b60405161035692919061399a565b348015610990575f80fd5b5061039f6128e2565b3480156109a4575f80fd5b506103cc6109b33660046139be565b612ab0565b3480156109c3575f80fd5b5061039f6109d2366004613533565b63389a75e1600c9081525f91909152602090205490565b60605f60086109f7846125a7565b60058110610a0757610a07613a02565b604080516101208101909152916003919091020181606081018260068282826020028201915f905b82829054906101000a900463ffffffff1663ffffffff1681526020019060040190602082600301049283019260010382029150808411610a2f57905050505050508152602001600182018054610a8490613a16565b80601f0160208091040260200160405190810160405280929190818152602001828054610ab090613a16565b8015610afb5780601f10610ad257610100808354040283529160200191610afb565b820191905f5260205f20905b815481529060010190602001808311610ade57829003601f168201915b50505050508152602001600282018054610b1490613a16565b80601f0160208091040260200160405190810160405280929190818152602001828054610b4090613a16565b8015610b8b5780601f10610b6257610100808354040283529160200191610b8b565b820191905f5260205f20905b815481529060010190602001808311610b6e57829003601f168201915b50505050508152505090508060200151604051602001610bab9190613a5f565b604051602081830303815290604052915050919050565b610bca612f4a565b6040516288644960e11b81526001600160a01b038281166004830152600160248301527f00000000000000000000000000000000000000000000000000000000000000001690630110c892906044015f604051808303815f87803b158015610c30575f80fd5b505af1158015610c42573d5f803e3d5ffd5b5050505050565b602081208082525f90610c5e90600690613a87565b92915050565b60408051600c8082526101a082019092525f91829182918291906020820161018080368337505060408051600c8082526101a082019092529293505f92915060208201610180803683370190505090505f5b600c811015610d68576001600160a01b0388165f90815260176020526040902060010181600c8110610cea57610cea613a02565b0154838281518110610cfe57610cfe613a02565b60200260200101818152505060175f886001600160a01b03166001600160a01b031681526020019081526020015f2060010181600c8110610d4157610d41613a02565b0154828281518110610d5557610d55613a02565b6020908102919091010152600101610cb6565b50610d758282600a611d5b565b6040805160ff85811682528481166020830152831681830152905193985091965094506001600160a01b0388811692908a16917f48d303ef948f33c6e39b8e27fb525cc5ae6783b50bf9fb1ed0f9cc47ab76f8a8919081900360600190a350509250925092565b638b78c6d819546001600160a01b0316336001600160a01b03161480610e0c57506004546001600160a01b031633145b610e14575f80fd5b7f00000000000000000000000000000000000000000000000000000000000000006001600160a01b0316836001600160a01b031603610e835760405162461bcd60e51b815260206004820152600660248201526510ba37b5b2b760d11b60448201526064015b60405180910390fd5b610e976001600160a01b0384168383612f64565b505050565b5f6202a3006001600160401b03164201905063389a75e1600c52335f52806020600c2055337fdbf36a107da19e49527a7176a1babf963b4b0ff8cde35ee35d6cd8f1f9ac7e1d5f80a250565b6001600160a01b038216331480610f885750604051635b1b1e7960e11b81526001600160a01b0383811660048301523360248301527f0000000000000000000000000000000000000000000000000000000000000000169063b6363cf290604401602060405180830381865afa158015610f64573d5f803e3d5ffd5b505050506040513d601f19601f82011682018060405250810190610f889190613aa6565b610fa45760405162461bcd60e51b8152600401610e7a90613ac5565b6001600160a01b0382165f908152601760205260408082208151600c8082526101a082019093529092918160200160208202803683370190505090505f5b600c8110156110a0578381600c8110610ffd57610ffd613a02565b60200201358360010182600c811061101757611017613a02565b01555f5b818111611097578481600c811061103457611034613a02565b60200201358583600c811061104b5761104b613a02565b60200201350361108557600183838151811061106957611069613a02565b6020026020010181815161107d9190613af8565b905250611097565b8061108f81613b0b565b91505061101b565b50600101610fe2565b505f5b600c8110156111d9575f828583600c81106110c0576110c0613a02565b6020020135815181106110d5576110d5613a02565b602002602001015190505f8111156111d057807f00000000000000000000000000000000000000000000000000000000000000006001600160a01b031662fdd58e888886600c811061112957611129613a02565b6040516001600160e01b031960e086901b1681526001600160a01b03909316600484015260200201356024820152604401602060405180830381865afa158015611175573d5f803e3d5ffd5b505050506040513d601f19601f820116820180604052508101906111999190613b23565b10156111d05760405162461bcd60e51b8152600401610e7a906020808252600490820152630858985b60e21b604082015260600190565b506001016110a3565b50836001600160a01b03167fb03a56df55bd2b68e6791773614fabea5bfdcb7a1f9ccc1f7d3de57d6f17d61e836001016040516112169190613b3a565b60405180910390a250505050565b5f8061122e6128e2565b60405163266d6a8360e11b8152600481018290529091507f00000000000000000000000000000000000000000000000000000000000000006001600160a01b031690634cdad50690602401602060405180830381865afa158015611294573d5f803e3d5ffd5b505050506040513d601f19601f820116820180604052508101906112b89190613b23565b91505090565b60605f60086112cc846125a7565b600581106112dc576112dc613a02565b604080516101208101909152916003919091020181606081018260068282826020028201915f905b82829054906101000a900463ffffffff1663ffffffff16815260200190600401906020826003010492830192600103820291508084116113045790505050505050815260200160018201805461135990613a16565b80601f016020809104026020016040519081016040528092919081815260200182805461138590613a16565b80156113d05780601f106113a7576101008083540402835291602001916113d0565b820191905f5260205f20905b8154815290600101906020018083116113b357829003601f168201915b505050505081526020016002820180546113e990613a16565b80601f016020809104026020016040519081016040528092919081815260200182805461141590613a16565b80156114605780601f1061143757610100808354040283529160200191611460565b820191905f5260205f20905b81548152906001019060200180831161144357829003601f168201915b50505050508152505090508060400151604051602001610bab9190613b6b565b63389a75e1600c52335f525f6020600c2055337ffa7b8eab7da67f412cc9575ed43464468f9bfbae89d1675917346ca6d8fe3c925f80a2565b61150e6001600160a01b037f0000000000000000000000000000000000000000000000000000000000000000167f00000000000000000000000000000000000000000000000000000000000000005f19612fa4565b565b6040805160208101909152818152602081208082525b50919050565b5f6115356128e2565b905080156115d45760055460405163a9059cbb60e01b81526001600160a01b039182166004820152602481018390527f00000000000000000000000000000000000000000000000000000000000000009091169063a9059cbb906044016020604051808303815f875af11580156115ae573d5f803e3d5ffd5b505050506040513d601f19601f820116820180604052508101906115d29190613aa6565b505b90565b6115df612f4a565b61150e5f613010565b5f6001600160a01b0386163314806116895750604051635b1b1e7960e11b81526001600160a01b0387811660048301523360248301527f0000000000000000000000000000000000000000000000000000000000000000169063b6363cf290604401602060405180830381865afa158015611665573d5f803e3d5ffd5b505050506040513d601f19601f820116820180604052508101906116899190613aa6565b6116a55760405162461bcd60e51b8152600401610e7a90613ac5565b838281146116de5760405162461bcd60e51b8152600401610e7a9060208082526004908201526310b632b760e11b604082015260600190565b5f7f00000000000000000000000000000000000000000000000000000000000000006001600160a01b03166318160ddd6040518163ffffffff1660e01b8152600401602060405180830381865afa15801561173b573d5f803e3d5ffd5b505050506040513d601f19601f8201168201806040525081019061175f9190613b23565b90505f7f00000000000000000000000000000000000000000000000000000000000000006001600160a01b0316633db0f8ab8a8a8a8a8a6040518663ffffffff1660e01b81526004016117b6959493929190613bb1565b6020604051808303815f875af11580156117d2573d5f803e3d5ffd5b505050506040513d601f19601f820116820180604052508101906117f69190613b23565b90506118045f54828461304d565b604051632d182be560e21b8152600481018290526001600160a01b038b811660248301523060448301529195507f00000000000000000000000000000000000000000000000000000000000000009091169063b460af94906064016020604051808303815f875af115801561187b573d5f803e3d5ffd5b505050506040513d601f19601f8201168201806040525081019061189f9190613b23565b50835f808282546118b09190613bf4565b90915550939998505050505050505050565b6118ca612f4a565b60068190556040518181527feba5eb1ca8247027a214a860eb7e6ab15a93b0831a0564ecce97f46029ebfb41906020015b60405180910390a150565b5f8061193d6001600160a01b037f0000000000000000000000000000000000000000000000000000000000000000163330866130e9565b604051636e553f6560e01b8152600481018490523060248201527f00000000000000000000000000000000000000000000000000000000000000006001600160a01b031690636e553f65906044016020604051808303815f875af11580156119a7573d5f803e3d5ffd5b505050506040513d601f19601f820116820180604052508101906119cb9190613b23565b60405163266d6a8360e11b8152600481018290529091507f00000000000000000000000000000000000000000000000000000000000000006001600160a01b031690634cdad50690602401602060405180830381865afa158015611a31573d5f803e3d5ffd5b505050506040513d601f19601f82011682018060405250810190611a559190613b23565b92505f8311611a905760405162461bcd60e51b815260206004820152600760248201526608585b5bdd5b9d60ca1b6044820152606401610e7a565b6001600160a01b0384165f9081526002602052604081208054859290611ab7908490613af8565b925050819055508260015f828254611acf9190613af8565b90915550506001600160a01b0384165f818152600260205260409081902054600154915133927ffd4da46b125296e8be376b0a77089f71b7fd166556465b2a37bd2b04d4740c0e92611b34928992909283526020830191909152604082015260600190565b60405180910390a38291505b9250929050565b604080516020810190915243408082526115d2565b611b64612f4a565b6003611b708282613c4b565b5050565b60408051600580825260c0820190925260609182915f916020820160a080368337505060408051600580825260c0820190925292955090506020820160a0803683370190505091505f611bc960016005613bf4565b90505f5b81811015611cf857611be0816001613af8565b858281518110611bf257611bf2613a02565b602002602001018181525050848181518110611c1057611c10613a02565b60200260200101515f03611c4e5760405162461bcd60e51b8152602060048201526005602482015264627567203160d81b6044820152606401610e7a565b5f611c598488613bf4565b9050611c658882613138565b858381518110611c7757611c77613a02565b602002602001018181525050848281518110611c9557611c95613a02565b602002602001015184611ca89190613af8565b935086841115611ce25760405162461bcd60e51b8152602060048201526005602482015264313ab3901960d91b6044820152606401610e7a565b868403611cef5750611cf8565b50600101611bcd565b50611d04816001613af8565b848281518110611d1657611d16613a02565b6020908102919091010152611d2b8286613bf4565b838281518110611d3d57611d3d613a02565b6020908102919091010152611d528685613154565b50509250929050565b5f805f80611d67611b47565b87518751919250908114611dc75760405162461bcd60e51b815260206004820152602160248201527f446963652062616773206d757374206265207468652073616d65206c656e67746044820152600d60fb1b6064820152608401610e7a565b8560ff16811015611e255760405162461bcd60e51b815260206004820152602260248201527f6e656564206d6f7265206469636520666f722074686973206d616e7920647261604482015261777360f01b6064820152608401610e7a565b611e2f8289613154565b611e398288613154565b7f320ed12b9ad3655effca87becbe8132bfeff36d2b6d3febf0dbbaecc870da723868989604051611e6c93929190613d05565b60405180910390a15f5b8660ff16811015611f30575f611ea48a8381518110611e9757611e97613a02565b60200260200101516125a7565b90505f611ebc8a8481518110611e9757611e97613a02565b90505f80611ecd878585600a612ab0565b50915091508060ff168260ff161115611ef25789611eea81613d32565b9a5050611f20565b8160ff168160ff161115611f125788611f0a81613d32565b995050611f20565b87611f1c81613d32565b9850505b505060019092019150611e769050565b50505093509350939050565b611f44612f4a565b60078190556040518181527faebd95d9f06c21bb5a97c4290d75216567798cb36803de1bd9073a0561d3407a906020016118fb565b60605f611f8543611510565b90506112b881600c612613565b6001600160a01b0381165f908152601760209081526040808320815180830183528154815282516101808101938490528594859485949291840191906001840190600c9082845b815481526020019060010190808311611fd95750505050508152505090505f612000611f79565b60408051600c8082526101a082019092529192505f9190602082016101808036833701905050905080518251146120685760405162461bcd60e51b815260206004820152600c60248201526b626164206261672073697a6560a01b6044820152606401610e7a565b5f5b600c8110156120b357836020015181600c811061208957612089613a02565b60200201518282815181106120a0576120a0613a02565b602090810291909101015260010161206a565b506120c08183600a611d5b565b9199909850909650945050505050565b5f81116121075760405162461bcd60e51b8152602060048201526005602482015264216469636560d81b6044820152606401610e7a565b5f612110612747565b90505f61211d8284613d50565b90506121546001600160a01b037f0000000000000000000000000000000000000000000000000000000000000000163330846130e9565b604051636e553f6560e01b8152600481018290523060248201525f907f00000000000000000000000000000000000000000000000000000000000000006001600160a01b031690636e553f65906044016020604051808303815f875af11580156121c0573d5f803e3d5ffd5b505050506040513d601f19601f820116820180604052508101906121e49190613b23565b90505f6121f043611510565b90506121ff81878785886131d7565b505050505050565b5f807f00000000000000000000000000000000000000000000000000000000000000006001600160a01b03166318160ddd6040518163ffffffff1660e01b8152600401602060405180830381865afa158015612265573d5f803e3d5ffd5b505050506040513d601f19601f820116820180604052508101906122899190613b23565b9050808311156122c55760405162461bcd60e51b815260206004820152600760248201526621737570706c7960c81b6044820152606401610e7a565b6122d15f54848361304d565b9392505050565b60606003826040516020016122ee929190613d67565b6040516020818303038152906040529050919050565b6001600160a01b0382163314806123a45750604051635b1b1e7960e11b81526001600160a01b0383811660048301523360248301527f0000000000000000000000000000000000000000000000000000000000000000169063b6363cf290604401602060405180830381865afa158015612380573d5f803e3d5ffd5b505050506040513d601f19601f820116820180604052508101906123a49190613aa6565b6123c05760405162461bcd60e51b8152600401610e7a90613ac5565b6001600160a01b0382165f90815260026020526040902054808211156124115760405162461bcd60e51b8152600401610e7a906020808252600490820152630858985b60e21b604082015260600190565b604051630a28a47760e01b8152600481018390525f907f00000000000000000000000000000000000000000000000000000000000000006001600160a01b031690630a28a47790602401602060405180830381865afa158015612476573d5f803e3d5ffd5b505050506040513d601f19601f8201168201806040525081019061249a9190613b23565b90505f81116124d55760405162461bcd60e51b81526020600482015260076024820152662173686172657360c81b6044820152606401610e7a565b6001600160a01b0384165f90815260026020526040812080548592906124fc908490613bf4565b925050819055508260015f8282546125149190613bf4565b909155505060405163a9059cbb60e01b8152306004820152602481018290527f00000000000000000000000000000000000000000000000000000000000000006001600160a01b03169063a9059cbb906044016020604051808303815f875af1158015612583573d5f803e3d5ffd5b505050506040513d601f19601f82011682018060405250810190610c429190613aa6565b6040516bffffffffffffffffffffffff197f000000000000000000000000000000000000000000000000000000000000000060601b166020820152603481018290525f90600590605401604051602081830303815290604052805190602001205f1c610c5e9190613a87565b60605f806126218585611b74565b91509150836001600160401b0381111561263d5761263d61354c565b604051908082528060200260200182016040528015612666578160200160208202803683370190505b5082519093505f90815b818110156126f5575f85828151811061268b5761268b613a02565b602002602001015190505f5b8583815181106126a9576126a9613a02565b60200260200101518110156126eb57818886815181106126cb576126cb613a02565b6020908102919091010152846126e081613b0b565b955050600101612697565b5050600101612670565b506127008786613154565b5050505092915050565b612712612f4a565b63389a75e1600c52805f526020600c20805442111561273857636f5e88185f526004601cfd5b5f905561274481613010565b50565b5f6007546006547f00000000000000000000000000000000000000000000000000000000000000006127799190613af8565b6127839190613af8565b905090565b612790612f4a565b8060601b6127a557637448fbae5f526004601cfd5b61274481613010565b600881600581106127bd575f80fd5b600302015f915090508060010180546127d590613a16565b80601f016020809104026020016040519081016040528092919081815260200182805461280190613a16565b801561284c5780601f106128235761010080835404028352916020019161284c565b820191905f5260205f20905b81548152906001019060200180831161282f57829003601f168201915b50505050509080600201805461286190613a16565b80601f016020809104026020016040519081016040528092919081815260200182805461288d90613a16565b80156128d85780601f106128af576101008083540402835291602001916128d8565b820191905f5260205f20905b8154815290600101906020018083116128bb57829003601f168201915b5050505050905082565b5f8054604051630a28a47760e01b815282916001600160a01b037f00000000000000000000000000000000000000000000000000000000000000001691630a28a477916129359160040190815260200190565b602060405180830381865afa158015612950573d5f803e3d5ffd5b505050506040513d601f19601f820116820180604052508101906129749190613b23565b90505f7f00000000000000000000000000000000000000000000000000000000000000006001600160a01b0316630a28a4776001546040518263ffffffff1660e01b81526004016129c791815260200190565b602060405180830381865afa1580156129e2573d5f803e3d5ffd5b505050506040513d601f19601f82011682018060405250810190612a069190613b23565b6040516370a0823160e01b81523060048201529091505f906001600160a01b037f000000000000000000000000000000000000000000000000000000000000000016906370a0823190602401602060405180830381865afa158015612a6d573d5f803e3d5ffd5b505050506040513d601f19601f82011682018060405250810190612a919190613b23565b905081612a9e8483613bf4565b612aa89190613bf4565b935050505090565b5f8080806008612ac1600589613a87565b60058110612ad157612ad1613a02565b604080516101208101909152916003919091020181606081018260068282826020028201915f905b82829054906101000a900463ffffffff1663ffffffff1681526020019060040190602082600301049283019260010382029150808411612af957905050505050508152602001600182018054612b4e90613a16565b80601f0160208091040260200160405190810160405280929190818152602001828054612b7a90613a16565b8015612bc55780601f10612b9c57610100808354040283529160200191612bc5565b820191905f5260205f20905b815481529060010190602001808311612ba857829003601f168201915b50505050508152602001600282018054612bde90613a16565b80601f0160208091040260200160405190810160405280929190818152602001828054612c0a90613a16565b8015612c555780601f10612c2c57610100808354040283529160200191612c55565b820191905f5260205f20905b815481529060010190602001808311612c3857829003601f168201915b50505050508152505090505f6008600588612c709190613a87565b60058110612c8057612c80613a02565b604080516101208101909152916003919091020181606081018260068282826020028201915f905b82829054906101000a900463ffffffff1663ffffffff1681526020019060040190602082600301049283019260010382029150808411612ca857905050505050508152602001600182018054612cfd90613a16565b80601f0160208091040260200160405190810160405280929190818152602001828054612d2990613a16565b8015612d745780601f10612d4b57610100808354040283529160200191612d74565b820191905f5260205f20905b815481529060010190602001808311612d5757829003601f168201915b50505050508152602001600282018054612d8d90613a16565b80601f0160208091040260200160405190810160405280929190818152602001828054612db990613a16565b8015612e045780601f10612ddb57610100808354040283529160200191612e04565b820191905f5260205f20905b815481529060010190602001808311612de757829003601f168201915b50505050508152505090505f5b8660ff168161ffff161015612f3d575f612e2a8b610c49565b90505f612e368c610c49565b90505f855f01518360068110612e4e57612e4e613a02565b602002015190505f855f01518360068110612e6b57612e6b613a02565b602002015190507f46f9513b32e1c7b07b2ac02bfdd69a2f9cb49443e50d0d4af92eef3ecd1182e08d8d878787604051612ecb959493929190948552602085019390935261ffff9190911660408401526060830152608082015260a00190565b60405180910390a18063ffffffff168263ffffffff161115612ef95789612ef181613d32565b9a5050612f2d565b8163ffffffff168163ffffffff161115612f1f5788612f1781613d32565b995050612f2d565b87612f2981613d32565b9850505b505060019092019150612e119050565b5050509450945094915050565b638b78c6d81954331461150e576382b429005f526004601cfd5b816014528060345263a9059cbb60601b5f5260205f604460105f875af13d1560015f51141716612f9b576390b8ec185f526004601cfd5b5f603452505050565b816014528060345263095ea7b360601b5f5260205f604460105f875af13d1560015f51141716612f9b575f60345263095ea7b360601b5f525f38604460105f875af1508060345260205f604460105f875af13d1560015f51141716612f9b57633e3f8f735f526004601cfd5b638b78c6d81980546001600160a01b039092169182907f8be0079c531659141344cd1fd0a4f28419497f9722a3daafe3b4186f6b6457e05f80a355565b8282025f19838509818110820190038061307c57826130735763ae47f7025f526004601cfd5b508190046122d1565b8083116130905763ae47f7025f526004601cfd5b828486095f84810385169485900494848311909303908390038390046001010292030417600260038302811880840282030280840282030280840282030280840282030280840282030280840290910302029392505050565b60405181606052826040528360601b602c526323b872dd60601b600c5260205f6064601c5f895af13d1560015f5114171661312b57637939f4245f526004601cfd5b5f60605260405250505050565b5f5b60208320905080835281825f0306811061313a5706919050565b80515f196fffffffffffffffffffffffffffffffff8215610c42576020840193505b6020852080865282840193608082901c0660051b850184613198575050610c42565b600585811b8701805183519091529091528385019482841606901b8501846131c1575050610c42565b600585901b860180518251909152905250613176565b6001600160a01b0384165f908152601760205260408120805490918591839190613202908490613af8565b925050819055505f613217846007548561304d565b90505f613227856006548661304d565b90505f816132358488613bf4565b61323f9190613bf4565b60405163266d6a8360e11b8152600481018290529091505f906001600160a01b037f00000000000000000000000000000000000000000000000000000000000000001690634cdad50690602401602060405180830381865afa1580156132a7573d5f803e3d5ffd5b505050506040513d601f19601f820116820180604052508101906132cb9190613b23565b60405163266d6a8360e11b8152600481018590529091505f906001600160a01b037f00000000000000000000000000000000000000000000000000000000000000001690634cdad50690602401602060405180830381865afa158015613333573d5f803e3d5ffd5b505050506040513d601f19601f820116820180604052508101906133579190613b23565b6004546001600160a01b03165f90815260026020526040812080549293508392909190613385908490613af8565b92505081905550815f8082825461339c9190613af8565b925050819055508060015f8282546133b49190613af8565b90915550505f5460015460408051848152602081018990529081019290925260608201526001600160a01b038b16907febf2df875b555f5edaef342e52b6a9498cccaec4813df8eb0f3842acc6d082819060800160405180910390a25f8061341c8d8c611b74565b604051634b93bab560e11b815291935091506001600160a01b037f00000000000000000000000000000000000000000000000000000000000000001690639727756a90613471908f9086908690600401613ddd565b6020604051808303815f875af115801561348d573d5f803e3d5ffd5b505050506040513d601f19601f820116820180604052508101906134b19190613b23565b5050505050505050505050505050565b5f602082840312156134d1575f80fd5b5035919050565b5f81518084528060208401602086015e5f602082860101526020601f19601f83011685010191505092915050565b602081525f6122d160208301846134d8565b80356001600160a01b038116811461352e575f80fd5b919050565b5f60208284031215613543575f80fd5b6122d182613518565b634e487b7160e01b5f52604160045260245ffd5b604051601f8201601f191681016001600160401b03811182821017156135885761358861354c565b604052919050565b5f602082840312156135a0575f80fd5b604051602081016001600160401b03811182821017156135c2576135c261354c565b6040529135825250919050565b5f602082840312156135df575f80fd5b6122d18383613590565b5f80604083850312156135fa575f80fd5b61360383613518565b915061361160208401613518565b90509250929050565b5f805f6060848603121561362c575f80fd5b61363584613518565b925061364360208501613518565b929592945050506040919091013590565b5f806101a08385031215613666575f80fd5b61366f83613518565b9150836101a084011115613681575f80fd5b50926020919091019150565b5f8083601f84011261369d575f80fd5b5081356001600160401b038111156136b3575f80fd5b6020830191508360208260051b8501011115611b40575f80fd5b5f805f805f606086880312156136e1575f80fd5b6136ea86613518565b945060208601356001600160401b03811115613704575f80fd5b6137108882890161368d565b90955093505060408601356001600160401b0381111561372e575f80fd5b61373a8882890161368d565b969995985093965092949392505050565b5f806040838503121561375c575f80fd5b61376583613518565b946020939093013593505050565b5f60208284031215613783575f80fd5b81356001600160401b03811115613798575f80fd5b8201601f810184136137a8575f80fd5b80356001600160401b038111156137c1576137c161354c565b6137d4601f8201601f1916602001613560565b8181528560208385010111156137e8575f80fd5b816020840160208301375f91810160200191909152949350505050565b5f8060408385031215613816575f80fd5b6137658484613590565b5f8151808452602084019350602083015f5b82811015613850578151865260209586019590910190600101613832565b5093949350505050565b604081525f61386c6040830185613820565b828103602084015261387e8185613820565b95945050505050565b5f82601f830112613896575f80fd5b81356001600160401b038111156138af576138af61354c565b8060051b6138bf60208201613560565b918252602081850181019290810190868411156138da575f80fd5b6020860192505b838310156138fc5782358252602092830192909101906138e1565b9695505050505050565b803560ff8116811461352e575f80fd5b5f805f60608486031215613928575f80fd5b83356001600160401b0381111561393d575f80fd5b61394986828701613887565b93505060208401356001600160401b03811115613964575f80fd5b61397086828701613887565b92505061397f60408501613906565b90509250925092565b602081525f6122d16020830184613820565b604081525f6139ac60408301856134d8565b828103602084015261387e81856134d8565b5f805f80608085870312156139d1575f80fd5b6139db8686613590565b935060208501359250604085013591506139f760608601613906565b905092959194509250565b634e487b7160e01b5f52603260045260245ffd5b600181811c90821680613a2a57607f821691505b60208210810361152657634e487b7160e01b5f52602260045260245ffd5b5f81518060208401855e5f93019283525090919050565b5f613a6a8284613a48565b6c20416c646572736f6e2044696560981b8152600d019392505050565b5f82613aa157634e487b7160e01b5f52601260045260245ffd5b500690565b5f60208284031215613ab6575f80fd5b815180151581146122d1575f80fd5b602080825260059082015264042c2eae8d60db1b604082015260600190565b634e487b7160e01b5f52601160045260245ffd5b80820180821115610c5e57610c5e613ae4565b5f60018201613b1c57613b1c613ae4565b5060010190565b5f60208284031215613b33575f80fd5b5051919050565b610180810181835f5b600c811015613b62578154835260209092019160019182019101613b43565b50505092915050565b61105160f21b81525f6122d16002830184613a48565b8183525f6001600160fb1b03831115613b98575f80fd5b8260051b80836020870137939093016020019392505050565b6001600160a01b03861681526060602082018190525f90613bd59083018688613b81565b8281036040840152613be8818587613b81565b98975050505050505050565b81810381811115610c5e57610c5e613ae4565b601f821115610e9757805f5260205f20601f840160051c81016020851015613c2c5750805b601f840160051c820191505b81811015610c42575f8155600101613c38565b81516001600160401b03811115613c6457613c6461354c565b613c7881613c728454613a16565b84613c07565b6020601f821160018114613caa575f8315613c935750848201515b5f19600385901b1c1916600184901b178455610c42565b5f84815260208120601f198516915b82811015613cd95787850151825560209485019460019092019101613cb9565b5084821015613cf657868401515f19600387901b60f8161c191681555b50505050600190811b01905550565b60ff84168152606060208201525f613d206060830185613820565b82810360408401526138fc8185613820565b5f60ff821660ff8103613d4757613d47613ae4565b60010192915050565b8082028115828204841417610c5e57610c5e613ae4565b5f808454613d7481613a16565b600182168015613d8b5760018114613da057613dcd565b60ff1983168652811515820286019350613dcd565b875f5260205f205f5b83811015613dc557815488820152600190910190602001613da9565b505081860193505b5050509283525050602001919050565b6001600160a01b03841681526060602082018190525f90613d209083018561382056fea264697066735822122024eea48667986ef29b543a6814c793d40251946576f638c47a727bfa540b2f1564736f6c634300081a0033","linkReferences":{}},"methodIdentifiers":{"NUM_COLORS()":"7249db4d","NUM_DICE_BAG()":"3e22c36e","NUM_ROLLS()":"a9bd3037","NUM_SIDES()":"e808c6ee","blockhashPrng()":"99d7de81","buyNumDice(address,uint256)":"bef9c2e1","cancelOwnershipHandover()":"54d1f13d","color(uint256)":"d4e28c9c","completeOwnershipHandover(address)":"f04e283e","currentBag((uint256),uint256)":"ef7de992","currentBag()":"ad7c952d","devFund()":"4390d2a8","dice(uint256)":"f88d6732","endSponsership(address,uint256)":"ca7b798a","fixGameApprovals()":"54e05b11","mintDevFee()":"978a7055","mintPrizeFee()":"6177a2e9","name(uint256)":"00ad800c","nft()":"47ccca02","numberPrng(uint256)":"55b49068","owner()":"8da5cb5b","ownershipHandoverExpiresAt(address)":"fee81cf4","players(address)":"e2eb41ff","priceWithFees()":"f122e4b0","prizeFund()":"f3ac3df5","prizeSharesAvailable()":"f979dce6","prizeToken()":"d0ef024a","prizeTokenAvailable()":"409ffae7","randomDice((uint256),uint256)":"a1d4872d","randomRoll((uint256))":"096664ee","recover(address,address,uint256)":"1ec82cb8","refundPrice()":"808d5259","renounceOwnership()":"715018a6","requestOwnershipHandover()":"25692962","returnDice(address,uint256[],uint256[])":"72767009","setDiceBag(address,uint256[12])":"2fe0dd2a","setMintDevFee(uint256)":"82c82f54","setMintPrizeFee(uint256)":"aa92f01d","setTokenURIPrefix(string)":"99e0dd7c","skirmishBags(uint256[],uint256[],uint8)":"a612ee8d","skirmishColors((uint256),uint256,uint256,uint8)":"fd86bbc7","skirmishPVE(address)":"b9375fb2","skirmishPlayers(address,address)":"1764ded2","sponsor(address,uint256)":"8c995e44","sponsorships(address)":"a100d967","sweepPrizeFund()":"6454a592","symbol(uint256)":"4e41a1fb","tokenURI(uint256)":"c87b56dd","totalDiceValue()":"a53d1a4b","totalSponsorships()":"7315ab50","transferOwnership(address)":"f2fde38b","upgrade(address)":"0900f010","value(uint256)":"c5a46ee6","vaultToken()":"703bafd5"},"id":29}