{
    "abi": [
        {
            "type": "constructor",
            "inputs": [
                {
                    "name": "_owner",
                    "type": "address",
                    "internalType": "address"
                },
                {
                    "name": "_devFund",
                    "type": "address",
                    "internalType": "address"
                },
                {
                    "name": "_prizeFund",
                    "type": "address",
                    "internalType": "address"
                },
                {
                    "name": "_nft",
                    "type": "address",
                    "internalType": "contract AldersonDiceNFT"
                },
                {
                    "name": "_vaultToken",
                    "type": "address",
                    "internalType": "contract ERC4626"
                },
                {
                    "name": "_refundPrice",
                    "type": "uint256",
                    "internalType": "uint256"
                },
                {
                    "name": "_mintDevFee",
                    "type": "uint256",
                    "internalType": "uint256"
                },
                {
                    "name": "_mintPrizeFee",
                    "type": "uint256",
                    "internalType": "uint256"
                },
                {
                    "name": "_tokenURIPrefix",
                    "type": "string",
                    "internalType": "string"
                }
            ],
            "stateMutability": "nonpayable"
        },
        {
            "type": "function",
            "name": "NUM_COLORS",
            "inputs": [],
            "outputs": [
                {
                    "name": "",
                    "type": "uint256",
                    "internalType": "uint256"
                }
            ],
            "stateMutability": "view"
        },
        {
            "type": "function",
            "name": "NUM_DICE_BAG",
            "inputs": [],
            "outputs": [
                {
                    "name": "",
                    "type": "uint8",
                    "internalType": "uint8"
                }
            ],
            "stateMutability": "view"
        },
        {
            "type": "function",
            "name": "NUM_ROLLS",
            "inputs": [],
            "outputs": [
                {
                    "name": "",
                    "type": "uint8",
                    "internalType": "uint8"
                }
            ],
            "stateMutability": "view"
        },
        {
            "type": "function",
            "name": "NUM_SIDES",
            "inputs": [],
            "outputs": [
                {
                    "name": "",
                    "type": "uint256",
                    "internalType": "uint256"
                }
            ],
            "stateMutability": "view"
        },
        {
            "type": "function",
            "name": "allDice",
            "inputs": [],
            "outputs": [
                {
                    "name": "",
                    "type": "tuple[5]",
                    "internalType": "struct AldersonDiceGameV0.DieColor[5]",
                    "components": [
                        {
                            "name": "pips",
                            "type": "uint32[6]",
                            "internalType": "uint32[6]"
                        },
                        {
                            "name": "name",
                            "type": "string",
                            "internalType": "string"
                        },
                        {
                            "name": "symbol",
                            "type": "string",
                            "internalType": "string"
                        }
                    ]
                }
            ],
            "stateMutability": "view"
        },
        {
            "type": "function",
            "name": "buyNumDice",
            "inputs": [
                {
                    "name": "receiver",
                    "type": "address",
                    "internalType": "address"
                },
                {
                    "name": "numDice",
                    "type": "uint256",
                    "internalType": "uint256"
                }
            ],
            "outputs": [],
            "stateMutability": "nonpayable"
        },
        {
            "type": "function",
            "name": "cancelOwnershipHandover",
            "inputs": [],
            "outputs": [],
            "stateMutability": "payable"
        },
        {
            "type": "function",
            "name": "color",
            "inputs": [
                {
                    "name": "diceId",
                    "type": "uint256",
                    "internalType": "uint256"
                }
            ],
            "outputs": [
                {
                    "name": "",
                    "type": "uint256",
                    "internalType": "uint256"
                }
            ],
            "stateMutability": "pure"
        },
        {
            "type": "function",
            "name": "completeOwnershipHandover",
            "inputs": [
                {
                    "name": "pendingOwner",
                    "type": "address",
                    "internalType": "address"
                }
            ],
            "outputs": [],
            "stateMutability": "payable"
        },
        {
            "type": "function",
            "name": "currentBag",
            "inputs": [],
            "outputs": [
                {
                    "name": "bag",
                    "type": "uint256[]",
                    "internalType": "uint256[]"
                }
            ],
            "stateMutability": "view"
        },
        {
            "type": "function",
            "name": "currentBag",
            "inputs": [
                {
                    "name": "prng",
                    "type": "tuple",
                    "internalType": "struct LibPRNG.PRNG",
                    "components": [
                        {
                            "name": "state",
                            "type": "uint256",
                            "internalType": "uint256"
                        }
                    ]
                },
                {
                    "name": "numDice",
                    "type": "uint256",
                    "internalType": "uint256"
                }
            ],
            "outputs": [
                {
                    "name": "bag",
                    "type": "uint256[]",
                    "internalType": "uint256[]"
                }
            ],
            "stateMutability": "pure"
        },
        {
            "type": "function",
            "name": "devFund",
            "inputs": [],
            "outputs": [
                {
                    "name": "",
                    "type": "address",
                    "internalType": "address"
                }
            ],
            "stateMutability": "view"
        },
        {
            "type": "function",
            "name": "dice",
            "inputs": [
                {
                    "name": "",
                    "type": "uint256",
                    "internalType": "uint256"
                }
            ],
            "outputs": [
                {
                    "name": "name",
                    "type": "string",
                    "internalType": "string"
                },
                {
                    "name": "symbol",
                    "type": "string",
                    "internalType": "string"
                }
            ],
            "stateMutability": "view"
        },
        {
            "type": "function",
            "name": "endSponsership",
            "inputs": [
                {
                    "name": "who",
                    "type": "address",
                    "internalType": "address"
                },
                {
                    "name": "amount",
                    "type": "uint256",
                    "internalType": "uint256"
                }
            ],
            "outputs": [],
            "stateMutability": "nonpayable"
        },
        {
            "type": "function",
            "name": "fixGameApprovals",
            "inputs": [],
            "outputs": [],
            "stateMutability": "nonpayable"
        },
        {
            "type": "function",
            "name": "mintDevFee",
            "inputs": [],
            "outputs": [
                {
                    "name": "",
                    "type": "uint256",
                    "internalType": "uint256"
                }
            ],
            "stateMutability": "view"
        },
        {
            "type": "function",
            "name": "mintPrizeFee",
            "inputs": [],
            "outputs": [
                {
                    "name": "",
                    "type": "uint256",
                    "internalType": "uint256"
                }
            ],
            "stateMutability": "view"
        },
        {
            "type": "function",
            "name": "name",
            "inputs": [
                {
                    "name": "id",
                    "type": "uint256",
                    "internalType": "uint256"
                }
            ],
            "outputs": [
                {
                    "name": "",
                    "type": "string",
                    "internalType": "string"
                }
            ],
            "stateMutability": "view"
        },
        {
            "type": "function",
            "name": "nft",
            "inputs": [],
            "outputs": [
                {
                    "name": "",
                    "type": "address",
                    "internalType": "contract AldersonDiceNFT"
                }
            ],
            "stateMutability": "view"
        },
        {
            "type": "function",
            "name": "numberPrng",
            "inputs": [
                {
                    "name": "n",
                    "type": "uint256",
                    "internalType": "uint256"
                }
            ],
            "outputs": [
                {
                    "name": "prng",
                    "type": "tuple",
                    "internalType": "struct LibPRNG.PRNG",
                    "components": [
                        {
                            "name": "state",
                            "type": "uint256",
                            "internalType": "uint256"
                        }
                    ]
                }
            ],
            "stateMutability": "pure"
        },
        {
            "type": "function",
            "name": "owner",
            "inputs": [],
            "outputs": [
                {
                    "name": "result",
                    "type": "address",
                    "internalType": "address"
                }
            ],
            "stateMutability": "view"
        },
        {
            "type": "function",
            "name": "ownershipHandoverExpiresAt",
            "inputs": [
                {
                    "name": "pendingOwner",
                    "type": "address",
                    "internalType": "address"
                }
            ],
            "outputs": [
                {
                    "name": "result",
                    "type": "uint256",
                    "internalType": "uint256"
                }
            ],
            "stateMutability": "view"
        },
        {
            "type": "function",
            "name": "players",
            "inputs": [
                {
                    "name": "",
                    "type": "address",
                    "internalType": "address"
                }
            ],
            "outputs": [
                {
                    "name": "minted",
                    "type": "uint256",
                    "internalType": "uint256"
                }
            ],
            "stateMutability": "view"
        },
        {
            "type": "function",
            "name": "prevrandaoPrng",
            "inputs": [],
            "outputs": [
                {
                    "name": "prng",
                    "type": "tuple",
                    "internalType": "struct LibPRNG.PRNG",
                    "components": [
                        {
                            "name": "state",
                            "type": "uint256",
                            "internalType": "uint256"
                        }
                    ]
                }
            ],
            "stateMutability": "view"
        },
        {
            "type": "function",
            "name": "priceWithFees",
            "inputs": [],
            "outputs": [
                {
                    "name": "",
                    "type": "uint256",
                    "internalType": "uint256"
                }
            ],
            "stateMutability": "view"
        },
        {
            "type": "function",
            "name": "prizeFund",
            "inputs": [],
            "outputs": [
                {
                    "name": "",
                    "type": "address",
                    "internalType": "address"
                }
            ],
            "stateMutability": "view"
        },
        {
            "type": "function",
            "name": "prizeSharesAvailable",
            "inputs": [],
            "outputs": [
                {
                    "name": "prizeShares",
                    "type": "uint256",
                    "internalType": "uint256"
                }
            ],
            "stateMutability": "view"
        },
        {
            "type": "function",
            "name": "prizeToken",
            "inputs": [],
            "outputs": [
                {
                    "name": "",
                    "type": "address",
                    "internalType": "contract ERC20"
                }
            ],
            "stateMutability": "view"
        },
        {
            "type": "function",
            "name": "prizeTokenAvailable",
            "inputs": [],
            "outputs": [
                {
                    "name": "available",
                    "type": "uint256",
                    "internalType": "uint256"
                }
            ],
            "stateMutability": "view"
        },
        {
            "type": "function",
            "name": "randomDice",
            "inputs": [
                {
                    "name": "prng",
                    "type": "tuple",
                    "internalType": "struct LibPRNG.PRNG",
                    "components": [
                        {
                            "name": "state",
                            "type": "uint256",
                            "internalType": "uint256"
                        }
                    ]
                },
                {
                    "name": "numDice",
                    "type": "uint256",
                    "internalType": "uint256"
                }
            ],
            "outputs": [
                {
                    "name": "tokenIds",
                    "type": "uint256[]",
                    "internalType": "uint256[]"
                },
                {
                    "name": "amounts",
                    "type": "uint256[]",
                    "internalType": "uint256[]"
                }
            ],
            "stateMutability": "pure"
        },
        {
            "type": "function",
            "name": "randomRoll",
            "inputs": [
                {
                    "name": "prng",
                    "type": "tuple",
                    "internalType": "struct LibPRNG.PRNG",
                    "components": [
                        {
                            "name": "state",
                            "type": "uint256",
                            "internalType": "uint256"
                        }
                    ]
                }
            ],
            "outputs": [
                {
                    "name": "faceId",
                    "type": "uint256",
                    "internalType": "uint256"
                }
            ],
            "stateMutability": "pure"
        },
        {
            "type": "function",
            "name": "recover",
            "inputs": [
                {
                    "name": "token",
                    "type": "address",
                    "internalType": "address"
                },
                {
                    "name": "to",
                    "type": "address",
                    "internalType": "address"
                },
                {
                    "name": "amount",
                    "type": "uint256",
                    "internalType": "uint256"
                }
            ],
            "outputs": [],
            "stateMutability": "nonpayable"
        },
        {
            "type": "function",
            "name": "refundPrice",
            "inputs": [],
            "outputs": [
                {
                    "name": "",
                    "type": "uint256",
                    "internalType": "uint256"
                }
            ],
            "stateMutability": "view"
        },
        {
            "type": "function",
            "name": "renounceOwnership",
            "inputs": [],
            "outputs": [],
            "stateMutability": "payable"
        },
        {
            "type": "function",
            "name": "requestOwnershipHandover",
            "inputs": [],
            "outputs": [],
            "stateMutability": "payable"
        },
        {
            "type": "function",
            "name": "returnDice",
            "inputs": [
                {
                    "name": "player",
                    "type": "address",
                    "internalType": "address"
                },
                {
                    "name": "diceIds",
                    "type": "uint256[]",
                    "internalType": "uint256[]"
                },
                {
                    "name": "diceAmounts",
                    "type": "uint256[]",
                    "internalType": "uint256[]"
                }
            ],
            "outputs": [
                {
                    "name": "refundAssets",
                    "type": "uint256",
                    "internalType": "uint256"
                }
            ],
            "stateMutability": "nonpayable"
        },
        {
            "type": "function",
            "name": "setDiceBag",
            "inputs": [
                {
                    "name": "player",
                    "type": "address",
                    "internalType": "address"
                },
                {
                    "name": "favoriteDice",
                    "type": "uint256[12]",
                    "internalType": "uint256[12]"
                }
            ],
            "outputs": [],
            "stateMutability": "nonpayable"
        },
        {
            "type": "function",
            "name": "setMintDevFee",
            "inputs": [
                {
                    "name": "_fee",
                    "type": "uint256",
                    "internalType": "uint256"
                }
            ],
            "outputs": [],
            "stateMutability": "nonpayable"
        },
        {
            "type": "function",
            "name": "setMintPrizeFee",
            "inputs": [
                {
                    "name": "_fee",
                    "type": "uint256",
                    "internalType": "uint256"
                }
            ],
            "outputs": [],
            "stateMutability": "nonpayable"
        },
        {
            "type": "function",
            "name": "setTokenURIPrefix",
            "inputs": [
                {
                    "name": "_tokenURIPrefix",
                    "type": "string",
                    "internalType": "string"
                }
            ],
            "outputs": [],
            "stateMutability": "nonpayable"
        },
        {
            "type": "function",
            "name": "skirmishBags",
            "inputs": [
                {
                    "name": "diceBag0",
                    "type": "uint256[]",
                    "internalType": "uint256[]"
                },
                {
                    "name": "diceBag1",
                    "type": "uint256[]",
                    "internalType": "uint256[]"
                },
                {
                    "name": "draws",
                    "type": "uint8",
                    "internalType": "uint8"
                }
            ],
            "outputs": [
                {
                    "name": "wins0",
                    "type": "uint8",
                    "internalType": "uint8"
                },
                {
                    "name": "wins1",
                    "type": "uint8",
                    "internalType": "uint8"
                },
                {
                    "name": "ties",
                    "type": "uint8",
                    "internalType": "uint8"
                }
            ],
            "stateMutability": "nonpayable"
        },
        {
            "type": "function",
            "name": "skirmishColors",
            "inputs": [
                {
                    "name": "hashPrng",
                    "type": "tuple",
                    "internalType": "struct LibPRNG.PRNG",
                    "components": [
                        {
                            "name": "state",
                            "type": "uint256",
                            "internalType": "uint256"
                        }
                    ]
                },
                {
                    "name": "color0",
                    "type": "uint256",
                    "internalType": "uint256"
                },
                {
                    "name": "color1",
                    "type": "uint256",
                    "internalType": "uint256"
                },
                {
                    "name": "rounds",
                    "type": "uint8",
                    "internalType": "uint8"
                }
            ],
            "outputs": [
                {
                    "name": "wins0",
                    "type": "uint8",
                    "internalType": "uint8"
                },
                {
                    "name": "wins1",
                    "type": "uint8",
                    "internalType": "uint8"
                },
                {
                    "name": "ties",
                    "type": "uint8",
                    "internalType": "uint8"
                }
            ],
            "stateMutability": "nonpayable"
        },
        {
            "type": "function",
            "name": "skirmishPVE",
            "inputs": [
                {
                    "name": "player",
                    "type": "address",
                    "internalType": "address"
                }
            ],
            "outputs": [
                {
                    "name": "wins0",
                    "type": "uint8",
                    "internalType": "uint8"
                },
                {
                    "name": "wins1",
                    "type": "uint8",
                    "internalType": "uint8"
                },
                {
                    "name": "ties",
                    "type": "uint8",
                    "internalType": "uint8"
                }
            ],
            "stateMutability": "nonpayable"
        },
        {
            "type": "function",
            "name": "skirmishPlayers",
            "inputs": [
                {
                    "name": "player0",
                    "type": "address",
                    "internalType": "address"
                },
                {
                    "name": "player1",
                    "type": "address",
                    "internalType": "address"
                }
            ],
            "outputs": [
                {
                    "name": "wins0",
                    "type": "uint8",
                    "internalType": "uint8"
                },
                {
                    "name": "wins1",
                    "type": "uint8",
                    "internalType": "uint8"
                },
                {
                    "name": "ties",
                    "type": "uint8",
                    "internalType": "uint8"
                }
            ],
            "stateMutability": "nonpayable"
        },
        {
            "type": "function",
            "name": "sponsor",
            "inputs": [
                {
                    "name": "account",
                    "type": "address",
                    "internalType": "address"
                },
                {
                    "name": "amount",
                    "type": "uint256",
                    "internalType": "uint256"
                }
            ],
            "outputs": [
                {
                    "name": "",
                    "type": "uint256",
                    "internalType": "uint256"
                },
                {
                    "name": "shares",
                    "type": "uint256",
                    "internalType": "uint256"
                }
            ],
            "stateMutability": "nonpayable"
        },
        {
            "type": "function",
            "name": "sponsorships",
            "inputs": [
                {
                    "name": "who",
                    "type": "address",
                    "internalType": "address"
                }
            ],
            "outputs": [
                {
                    "name": "withdrawable",
                    "type": "uint256",
                    "internalType": "uint256"
                }
            ],
            "stateMutability": "view"
        },
        {
            "type": "function",
            "name": "sweepPrizeFund",
            "inputs": [],
            "outputs": [
                {
                    "name": "shares",
                    "type": "uint256",
                    "internalType": "uint256"
                }
            ],
            "stateMutability": "nonpayable"
        },
        {
            "type": "function",
            "name": "symbol",
            "inputs": [
                {
                    "name": "id",
                    "type": "uint256",
                    "internalType": "uint256"
                }
            ],
            "outputs": [
                {
                    "name": "",
                    "type": "string",
                    "internalType": "string"
                }
            ],
            "stateMutability": "view"
        },
        {
            "type": "function",
            "name": "tokenURI",
            "inputs": [
                {
                    "name": "id",
                    "type": "uint256",
                    "internalType": "uint256"
                }
            ],
            "outputs": [
                {
                    "name": "",
                    "type": "string",
                    "internalType": "string"
                }
            ],
            "stateMutability": "view"
        },
        {
            "type": "function",
            "name": "totalDiceValue",
            "inputs": [],
            "outputs": [
                {
                    "name": "",
                    "type": "uint256",
                    "internalType": "uint256"
                }
            ],
            "stateMutability": "view"
        },
        {
            "type": "function",
            "name": "totalSponsorships",
            "inputs": [],
            "outputs": [
                {
                    "name": "",
                    "type": "uint256",
                    "internalType": "uint256"
                }
            ],
            "stateMutability": "view"
        },
        {
            "type": "function",
            "name": "transferOwnership",
            "inputs": [
                {
                    "name": "newOwner",
                    "type": "address",
                    "internalType": "address"
                }
            ],
            "outputs": [],
            "stateMutability": "payable"
        },
        {
            "type": "function",
            "name": "upgrade",
            "inputs": [
                {
                    "name": "_newGameLogic",
                    "type": "address",
                    "internalType": "address"
                }
            ],
            "outputs": [],
            "stateMutability": "nonpayable"
        },
        {
            "type": "function",
            "name": "value",
            "inputs": [
                {
                    "name": "numDice",
                    "type": "uint256",
                    "internalType": "uint256"
                }
            ],
            "outputs": [
                {
                    "name": "refundAssets",
                    "type": "uint256",
                    "internalType": "uint256"
                }
            ],
            "stateMutability": "view"
        },
        {
            "type": "function",
            "name": "vaultToken",
            "inputs": [],
            "outputs": [
                {
                    "name": "",
                    "type": "address",
                    "internalType": "contract ERC4626"
                }
            ],
            "stateMutability": "view"
        },
        {
            "type": "event",
            "name": "FavoriteDice",
            "inputs": [
                {
                    "name": "player",
                    "type": "address",
                    "indexed": true,
                    "internalType": "address"
                },
                {
                    "name": "dice",
                    "type": "uint256[12]",
                    "indexed": false,
                    "internalType": "uint256[12]"
                }
            ],
            "anonymous": false
        },
        {
            "type": "event",
            "name": "Fees",
            "inputs": [
                {
                    "name": "player",
                    "type": "address",
                    "indexed": true,
                    "internalType": "address"
                },
                {
                    "name": "devFundAmount",
                    "type": "uint256",
                    "indexed": false,
                    "internalType": "uint256"
                },
                {
                    "name": "prizePoolShares",
                    "type": "uint256",
                    "indexed": false,
                    "internalType": "uint256"
                },
                {
                    "name": "totalDiceValue",
                    "type": "uint256",
                    "indexed": false,
                    "internalType": "uint256"
                },
                {
                    "name": "totalSponsorships",
                    "type": "uint256",
                    "indexed": false,
                    "internalType": "uint256"
                }
            ],
            "anonymous": false
        },
        {
            "type": "event",
            "name": "OwnershipHandoverCanceled",
            "inputs": [
                {
                    "name": "pendingOwner",
                    "type": "address",
                    "indexed": true,
                    "internalType": "address"
                }
            ],
            "anonymous": false
        },
        {
            "type": "event",
            "name": "OwnershipHandoverRequested",
            "inputs": [
                {
                    "name": "pendingOwner",
                    "type": "address",
                    "indexed": true,
                    "internalType": "address"
                }
            ],
            "anonymous": false
        },
        {
            "type": "event",
            "name": "OwnershipTransferred",
            "inputs": [
                {
                    "name": "oldOwner",
                    "type": "address",
                    "indexed": true,
                    "internalType": "address"
                },
                {
                    "name": "newOwner",
                    "type": "address",
                    "indexed": true,
                    "internalType": "address"
                }
            ],
            "anonymous": false
        },
        {
            "type": "event",
            "name": "SetMintDevFee",
            "inputs": [
                {
                    "name": "newFee",
                    "type": "uint256",
                    "indexed": false,
                    "internalType": "uint256"
                }
            ],
            "anonymous": false
        },
        {
            "type": "event",
            "name": "SetMintPrizeFee",
            "inputs": [
                {
                    "name": "newFee",
                    "type": "uint256",
                    "indexed": false,
                    "internalType": "uint256"
                }
            ],
            "anonymous": false
        },
        {
            "type": "event",
            "name": "SkirmishBags",
            "inputs": [
                {
                    "name": "draws",
                    "type": "uint256",
                    "indexed": false,
                    "internalType": "uint256"
                },
                {
                    "name": "diceBag0",
                    "type": "uint256[]",
                    "indexed": false,
                    "internalType": "uint256[]"
                },
                {
                    "name": "diceBag1",
                    "type": "uint256[]",
                    "indexed": false,
                    "internalType": "uint256[]"
                }
            ],
            "anonymous": false
        },
        {
            "type": "event",
            "name": "SkirmishColor",
            "inputs": [
                {
                    "name": "color0",
                    "type": "uint256",
                    "indexed": false,
                    "internalType": "uint256"
                },
                {
                    "name": "color1",
                    "type": "uint256",
                    "indexed": false,
                    "internalType": "uint256"
                },
                {
                    "name": "round",
                    "type": "uint16",
                    "indexed": false,
                    "internalType": "uint16"
                },
                {
                    "name": "side0",
                    "type": "uint256",
                    "indexed": false,
                    "internalType": "uint256"
                },
                {
                    "name": "side1",
                    "type": "uint256",
                    "indexed": false,
                    "internalType": "uint256"
                }
            ],
            "anonymous": false
        },
        {
            "type": "event",
            "name": "SkirmishPlayers",
            "inputs": [
                {
                    "name": "player0",
                    "type": "address",
                    "indexed": true,
                    "internalType": "address"
                },
                {
                    "name": "player1",
                    "type": "address",
                    "indexed": true,
                    "internalType": "address"
                },
                {
                    "name": "wins0",
                    "type": "uint8",
                    "indexed": false,
                    "internalType": "uint8"
                },
                {
                    "name": "wins1",
                    "type": "uint8",
                    "indexed": false,
                    "internalType": "uint8"
                },
                {
                    "name": "ties",
                    "type": "uint8",
                    "indexed": false,
                    "internalType": "uint8"
                }
            ],
            "anonymous": false
        },
        {
            "type": "event",
            "name": "Sponsored",
            "inputs": [
                {
                    "name": "sender",
                    "type": "address",
                    "indexed": true,
                    "internalType": "address"
                },
                {
                    "name": "account",
                    "type": "address",
                    "indexed": true,
                    "internalType": "address"
                },
                {
                    "name": "amount",
                    "type": "uint256",
                    "indexed": false,
                    "internalType": "uint256"
                },
                {
                    "name": "balance",
                    "type": "uint256",
                    "indexed": false,
                    "internalType": "uint256"
                },
                {
                    "name": "total",
                    "type": "uint256",
                    "indexed": false,
                    "internalType": "uint256"
                }
            ],
            "anonymous": false
        },
        {
            "type": "error",
            "name": "AlreadyInitialized",
            "inputs": []
        },
        {
            "type": "error",
            "name": "NewOwnerIsZeroAddress",
            "inputs": []
        },
        {
            "type": "error",
            "name": "NoHandoverRequest",
            "inputs": []
        },
        {
            "type": "error",
            "name": "Unauthorized",
            "inputs": []
        }
    ],
    "bytecode": {
        "object": "0x6101006040525f80555f600155348015610017575f80fd5b50604051614b46380380614b4683398101604081905261003691610687565b5f84116100725760405162461bcd60e51b815260206004820152600660248201526521707269636560d01b604482015260640160405180910390fd5b61007b89610574565b600480546001600160a01b03808b166001600160a01b031992831617909255600580548a84169216919091179055868116608052851660a05260e08490526006839055600782905560036100cf828261083d565b5060a0516001600160a01b03166338d52e0f6040518163ffffffff1660e01b8152600401602060405180830381865afa15801561010e573d5f803e3d5ffd5b505050506040513d601f19601f8201168201806040525081019061013291906108f7565b6001600160a01b0390811660c081905260405163095ea7b360e01b815291871660048301525f1960248301529063095ea7b3906044016020604051808303815f875af1158015610184573d5f803e3d5ffd5b505050506040513d601f19601f820116820180604052508101906101a89190610919565b5060408051610120810182526004606082018181526080830182905260a0830182905260c0830182905260e083018290526009610100840152825282518084018452600381526214995960ea1b602080830191909152808401919091528351808501855291825263f09f9fa560e01b9082015291810191909152805160089061023490829060066105b0565b5060208201516001820190610249908261083d565b506040820151600282019061025e908261083d565b505060408051610120810182526003606082018181526080830182905260a0830182905260c0830191909152600860e0830181905261010083015281528151808301835260068082526559656c6c6f7760d01b602080840191909152808401929092528351808501855281815265e2ad90efb88f60d01b92810192909252928201528051909250600b916102f39183916105b0565b5060208201516001820190610308908261083d565b506040820151600282019061031d908261083d565b505060408051610120810182526002606082018181526080830182905260a0830191909152600760c0830181905260e08301819052610100830152815281518083018352600480825263426c756560e01b602080840191909152808401929092528351808501855290815263f09f94b760e01b91810191909152918101919091528051909150600e906103b390829060066105b0565b50602082015160018201906103c8908261083d565b50604082015160028201906103dd908261083d565b505060408051610120810182526001606082018181526080830191909152600660a0830181905260c0830181905260e0830181905261010083018190529082528251808401845260078152664d6167656e746160c81b602080830191909152808401919091528351808501855260048152633c27e4a760e21b918101919091529282019290925280519092506011916104779183916105b0565b506020820151600182019061048c908261083d565b50604082015160028201906104a1908261083d565b505060408051610120810182525f6060820190815260056080830181905260a0830181905260c0830181905260e08301819052610100830181905290825282518084018452908152644f6c69766560d81b60208083019190915280830191909152825180840184526004815263784fd5c960e11b9181019190915291810191909152805190915060149061053890829060066105b0565b506020820151600182019061054d908261083d565b5060408201516002820190610562908261083d565b50905050505050505050505050610938565b6001600160a01b0316638b78c6d819819055805f7f8be0079c531659141344cd1fd0a4f28419497f9722a3daafe3b4186f6b6457e08180a35b50565b60018301918390821561063b579160200282015f5b8382111561060957835183826101000a81548163ffffffff021916908363ffffffff16021790555092602001926004016020816003010492830192600103026105c5565b80156106395782816101000a81549063ffffffff0219169055600401602081600301049283019260010302610609565b505b5061064792915061064b565b5090565b5b80821115610647575f815560010161064c565b6001600160a01b03811681146105ad575f80fd5b634e487b7160e01b5f52604160045260245ffd5b5f805f805f805f805f6101208a8c0312156106a0575f80fd5b89516106ab8161065f565b60208b01519099506106bc8161065f565b60408b01519098506106cd8161065f565b60608b01519097506106de8161065f565b60808b01519096506106ef8161065f565b60a08b015160c08c015160e08d01516101008e0151939850919650945092506001600160401b03811115610721575f80fd5b8a015f601f82018d13610732575f80fd5b81516001600160401b0381111561074b5761074b610673565b604051601f8201601f19908116603f011681016001600160401b038111828210171561077957610779610673565b6040528181528382016020018f1015610790575f80fd5b8160208501602083015e5f60208383010152809250809450505050509295985092959850929598565b600181811c908216806107cd57607f821691505b6020821081036107eb57634e487b7160e01b5f52602260045260245ffd5b50919050565b601f82111561083857805f5260205f20601f840160051c810160208510156108165750805b601f840160051c820191505b81811015610835575f8155600101610822565b50505b505050565b81516001600160401b0381111561085657610856610673565b61086a8161086484546107b9565b846107f1565b6020601f82116001811461089c575f83156108855750848201515b5f19600385901b1c1916600184901b178455610835565b5f84815260208120601f198516915b828110156108cb57878501518255602094850194600190920191016108ab565b50848210156108e857868401515f19600387901b60f8161c191681555b50505050600190811b01905550565b5f60208284031215610907575f80fd5b81516109128161065f565b9392505050565b5f60208284031215610929575f80fd5b81518015158114610912575f80fd5b60805160a05160c05160e051614117610a2f5f395f818161063501526128fa01525f81816108810152818161150b01528181611959015261216c01525f81816105b201528181610e580152818161128c0152818161152d015281816115ab015281816118770152818161199d01528181611a28015281816121b20152818161246e0152818161257a01528181612aa801528181612b2301528181612bd20152818161340c015261349801525f81816104fc01528181610c3101528181610f610152818161112c0152818161166401528181611725015281816117a8015281816122500152818161238001526135e201526141175ff3fe608060405260043610610340575f3560e01c8063978a7055116101bd578063d0ef024a116100f2578063f122e4b011610092578063f88d67321161006d578063f88d67321461099a578063f979dce6146109c7578063fd86bbc7146109db578063fee81cf4146109fa575f80fd5b8063f122e4b014610954578063f2fde38b14610968578063f3ac3df51461097b575f80fd5b8063e808c6ee116100cd578063e808c6ee146108ed578063ee41e0c914610901578063ef7de99214610922578063f04e283e14610941575f80fd5b8063d0ef024a14610870578063d4e28c9c146108a3578063e2eb41ff146108c2575f80fd5b8063aa92f01d1161015d578063bef9c2e111610138578063bef9c2e1146107f4578063c5a46ee614610813578063c87b56dd14610832578063ca7b798a14610851575f80fd5b8063aa92f01d14610795578063ad7c952d146107b4578063b9375fb2146107d5575f80fd5b8063a1d4872d11610198578063a1d4872d14610721578063a53d1a4b1461074e578063a612ee8d14610762578063a9bd303714610781575f80fd5b8063978a7055146106c257806399e0dd7c146106d7578063a100d967146106f6575f80fd5b806354d1f13d116102935780637249db4d11610233578063808d52591161020e578063808d52591461062457806382c82f54146106575780638c995e44146106765780638da5cb5b146106aa575f80fd5b80637249db4d146105dc57806372767009146105f05780637315ab501461060f575f80fd5b80636177a2e91161026e5780636177a2e9146105785780636454a5921461058d578063703bafd5146105a1578063715018a6146105d4575f80fd5b806354d1f13d1461053d57806354e05b111461054557806355b4906814610559575f80fd5b80632fe0dd2a116102fe578063409ffae7116102d9578063409ffae7146104a05780634390d2a8146104b457806347ccca02146104eb5780634e41a1fb1461051e575f80fd5b80632fe0dd2a1461043157806333a8d940146104505780633e22c36e1461047a575f80fd5b8062ad800c146103445780630900f01014610379578063096664ee1461039a5780631764ded2146103c75780631ec82cb81461040a5780632569296214610429575b5f80fd5b34801561034f575f80fd5b5061036361035e3660046136dd565b610a2b565b6040516103709190613722565b60405180910390f35b348015610384575f80fd5b5061039861039336600461374f565b610c04565b005b3480156103a5575f80fd5b506103b96103b43660046137eb565b610c8b565b604051908152602001610370565b3480156103d2575f80fd5b506103e66103e1366004613805565b610ca6565b6040805160ff94851681529284166020840152921691810191909152606001610370565b348015610415575f80fd5b50610398610424366004613836565b610e1e565b610398610ede565b34801561043c575f80fd5b5061039861044b366004613870565b610f2a565b34801561045b575f80fd5b5060408051602081019091524481525b60405190518152602001610370565b348015610485575f80fd5b5061048e600c81565b60405160ff9091168152602001610370565b3480156104ab575f80fd5b506103b9611269565b3480156104bf575f80fd5b506004546104d3906001600160a01b031681565b6040516001600160a01b039091168152602001610370565b3480156104f6575f80fd5b506104d37f000000000000000000000000000000000000000000000000000000000000000081565b348015610529575f80fd5b506103636105383660046136dd565b611303565b6103986114c5565b348015610550575f80fd5b506103986114fe565b348015610564575f80fd5b5061046b6105733660046136dd565b611555565b348015610583575f80fd5b506103b960075481565b348015610598575f80fd5b506103b9611571565b3480156105ac575f80fd5b506104d37f000000000000000000000000000000000000000000000000000000000000000081565b61039861161b565b3480156105e7575f80fd5b506103b9600581565b3480156105fb575f80fd5b506103b961060a3660046138e9565b61162c565b34801561061a575f80fd5b506103b960015481565b34801561062f575f80fd5b506103b97f000000000000000000000000000000000000000000000000000000000000000081565b348015610662575f80fd5b506103986106713660046136dd565b611906565b348015610681575f80fd5b50610695610690366004613967565b61194a565b60408051928352602083019190915201610370565b3480156106b5575f80fd5b50638b78c6d819546104d3565b3480156106cd575f80fd5b506103b960065481565b3480156106e2575f80fd5b506103986106f136600461398f565b611b8b565b348015610701575f80fd5b506103b961071036600461374f565b60026020525f908152604090205481565b34801561072c575f80fd5b5061074061073b366004613a21565b611ba3565b604051610370929190613a76565b348015610759575f80fd5b506103b95f5481565b34801561076d575f80fd5b506103e661077c366004613b32565b611d8a565b34801561078c575f80fd5b5061048e600a81565b3480156107a0575f80fd5b506103986107af3660046136dd565b611f77565b3480156107bf575f80fd5b506107c8611fb4565b6040516103709190613ba4565b3480156107e0575f80fd5b506103e66107ef36600461374f565b611fd2565b3480156107ff575f80fd5b5061039861080e366004613967565b612110565b34801561081e575f80fd5b506103b961082d3660046136dd565b61224c565b34801561083d575f80fd5b5061036361084c3660046136dd565b61231d565b34801561085c575f80fd5b5061039861086b366004613967565b612349565b34801561087b575f80fd5b506104d37f000000000000000000000000000000000000000000000000000000000000000081565b3480156108ae575f80fd5b506103b96108bd3660046136dd565b6125ec565b3480156108cd575f80fd5b506103b96108dc36600461374f565b60176020525f908152604090205481565b3480156108f8575f80fd5b506103b9600681565b34801561090c575f80fd5b506109156125f8565b6040516103709190613bb6565b34801561092d575f80fd5b506107c861093c366004613a21565b6127bd565b61039861094f36600461374f565b6128b4565b34801561095f575f80fd5b506103b96128f1565b61039861097636600461374f565b612932565b348015610986575f80fd5b506005546104d3906001600160a01b031681565b3480156109a5575f80fd5b506109b96109b43660046136dd565b612958565b604051610370929190613c60565b3480156109d2575f80fd5b506103b9612a8c565b3480156109e6575f80fd5b506103e66109f5366004613c84565b612c5a565b348015610a05575f80fd5b506103b9610a1436600461374f565b63389a75e1600c9081525f91909152602090205490565b60605f6008610a39846125ec565b60058110610a4957610a49613cc8565b604080516101208101909152916003919091020181606081018260068282826020028201915f905b82829054906101000a900463ffffffff1663ffffffff1681526020019060040190602082600301049283019260010382029150808411610a7157905050505050508152602001600182018054610ac690613cdc565b80601f0160208091040260200160405190810160405280929190818152602001828054610af290613cdc565b8015610b3d5780601f10610b1457610100808354040283529160200191610b3d565b820191905f5260205f20905b815481529060010190602001808311610b2057829003601f168201915b50505050508152602001600282018054610b5690613cdc565b80601f0160208091040260200160405190810160405280929190818152602001828054610b8290613cdc565b8015610bcd5780601f10610ba457610100808354040283529160200191610bcd565b820191905f5260205f20905b815481529060010190602001808311610bb057829003601f168201915b50505050508152505090508060200151604051602001610bed9190613d25565b604051602081830303815290604052915050919050565b610c0c6130f4565b6040516288644960e11b81526001600160a01b038281166004830152600160248301527f00000000000000000000000000000000000000000000000000000000000000001690630110c892906044015f604051808303815f87803b158015610c72575f80fd5b505af1158015610c84573d5f803e3d5ffd5b5050505050565b602081208082525f90610ca090600690613d61565b92915050565b60408051600c8082526101a082019092525f91829182918291906020820161018080368337505060408051600c8082526101a082019092529293505f92915060208201610180803683370190505090505f5b600c811015610daa576001600160a01b0388165f90815260176020526040902060010181600c8110610d2c57610d2c613cc8565b0154838281518110610d4057610d40613cc8565b60200260200101818152505060175f886001600160a01b03166001600160a01b031681526020019081526020015f2060010181600c8110610d8357610d83613cc8565b0154828281518110610d9757610d97613cc8565b6020908102919091010152600101610cf8565b50610db78282600a611d8a565b6040805160ff85811682528481166020830152831681830152905193985091965094506001600160a01b0388811692908a16917f48d303ef948f33c6e39b8e27fb525cc5ae6783b50bf9fb1ed0f9cc47ab76f8a8919081900360600190a350509250925092565b638b78c6d819546001600160a01b0316336001600160a01b03161480610e4e57506004546001600160a01b031633145b610e56575f80fd5b7f00000000000000000000000000000000000000000000000000000000000000006001600160a01b0316836001600160a01b031603610ec55760405162461bcd60e51b815260206004820152600660248201526510ba37b5b2b760d11b60448201526064015b60405180910390fd5b610ed96001600160a01b038416838361310e565b505050565b5f6202a3006001600160401b03164201905063389a75e1600c52335f52806020600c2055337fdbf36a107da19e49527a7176a1babf963b4b0ff8cde35ee35d6cd8f1f9ac7e1d5f80a250565b6001600160a01b038216331480610fca5750604051635b1b1e7960e11b81526001600160a01b0383811660048301523360248301527f0000000000000000000000000000000000000000000000000000000000000000169063b6363cf290604401602060405180830381865afa158015610fa6573d5f803e3d5ffd5b505050506040513d601f19601f82011682018060405250810190610fca9190613d74565b610fe65760405162461bcd60e51b8152600401610ebc90613d93565b6001600160a01b0382165f908152601760205260408082208151600c8082526101a082019093529092918160200160208202803683370190505090505f5b600c8110156110e2578381600c811061103f5761103f613cc8565b60200201358360010182600c811061105957611059613cc8565b01555f5b8181116110d9578481600c811061107657611076613cc8565b60200201358583600c811061108d5761108d613cc8565b6020020135036110c75760018383815181106110ab576110ab613cc8565b602002602001018181516110bf9190613dc6565b9052506110d9565b806110d181613dd9565b91505061105d565b50600101611024565b505f5b600c81101561121b575f828583600c811061110257611102613cc8565b60200201358151811061111757611117613cc8565b602002602001015190505f81111561121257807f00000000000000000000000000000000000000000000000000000000000000006001600160a01b031662fdd58e888886600c811061116b5761116b613cc8565b6040516001600160e01b031960e086901b1681526001600160a01b03909316600484015260200201356024820152604401602060405180830381865afa1580156111b7573d5f803e3d5ffd5b505050506040513d601f19601f820116820180604052508101906111db9190613df1565b10156112125760405162461bcd60e51b8152600401610ebc906020808252600490820152630858985b60e21b604082015260600190565b506001016110e5565b50836001600160a01b03167fb03a56df55bd2b68e6791773614fabea5bfdcb7a1f9ccc1f7d3de57d6f17d61e836001016040516112589190613e08565b60405180910390a250505050565b90565b5f80611273612a8c565b60405163266d6a8360e11b8152600481018290529091507f00000000000000000000000000000000000000000000000000000000000000006001600160a01b031690634cdad50690602401602060405180830381865afa1580156112d9573d5f803e3d5ffd5b505050506040513d601f19601f820116820180604052508101906112fd9190613df1565b91505090565b60605f6008611311846125ec565b6005811061132157611321613cc8565b604080516101208101909152916003919091020181606081018260068282826020028201915f905b82829054906101000a900463ffffffff1663ffffffff16815260200190600401906020826003010492830192600103820291508084116113495790505050505050815260200160018201805461139e90613cdc565b80601f01602080910402602001604051908101604052809291908181526020018280546113ca90613cdc565b80156114155780601f106113ec57610100808354040283529160200191611415565b820191905f5260205f20905b8154815290600101906020018083116113f857829003601f168201915b5050505050815260200160028201805461142e90613cdc565b80601f016020809104026020016040519081016040528092919081815260200182805461145a90613cdc565b80156114a55780601f1061147c576101008083540402835291602001916114a5565b820191905f5260205f20905b81548152906001019060200180831161148857829003601f168201915b50505050508152505090508060400151604051602001610bed9190613e39565b63389a75e1600c52335f525f6020600c2055337ffa7b8eab7da67f412cc9575ed43464468f9bfbae89d1675917346ca6d8fe3c925f80a2565b6115536001600160a01b037f0000000000000000000000000000000000000000000000000000000000000000167f00000000000000000000000000000000000000000000000000000000000000005f1961314e565b565b6040805160208101909152818152602081208082525b50919050565b5f61157a612a8c565b905080156112665760055460405163a9059cbb60e01b81526001600160a01b039182166004820152602481018390527f00000000000000000000000000000000000000000000000000000000000000009091169063a9059cbb906044016020604051808303815f875af11580156115f3573d5f803e3d5ffd5b505050506040513d601f19601f820116820180604052508101906116179190613d74565b5090565b6116236130f4565b6115535f6131ba565b5f6001600160a01b0386163314806116cd5750604051635b1b1e7960e11b81526001600160a01b0387811660048301523360248301527f0000000000000000000000000000000000000000000000000000000000000000169063b6363cf290604401602060405180830381865afa1580156116a9573d5f803e3d5ffd5b505050506040513d601f19601f820116820180604052508101906116cd9190613d74565b6116e95760405162461bcd60e51b8152600401610ebc90613d93565b838281146117225760405162461bcd60e51b8152600401610ebc9060208082526004908201526310b632b760e11b604082015260600190565b5f7f00000000000000000000000000000000000000000000000000000000000000006001600160a01b03166318160ddd6040518163ffffffff1660e01b8152600401602060405180830381865afa15801561177f573d5f803e3d5ffd5b505050506040513d601f19601f820116820180604052508101906117a39190613df1565b90505f7f00000000000000000000000000000000000000000000000000000000000000006001600160a01b0316633db0f8ab8a8a8a8a8a6040518663ffffffff1660e01b81526004016117fa959493929190613e7f565b6020604051808303815f875af1158015611816573d5f803e3d5ffd5b505050506040513d601f19601f8201168201806040525081019061183a9190613df1565b90506118485f5482846131f7565b604051632d182be560e21b8152600481018290526001600160a01b038b811660248301523060448301529195507f00000000000000000000000000000000000000000000000000000000000000009091169063b460af94906064016020604051808303815f875af11580156118bf573d5f803e3d5ffd5b505050506040513d601f19601f820116820180604052508101906118e39190613df1565b50835f808282546118f49190613ec2565b90915550939998505050505050505050565b61190e6130f4565b60068190556040518181527feba5eb1ca8247027a214a860eb7e6ab15a93b0831a0564ecce97f46029ebfb41906020015b60405180910390a150565b5f806119816001600160a01b037f000000000000000000000000000000000000000000000000000000000000000016333086613293565b604051636e553f6560e01b8152600481018490523060248201527f00000000000000000000000000000000000000000000000000000000000000006001600160a01b031690636e553f65906044016020604051808303815f875af11580156119eb573d5f803e3d5ffd5b505050506040513d601f19601f82011682018060405250810190611a0f9190613df1565b60405163266d6a8360e11b8152600481018290529091507f00000000000000000000000000000000000000000000000000000000000000006001600160a01b031690634cdad50690602401602060405180830381865afa158015611a75573d5f803e3d5ffd5b505050506040513d601f19601f82011682018060405250810190611a999190613df1565b92505f8311611ad45760405162461bcd60e51b815260206004820152600760248201526608585b5bdd5b9d60ca1b6044820152606401610ebc565b6001600160a01b0384165f9081526002602052604081208054859290611afb908490613dc6565b925050819055508260015f828254611b139190613dc6565b90915550506001600160a01b0384165f818152600260205260409081902054600154915133927ffd4da46b125296e8be376b0a77089f71b7fd166556465b2a37bd2b04d4740c0e92611b78928992909283526020830191909152604082015260600190565b60405180910390a38291505b9250929050565b611b936130f4565b6003611b9f8282613f19565b5050565b60408051600580825260c0820190925260609182915f916020820160a080368337505060408051600580825260c0820190925292955090506020820160a0803683370190505091505f611bf860016005613ec2565b90505f5b81811015611d2757611c0f816001613dc6565b858281518110611c2157611c21613cc8565b602002602001018181525050848181518110611c3f57611c3f613cc8565b60200260200101515f03611c7d5760405162461bcd60e51b8152602060048201526005602482015264627567203160d81b6044820152606401610ebc565b5f611c888488613ec2565b9050611c9488826132e2565b858381518110611ca657611ca6613cc8565b602002602001018181525050848281518110611cc457611cc4613cc8565b602002602001015184611cd79190613dc6565b935086841115611d115760405162461bcd60e51b8152602060048201526005602482015264313ab3901960d91b6044820152606401610ebc565b868403611d1e5750611d27565b50600101611bfc565b50611d33816001613dc6565b848281518110611d4557611d45613cc8565b6020908102919091010152611d5a8286613ec2565b838281518110611d6c57611d6c613cc8565b6020908102919091010152611d8186856132fe565b50509250929050565b5f805f80611da2604080516020810190915244815290565b87518751919250908114611e025760405162461bcd60e51b815260206004820152602160248201527f446963652062616773206d757374206265207468652073616d65206c656e67746044820152600d60fb1b6064820152608401610ebc565b8560ff16811015611e605760405162461bcd60e51b815260206004820152602260248201527f6e656564206d6f7265206469636520666f722074686973206d616e7920647261604482015261777360f01b6064820152608401610ebc565b611e6a82896132fe565b611e7482886132fe565b7f320ed12b9ad3655effca87becbe8132bfeff36d2b6d3febf0dbbaecc870da723868989604051611ea793929190613fd3565b60405180910390a15f5b8660ff16811015611f6b575f611edf8a8381518110611ed257611ed2613cc8565b60200260200101516125ec565b90505f611ef78a8481518110611ed257611ed2613cc8565b90505f80611f08878585600a612c5a565b50915091508060ff168260ff161115611f2d5789611f2581614000565b9a5050611f5b565b8160ff168160ff161115611f4d5788611f4581614000565b995050611f5b565b87611f5781614000565b9850505b505060019092019150611eb19050565b50505093509350939050565b611f7f6130f4565b60078190556040518181527faebd95d9f06c21bb5a97c4290d75216567798cb36803de1bd9073a0561d3407a9060200161193f565b60605f611fc5610573600a4361401e565b90506112fd81600c6127bd565b6001600160a01b0381165f908152601760209081526040808320815180830183528154815282516101808101938490528594859485949291840191906001840190600c9082845b8154815260200190600101908083116120195750505050508152505090505f612040611fb4565b60408051600c8082526101a082019092529192505f9190602082016101808036833701905050905080518251146120a85760405162461bcd60e51b815260206004820152600c60248201526b626164206261672073697a6560a01b6044820152606401610ebc565b5f5b600c8110156120f357836020015181600c81106120c9576120c9613cc8565b60200201518282815181106120e0576120e0613cc8565b60209081029190910101526001016120aa565b506121008183600a611d8a565b9199909850909650945050505050565b5f81116121475760405162461bcd60e51b8152602060048201526005602482015264216469636560d81b6044820152606401610ebc565b5f6121506128f1565b90505f61215d8284614031565b90506121946001600160a01b037f000000000000000000000000000000000000000000000000000000000000000016333084613293565b604051636e553f6560e01b8152600481018290523060248201525f907f00000000000000000000000000000000000000000000000000000000000000006001600160a01b031690636e553f65906044016020604051808303815f875af1158015612200573d5f803e3d5ffd5b505050506040513d601f19601f820116820180604052508101906122249190613df1565b90505f612235610573600a4361401e565b90506122448187878588613381565b505050505050565b5f807f00000000000000000000000000000000000000000000000000000000000000006001600160a01b03166318160ddd6040518163ffffffff1660e01b8152600401602060405180830381865afa1580156122aa573d5f803e3d5ffd5b505050506040513d601f19601f820116820180604052508101906122ce9190613df1565b90508083111561230a5760405162461bcd60e51b815260206004820152600760248201526621737570706c7960c81b6044820152606401610ebc565b6123165f5484836131f7565b9392505050565b6060600382604051602001612333929190614048565b6040516020818303038152906040529050919050565b6001600160a01b0382163314806123e95750604051635b1b1e7960e11b81526001600160a01b0383811660048301523360248301527f0000000000000000000000000000000000000000000000000000000000000000169063b6363cf290604401602060405180830381865afa1580156123c5573d5f803e3d5ffd5b505050506040513d601f19601f820116820180604052508101906123e99190613d74565b6124055760405162461bcd60e51b8152600401610ebc90613d93565b6001600160a01b0382165f90815260026020526040902054808211156124565760405162461bcd60e51b8152600401610ebc906020808252600490820152630858985b60e21b604082015260600190565b604051630a28a47760e01b8152600481018390525f907f00000000000000000000000000000000000000000000000000000000000000006001600160a01b031690630a28a47790602401602060405180830381865afa1580156124bb573d5f803e3d5ffd5b505050506040513d601f19601f820116820180604052508101906124df9190613df1565b90505f811161251a5760405162461bcd60e51b81526020600482015260076024820152662173686172657360c81b6044820152606401610ebc565b6001600160a01b0384165f9081526002602052604081208054859290612541908490613ec2565b925050819055508260015f8282546125599190613ec2565b909155505060405163a9059cbb60e01b8152306004820152602481018290527f00000000000000000000000000000000000000000000000000000000000000006001600160a01b03169063a9059cbb906044016020604051808303815f875af11580156125c8573d5f803e3d5ffd5b505050506040513d601f19601f82011682018060405250810190610c849190613d74565b5f610ca0600583613d61565b61260061366b565b6040805160a08101909152600860055f835b828210156127b45760408051610120810190915260038302850181606081018260068282826020028201915f905b82829054906101000a900463ffffffff1663ffffffff16815260200190600401906020826003010492830192600103820291508084116126405790505050505050815260200160018201805461269590613cdc565b80601f01602080910402602001604051908101604052809291908181526020018280546126c190613cdc565b801561270c5780601f106126e35761010080835404028352916020019161270c565b820191905f5260205f20905b8154815290600101906020018083116126ef57829003601f168201915b5050505050815260200160028201805461272590613cdc565b80601f016020809104026020016040519081016040528092919081815260200182805461275190613cdc565b801561279c5780601f106127735761010080835404028352916020019161279c565b820191905f5260205f20905b81548152906001019060200180831161277f57829003601f168201915b50505050508152505081526020019060010190612612565b50505050905090565b60605f806127cb8585611ba3565b91509150836001600160401b038111156127e7576127e7613768565b604051908082528060200260200182016040528015612810578160200160208202803683370190505b5082519093505f90815b8181101561289f575f85828151811061283557612835613cc8565b602002602001015190505f5b85838151811061285357612853613cc8565b6020026020010151811015612895578188868151811061287557612875613cc8565b60209081029190910101528461288a81613dd9565b955050600101612841565b505060010161281a565b506128aa87866132fe565b5050505092915050565b6128bc6130f4565b63389a75e1600c52805f526020600c2080544211156128e257636f5e88185f526004601cfd5b5f90556128ee816131ba565b50565b5f6007546006547f00000000000000000000000000000000000000000000000000000000000000006129239190613dc6565b61292d9190613dc6565b905090565b61293a6130f4565b8060601b61294f57637448fbae5f526004601cfd5b6128ee816131ba565b60088160058110612967575f80fd5b600302015f9150905080600101805461297f90613cdc565b80601f01602080910402602001604051908101604052809291908181526020018280546129ab90613cdc565b80156129f65780601f106129cd576101008083540402835291602001916129f6565b820191905f5260205f20905b8154815290600101906020018083116129d957829003601f168201915b505050505090806002018054612a0b90613cdc565b80601f0160208091040260200160405190810160405280929190818152602001828054612a3790613cdc565b8015612a825780601f10612a5957610100808354040283529160200191612a82565b820191905f5260205f20905b815481529060010190602001808311612a6557829003601f168201915b5050505050905082565b5f8054604051630a28a47760e01b815282916001600160a01b037f00000000000000000000000000000000000000000000000000000000000000001691630a28a47791612adf9160040190815260200190565b602060405180830381865afa158015612afa573d5f803e3d5ffd5b505050506040513d601f19601f82011682018060405250810190612b1e9190613df1565b90505f7f00000000000000000000000000000000000000000000000000000000000000006001600160a01b0316630a28a4776001546040518263ffffffff1660e01b8152600401612b7191815260200190565b602060405180830381865afa158015612b8c573d5f803e3d5ffd5b505050506040513d601f19601f82011682018060405250810190612bb09190613df1565b6040516370a0823160e01b81523060048201529091505f906001600160a01b037f000000000000000000000000000000000000000000000000000000000000000016906370a0823190602401602060405180830381865afa158015612c17573d5f803e3d5ffd5b505050506040513d601f19601f82011682018060405250810190612c3b9190613df1565b905081612c488483613ec2565b612c529190613ec2565b935050505090565b5f8080806008612c6b600589613d61565b60058110612c7b57612c7b613cc8565b604080516101208101909152916003919091020181606081018260068282826020028201915f905b82829054906101000a900463ffffffff1663ffffffff1681526020019060040190602082600301049283019260010382029150808411612ca357905050505050508152602001600182018054612cf890613cdc565b80601f0160208091040260200160405190810160405280929190818152602001828054612d2490613cdc565b8015612d6f5780601f10612d4657610100808354040283529160200191612d6f565b820191905f5260205f20905b815481529060010190602001808311612d5257829003601f168201915b50505050508152602001600282018054612d8890613cdc565b80601f0160208091040260200160405190810160405280929190818152602001828054612db490613cdc565b8015612dff5780601f10612dd657610100808354040283529160200191612dff565b820191905f5260205f20905b815481529060010190602001808311612de257829003601f168201915b50505050508152505090505f6008600588612e1a9190613d61565b60058110612e2a57612e2a613cc8565b604080516101208101909152916003919091020181606081018260068282826020028201915f905b82829054906101000a900463ffffffff1663ffffffff1681526020019060040190602082600301049283019260010382029150808411612e5257905050505050508152602001600182018054612ea790613cdc565b80601f0160208091040260200160405190810160405280929190818152602001828054612ed390613cdc565b8015612f1e5780601f10612ef557610100808354040283529160200191612f1e565b820191905f5260205f20905b815481529060010190602001808311612f0157829003601f168201915b50505050508152602001600282018054612f3790613cdc565b80601f0160208091040260200160405190810160405280929190818152602001828054612f6390613cdc565b8015612fae5780601f10612f8557610100808354040283529160200191612fae565b820191905f5260205f20905b815481529060010190602001808311612f9157829003601f168201915b50505050508152505090505f5b8660ff168161ffff1610156130e7575f612fd48b610c8b565b90505f612fe08c610c8b565b90505f855f01518360068110612ff857612ff8613cc8565b602002015190505f855f0151836006811061301557613015613cc8565b602002015190507f46f9513b32e1c7b07b2ac02bfdd69a2f9cb49443e50d0d4af92eef3ecd1182e08d8d878787604051613075959493929190948552602085019390935261ffff9190911660408401526060830152608082015260a00190565b60405180910390a18063ffffffff168263ffffffff1611156130a3578961309b81614000565b9a50506130d7565b8163ffffffff168163ffffffff1611156130c957886130c181614000565b9950506130d7565b876130d381614000565b9850505b505060019092019150612fbb9050565b5050509450945094915050565b638b78c6d819543314611553576382b429005f526004601cfd5b816014528060345263a9059cbb60601b5f5260205f604460105f875af13d1560015f51141716613145576390b8ec185f526004601cfd5b5f603452505050565b816014528060345263095ea7b360601b5f5260205f604460105f875af13d1560015f51141716613145575f60345263095ea7b360601b5f525f38604460105f875af1508060345260205f604460105f875af13d1560015f5114171661314557633e3f8f735f526004601cfd5b638b78c6d81980546001600160a01b039092169182907f8be0079c531659141344cd1fd0a4f28419497f9722a3daafe3b4186f6b6457e05f80a355565b8282025f198385098181108201900380613226578261321d5763ae47f7025f526004601cfd5b50819004612316565b80831161323a5763ae47f7025f526004601cfd5b828486095f84810385169485900494848311909303908390038390046001010292030417600260038302811880840282030280840282030280840282030280840282030280840282030280840290910302029392505050565b60405181606052826040528360601b602c526323b872dd60601b600c5260205f6064601c5f895af13d1560015f511417166132d557637939f4245f526004601cfd5b5f60605260405250505050565b5f5b60208320905080835281825f030681106132e45706919050565b80515f196fffffffffffffffffffffffffffffffff8215610c84576020840193505b6020852080865282840193608082901c0660051b850184613342575050610c84565b600585811b8701805183519091529091528385019482841606901b85018461336b575050610c84565b600585901b860180518251909152905250613320565b6001600160a01b0384165f9081526017602052604081208054909185918391906133ac908490613dc6565b925050819055505f6133c184600754856131f7565b90505f6133d185600654866131f7565b90505f816133df8488613ec2565b6133e99190613ec2565b60405163266d6a8360e11b8152600481018290529091505f906001600160a01b037f00000000000000000000000000000000000000000000000000000000000000001690634cdad50690602401602060405180830381865afa158015613451573d5f803e3d5ffd5b505050506040513d601f19601f820116820180604052508101906134759190613df1565b60405163266d6a8360e11b8152600481018590529091505f906001600160a01b037f00000000000000000000000000000000000000000000000000000000000000001690634cdad50690602401602060405180830381865afa1580156134dd573d5f803e3d5ffd5b505050506040513d601f19601f820116820180604052508101906135019190613df1565b6004546001600160a01b03165f9081526002602052604081208054929350839290919061352f908490613dc6565b92505081905550815f808282546135469190613dc6565b925050819055508060015f82825461355e9190613dc6565b90915550505f5460015460408051848152602081018990529081019290925260608201526001600160a01b038b16907febf2df875b555f5edaef342e52b6a9498cccaec4813df8eb0f3842acc6d082819060800160405180910390a25f806135c68d8c611ba3565b604051634b93bab560e11b815291935091506001600160a01b037f00000000000000000000000000000000000000000000000000000000000000001690639727756a9061361b908f90869086906004016140be565b6020604051808303815f875af1158015613637573d5f803e3d5ffd5b505050506040513d601f19601f8201168201806040525081019061365b9190613df1565b5050505050505050505050505050565b6040518060a001604052806005905b613682613698565b81526020019060019003908161367a5790505090565b60405180606001604052806136ab6136bf565b815260200160608152602001606081525090565b6040518060c001604052806006906020820280368337509192915050565b5f602082840312156136ed575f80fd5b5035919050565b5f81518084528060208401602086015e5f602082860101526020601f19601f83011685010191505092915050565b602081525f61231660208301846136f4565b80356001600160a01b038116811461374a575f80fd5b919050565b5f6020828403121561375f575f80fd5b61231682613734565b634e487b7160e01b5f52604160045260245ffd5b604051601f8201601f191681016001600160401b03811182821017156137a4576137a4613768565b604052919050565b5f602082840312156137bc575f80fd5b604051602081016001600160401b03811182821017156137de576137de613768565b6040529135825250919050565b5f602082840312156137fb575f80fd5b61231683836137ac565b5f8060408385031215613816575f80fd5b61381f83613734565b915061382d60208401613734565b90509250929050565b5f805f60608486031215613848575f80fd5b61385184613734565b925061385f60208501613734565b929592945050506040919091013590565b5f806101a08385031215613882575f80fd5b61388b83613734565b9150836101a08401111561389d575f80fd5b50926020919091019150565b5f8083601f8401126138b9575f80fd5b5081356001600160401b038111156138cf575f80fd5b6020830191508360208260051b8501011115611b84575f80fd5b5f805f805f606086880312156138fd575f80fd5b61390686613734565b945060208601356001600160401b03811115613920575f80fd5b61392c888289016138a9565b90955093505060408601356001600160401b0381111561394a575f80fd5b613956888289016138a9565b969995985093965092949392505050565b5f8060408385031215613978575f80fd5b61398183613734565b946020939093013593505050565b5f6020828403121561399f575f80fd5b81356001600160401b038111156139b4575f80fd5b8201601f810184136139c4575f80fd5b80356001600160401b038111156139dd576139dd613768565b6139f0601f8201601f191660200161377c565b818152856020838501011115613a04575f80fd5b816020840160208301375f91810160200191909152949350505050565b5f8060408385031215613a32575f80fd5b61398184846137ac565b5f8151808452602084019350602083015f5b82811015613a6c578151865260209586019590910190600101613a4e565b5093949350505050565b604081525f613a886040830185613a3c565b8281036020840152613a9a8185613a3c565b95945050505050565b5f82601f830112613ab2575f80fd5b81356001600160401b03811115613acb57613acb613768565b8060051b613adb6020820161377c565b91825260208185018101929081019086841115613af6575f80fd5b6020860192505b83831015613b18578235825260209283019290910190613afd565b9695505050505050565b803560ff8116811461374a575f80fd5b5f805f60608486031215613b44575f80fd5b83356001600160401b03811115613b59575f80fd5b613b6586828701613aa3565b93505060208401356001600160401b03811115613b80575f80fd5b613b8c86828701613aa3565b925050613b9b60408501613b22565b90509250925092565b602081525f6123166020830184613a3c565b60208082525f9060c0830190830184835b6005811015613c5557858403601f1901835281518051855f5b6006811015613c0557825163ffffffff16825260209283019290910190600101613be0565b505050602081015161010060c0870152613c236101008701826136f4565b90506040820151915085810360e0870152613c3e81836136f4565b955050506020928301929190910190600101613bc7565b509195945050505050565b604081525f613c7260408301856136f4565b8281036020840152613a9a81856136f4565b5f805f8060808587031215613c97575f80fd5b613ca186866137ac565b93506020850135925060408501359150613cbd60608601613b22565b905092959194509250565b634e487b7160e01b5f52603260045260245ffd5b600181811c90821680613cf057607f821691505b60208210810361156b57634e487b7160e01b5f52602260045260245ffd5b5f81518060208401855e5f93019283525090919050565b5f613d308284613d0e565b6c20416c646572736f6e2044696560981b8152600d019392505050565b634e487b7160e01b5f52601260045260245ffd5b5f82613d6f57613d6f613d4d565b500690565b5f60208284031215613d84575f80fd5b81518015158114612316575f80fd5b602080825260059082015264042c2eae8d60db1b604082015260600190565b634e487b7160e01b5f52601160045260245ffd5b80820180821115610ca057610ca0613db2565b5f60018201613dea57613dea613db2565b5060010190565b5f60208284031215613e01575f80fd5b5051919050565b610180810181835f5b600c811015613e30578154835260209092019160019182019101613e11565b50505092915050565b61105160f21b81525f6123166002830184613d0e565b8183525f6001600160fb1b03831115613e66575f80fd5b8260051b80836020870137939093016020019392505050565b6001600160a01b03861681526060602082018190525f90613ea39083018688613e4f565b8281036040840152613eb6818587613e4f565b98975050505050505050565b81810381811115610ca057610ca0613db2565b601f821115610ed957805f5260205f20601f840160051c81016020851015613efa5750805b601f840160051c820191505b81811015610c84575f8155600101613f06565b81516001600160401b03811115613f3257613f32613768565b613f4681613f408454613cdc565b84613ed5565b6020601f821160018114613f78575f8315613f615750848201515b5f19600385901b1c1916600184901b178455610c84565b5f84815260208120601f198516915b82811015613fa75787850151825560209485019460019092019101613f87565b5084821015613fc457868401515f19600387901b60f8161c191681555b50505050600190811b01905550565b60ff84168152606060208201525f613fee6060830185613a3c565b8281036040840152613b188185613a3c565b5f60ff821660ff810361401557614015613db2565b60010192915050565b5f8261402c5761402c613d4d565b500490565b8082028115828204841417610ca057610ca0613db2565b5f80845461405581613cdc565b60018216801561406c5760018114614081576140ae565b60ff19831686528115158202860193506140ae565b875f5260205f205f5b838110156140a65781548882015260019091019060200161408a565b505081860193505b5050509283525050602001919050565b6001600160a01b03841681526060602082018190525f90613fee90830185613a3c56fea2646970667358221220e0705ae68aa3da04fd4035f6274e4d8012b6a38d3df9f34d1605f636e7642ef464736f6c634300081a0033",
        "linkReferences": {}
    },
    "methodIdentifiers": {
        "NUM_COLORS()": "7249db4d",
        "NUM_DICE_BAG()": "3e22c36e",
        "NUM_ROLLS()": "a9bd3037",
        "NUM_SIDES()": "e808c6ee",
        "allDice()": "ee41e0c9",
        "buyNumDice(address,uint256)": "bef9c2e1",
        "cancelOwnershipHandover()": "54d1f13d",
        "color(uint256)": "d4e28c9c",
        "completeOwnershipHandover(address)": "f04e283e",
        "currentBag((uint256),uint256)": "ef7de992",
        "currentBag()": "ad7c952d",
        "devFund()": "4390d2a8",
        "dice(uint256)": "f88d6732",
        "endSponsership(address,uint256)": "ca7b798a",
        "fixGameApprovals()": "54e05b11",
        "mintDevFee()": "978a7055",
        "mintPrizeFee()": "6177a2e9",
        "name(uint256)": "00ad800c",
        "nft()": "47ccca02",
        "numberPrng(uint256)": "55b49068",
        "owner()": "8da5cb5b",
        "ownershipHandoverExpiresAt(address)": "fee81cf4",
        "players(address)": "e2eb41ff",
        "prevrandaoPrng()": "33a8d940",
        "priceWithFees()": "f122e4b0",
        "prizeFund()": "f3ac3df5",
        "prizeSharesAvailable()": "f979dce6",
        "prizeToken()": "d0ef024a",
        "prizeTokenAvailable()": "409ffae7",
        "randomDice((uint256),uint256)": "a1d4872d",
        "randomRoll((uint256))": "096664ee",
        "recover(address,address,uint256)": "1ec82cb8",
        "refundPrice()": "808d5259",
        "renounceOwnership()": "715018a6",
        "requestOwnershipHandover()": "25692962",
        "returnDice(address,uint256[],uint256[])": "72767009",
        "setDiceBag(address,uint256[12])": "2fe0dd2a",
        "setMintDevFee(uint256)": "82c82f54",
        "setMintPrizeFee(uint256)": "aa92f01d",
        "setTokenURIPrefix(string)": "99e0dd7c",
        "skirmishBags(uint256[],uint256[],uint8)": "a612ee8d",
        "skirmishColors((uint256),uint256,uint256,uint8)": "fd86bbc7",
        "skirmishPVE(address)": "b9375fb2",
        "skirmishPlayers(address,address)": "1764ded2",
        "sponsor(address,uint256)": "8c995e44",
        "sponsorships(address)": "a100d967",
        "sweepPrizeFund()": "6454a592",
        "symbol(uint256)": "4e41a1fb",
        "tokenURI(uint256)": "c87b56dd",
        "totalDiceValue()": "a53d1a4b",
        "totalSponsorships()": "7315ab50",
        "transferOwnership(address)": "f2fde38b",
        "upgrade(address)": "0900f010",
        "value(uint256)": "c5a46ee6",
        "vaultToken()": "703bafd5"
    },
    "id": 34
}