{
    "abi": [
        {
            "type": "constructor",
            "inputs": [
                {
                    "name": "_owner",
                    "type": "address",
                    "internalType": "address"
                },
                {
                    "name": "_devFund",
                    "type": "address",
                    "internalType": "address"
                },
                {
                    "name": "_prizeFund",
                    "type": "address",
                    "internalType": "address"
                },
                {
                    "name": "_nft",
                    "type": "address",
                    "internalType": "contract AldersonDiceNFT"
                },
                {
                    "name": "_vaultToken",
                    "type": "address",
                    "internalType": "contract ERC4626"
                },
                {
                    "name": "_refundPrice",
                    "type": "uint256",
                    "internalType": "uint256"
                },
                {
                    "name": "_mintDevFee",
                    "type": "uint256",
                    "internalType": "uint256"
                },
                {
                    "name": "_mintPrizeFee",
                    "type": "uint256",
                    "internalType": "uint256"
                },
                {
                    "name": "_tokenURIPrefix",
                    "type": "string",
                    "internalType": "string"
                }
            ],
            "stateMutability": "nonpayable"
        },
        {
            "type": "function",
            "name": "NUM_COLORS",
            "inputs": [],
            "outputs": [
                {
                    "name": "",
                    "type": "uint256",
                    "internalType": "uint256"
                }
            ],
            "stateMutability": "view"
        },
        {
            "type": "function",
            "name": "NUM_DICE_BAG",
            "inputs": [],
            "outputs": [
                {
                    "name": "",
                    "type": "uint8",
                    "internalType": "uint8"
                }
            ],
            "stateMutability": "view"
        },
        {
            "type": "function",
            "name": "NUM_SIDES",
            "inputs": [],
            "outputs": [
                {
                    "name": "",
                    "type": "uint256",
                    "internalType": "uint256"
                }
            ],
            "stateMutability": "view"
        },
        {
            "type": "function",
            "name": "allDice",
            "inputs": [],
            "outputs": [
                {
                    "name": "",
                    "type": "tuple[5]",
                    "internalType": "struct AldersonDiceGameV0.DieInfo[5]",
                    "components": [
                        {
                            "name": "pips",
                            "type": "uint32[6]",
                            "internalType": "uint32[6]"
                        },
                        {
                            "name": "name",
                            "type": "string",
                            "internalType": "string"
                        },
                        {
                            "name": "symbol",
                            "type": "string",
                            "internalType": "string"
                        }
                    ]
                }
            ],
            "stateMutability": "view"
        },
        {
            "type": "function",
            "name": "buyNumDice",
            "inputs": [
                {
                    "name": "receiver",
                    "type": "address",
                    "internalType": "address"
                },
                {
                    "name": "numDice",
                    "type": "uint256",
                    "internalType": "uint256"
                }
            ],
            "outputs": [],
            "stateMutability": "nonpayable"
        },
        {
            "type": "function",
            "name": "cancelOwnershipHandover",
            "inputs": [],
            "outputs": [],
            "stateMutability": "payable"
        },
        {
            "type": "function",
            "name": "chooseDice",
            "inputs": [
                {
                    "name": "player",
                    "type": "address",
                    "internalType": "address"
                },
                {
                    "name": "chosenDice",
                    "type": "uint256[10]",
                    "internalType": "uint256[10]"
                }
            ],
            "outputs": [],
            "stateMutability": "nonpayable"
        },
        {
            "type": "function",
            "name": "completeOwnershipHandover",
            "inputs": [
                {
                    "name": "pendingOwner",
                    "type": "address",
                    "internalType": "address"
                }
            ],
            "outputs": [],
            "stateMutability": "payable"
        },
        {
            "type": "function",
            "name": "currentBag",
            "inputs": [],
            "outputs": [
                {
                    "name": "bag",
                    "type": "uint256[]",
                    "internalType": "uint256[]"
                }
            ],
            "stateMutability": "view"
        },
        {
            "type": "function",
            "name": "currentBag",
            "inputs": [
                {
                    "name": "prng",
                    "type": "tuple",
                    "internalType": "struct LibPRNG.PRNG",
                    "components": [
                        {
                            "name": "state",
                            "type": "uint256",
                            "internalType": "uint256"
                        }
                    ]
                },
                {
                    "name": "numDice",
                    "type": "uint256",
                    "internalType": "uint256"
                }
            ],
            "outputs": [
                {
                    "name": "bag",
                    "type": "uint256[]",
                    "internalType": "uint256[]"
                }
            ],
            "stateMutability": "pure"
        },
        {
            "type": "function",
            "name": "devFund",
            "inputs": [],
            "outputs": [
                {
                    "name": "",
                    "type": "address",
                    "internalType": "address"
                }
            ],
            "stateMutability": "view"
        },
        {
            "type": "function",
            "name": "dice",
            "inputs": [
                {
                    "name": "",
                    "type": "uint256",
                    "internalType": "uint256"
                }
            ],
            "outputs": [
                {
                    "name": "name",
                    "type": "string",
                    "internalType": "string"
                },
                {
                    "name": "symbol",
                    "type": "string",
                    "internalType": "string"
                }
            ],
            "stateMutability": "view"
        },
        {
            "type": "function",
            "name": "endSponsership",
            "inputs": [
                {
                    "name": "who",
                    "type": "address",
                    "internalType": "address"
                },
                {
                    "name": "amount",
                    "type": "uint256",
                    "internalType": "uint256"
                }
            ],
            "outputs": [],
            "stateMutability": "nonpayable"
        },
        {
            "type": "function",
            "name": "fixGameApprovals",
            "inputs": [],
            "outputs": [],
            "stateMutability": "nonpayable"
        },
        {
            "type": "function",
            "name": "getColor",
            "inputs": [
                {
                    "name": "diceId",
                    "type": "uint256",
                    "internalType": "uint256"
                }
            ],
            "outputs": [
                {
                    "name": "",
                    "type": "uint256",
                    "internalType": "uint256"
                }
            ],
            "stateMutability": "pure"
        },
        {
            "type": "function",
            "name": "mintDevFee",
            "inputs": [],
            "outputs": [
                {
                    "name": "",
                    "type": "uint256",
                    "internalType": "uint256"
                }
            ],
            "stateMutability": "view"
        },
        {
            "type": "function",
            "name": "mintPrizeFee",
            "inputs": [],
            "outputs": [
                {
                    "name": "",
                    "type": "uint256",
                    "internalType": "uint256"
                }
            ],
            "stateMutability": "view"
        },
        {
            "type": "function",
            "name": "name",
            "inputs": [
                {
                    "name": "id",
                    "type": "uint256",
                    "internalType": "uint256"
                }
            ],
            "outputs": [
                {
                    "name": "",
                    "type": "string",
                    "internalType": "string"
                }
            ],
            "stateMutability": "view"
        },
        {
            "type": "function",
            "name": "nft",
            "inputs": [],
            "outputs": [
                {
                    "name": "",
                    "type": "address",
                    "internalType": "contract AldersonDiceNFT"
                }
            ],
            "stateMutability": "view"
        },
        {
            "type": "function",
            "name": "numberPrng",
            "inputs": [
                {
                    "name": "n",
                    "type": "uint256",
                    "internalType": "uint256"
                }
            ],
            "outputs": [
                {
                    "name": "prng",
                    "type": "tuple",
                    "internalType": "struct LibPRNG.PRNG",
                    "components": [
                        {
                            "name": "state",
                            "type": "uint256",
                            "internalType": "uint256"
                        }
                    ]
                }
            ],
            "stateMutability": "pure"
        },
        {
            "type": "function",
            "name": "owner",
            "inputs": [],
            "outputs": [
                {
                    "name": "result",
                    "type": "address",
                    "internalType": "address"
                }
            ],
            "stateMutability": "view"
        },
        {
            "type": "function",
            "name": "ownershipHandoverExpiresAt",
            "inputs": [
                {
                    "name": "pendingOwner",
                    "type": "address",
                    "internalType": "address"
                }
            ],
            "outputs": [
                {
                    "name": "result",
                    "type": "uint256",
                    "internalType": "uint256"
                }
            ],
            "stateMutability": "view"
        },
        {
            "type": "function",
            "name": "players",
            "inputs": [
                {
                    "name": "",
                    "type": "address",
                    "internalType": "address"
                }
            ],
            "outputs": [
                {
                    "name": "minted",
                    "type": "uint256",
                    "internalType": "uint256"
                }
            ],
            "stateMutability": "view"
        },
        {
            "type": "function",
            "name": "prevrandaoPrng",
            "inputs": [],
            "outputs": [
                {
                    "name": "prng",
                    "type": "tuple",
                    "internalType": "struct LibPRNG.PRNG",
                    "components": [
                        {
                            "name": "state",
                            "type": "uint256",
                            "internalType": "uint256"
                        }
                    ]
                }
            ],
            "stateMutability": "view"
        },
        {
            "type": "function",
            "name": "priceWithFees",
            "inputs": [],
            "outputs": [
                {
                    "name": "",
                    "type": "uint256",
                    "internalType": "uint256"
                }
            ],
            "stateMutability": "view"
        },
        {
            "type": "function",
            "name": "prizeFund",
            "inputs": [],
            "outputs": [
                {
                    "name": "",
                    "type": "address",
                    "internalType": "address"
                }
            ],
            "stateMutability": "view"
        },
        {
            "type": "function",
            "name": "prizeSharesAvailable",
            "inputs": [],
            "outputs": [
                {
                    "name": "prizeShares",
                    "type": "uint256",
                    "internalType": "uint256"
                }
            ],
            "stateMutability": "view"
        },
        {
            "type": "function",
            "name": "prizeToken",
            "inputs": [],
            "outputs": [
                {
                    "name": "",
                    "type": "address",
                    "internalType": "contract ERC20"
                }
            ],
            "stateMutability": "view"
        },
        {
            "type": "function",
            "name": "prizeTokenAvailable",
            "inputs": [],
            "outputs": [
                {
                    "name": "available",
                    "type": "uint256",
                    "internalType": "uint256"
                }
            ],
            "stateMutability": "view"
        },
        {
            "type": "function",
            "name": "randomDice",
            "inputs": [
                {
                    "name": "prng",
                    "type": "tuple",
                    "internalType": "struct LibPRNG.PRNG",
                    "components": [
                        {
                            "name": "state",
                            "type": "uint256",
                            "internalType": "uint256"
                        }
                    ]
                },
                {
                    "name": "numDice",
                    "type": "uint256",
                    "internalType": "uint256"
                }
            ],
            "outputs": [
                {
                    "name": "tokenIds",
                    "type": "uint256[]",
                    "internalType": "uint256[]"
                },
                {
                    "name": "amounts",
                    "type": "uint256[]",
                    "internalType": "uint256[]"
                }
            ],
            "stateMutability": "pure"
        },
        {
            "type": "function",
            "name": "randomRoll",
            "inputs": [
                {
                    "name": "prng",
                    "type": "tuple",
                    "internalType": "struct LibPRNG.PRNG",
                    "components": [
                        {
                            "name": "state",
                            "type": "uint256",
                            "internalType": "uint256"
                        }
                    ]
                }
            ],
            "outputs": [
                {
                    "name": "faceId",
                    "type": "uint256",
                    "internalType": "uint256"
                }
            ],
            "stateMutability": "pure"
        },
        {
            "type": "function",
            "name": "recover",
            "inputs": [
                {
                    "name": "token",
                    "type": "address",
                    "internalType": "address"
                },
                {
                    "name": "to",
                    "type": "address",
                    "internalType": "address"
                },
                {
                    "name": "amount",
                    "type": "uint256",
                    "internalType": "uint256"
                }
            ],
            "outputs": [],
            "stateMutability": "nonpayable"
        },
        {
            "type": "function",
            "name": "refundPrice",
            "inputs": [],
            "outputs": [
                {
                    "name": "",
                    "type": "uint256",
                    "internalType": "uint256"
                }
            ],
            "stateMutability": "view"
        },
        {
            "type": "function",
            "name": "renounceOwnership",
            "inputs": [],
            "outputs": [],
            "stateMutability": "payable"
        },
        {
            "type": "function",
            "name": "requestOwnershipHandover",
            "inputs": [],
            "outputs": [],
            "stateMutability": "payable"
        },
        {
            "type": "function",
            "name": "returnDice",
            "inputs": [
                {
                    "name": "player",
                    "type": "address",
                    "internalType": "address"
                },
                {
                    "name": "diceIds",
                    "type": "uint256[]",
                    "internalType": "uint256[]"
                },
                {
                    "name": "diceAmounts",
                    "type": "uint256[]",
                    "internalType": "uint256[]"
                }
            ],
            "outputs": [
                {
                    "name": "refundAssets",
                    "type": "uint256",
                    "internalType": "uint256"
                }
            ],
            "stateMutability": "nonpayable"
        },
        {
            "type": "function",
            "name": "rollCurrentBag",
            "inputs": [],
            "outputs": [
                {
                    "name": "pips",
                    "type": "uint256[]",
                    "internalType": "uint256[]"
                }
            ],
            "stateMutability": "view"
        },
        {
            "type": "function",
            "name": "rollDice",
            "inputs": [
                {
                    "name": "prng",
                    "type": "tuple",
                    "internalType": "struct LibPRNG.PRNG",
                    "components": [
                        {
                            "name": "state",
                            "type": "uint256",
                            "internalType": "uint256"
                        }
                    ]
                },
                {
                    "name": "orderedDice",
                    "type": "uint256[]",
                    "internalType": "uint256[]"
                }
            ],
            "outputs": [
                {
                    "name": "pips",
                    "type": "uint256[]",
                    "internalType": "uint256[]"
                }
            ],
            "stateMutability": "view"
        },
        {
            "type": "function",
            "name": "rollPlayerBag",
            "inputs": [
                {
                    "name": "player",
                    "type": "address",
                    "internalType": "address"
                }
            ],
            "outputs": [
                {
                    "name": "pips",
                    "type": "uint256[]",
                    "internalType": "uint256[]"
                }
            ],
            "stateMutability": "view"
        },
        {
            "type": "function",
            "name": "scorePips",
            "inputs": [
                {
                    "name": "pips0",
                    "type": "uint256[]",
                    "internalType": "uint256[]"
                },
                {
                    "name": "pips1",
                    "type": "uint256[]",
                    "internalType": "uint256[]"
                }
            ],
            "outputs": [
                {
                    "name": "wins0",
                    "type": "uint256",
                    "internalType": "uint256"
                },
                {
                    "name": "wins1",
                    "type": "uint256",
                    "internalType": "uint256"
                },
                {
                    "name": "ties",
                    "type": "uint256",
                    "internalType": "uint256"
                }
            ],
            "stateMutability": "pure"
        },
        {
            "type": "function",
            "name": "setMintDevFee",
            "inputs": [
                {
                    "name": "_fee",
                    "type": "uint256",
                    "internalType": "uint256"
                }
            ],
            "outputs": [],
            "stateMutability": "nonpayable"
        },
        {
            "type": "function",
            "name": "setMintPrizeFee",
            "inputs": [
                {
                    "name": "_fee",
                    "type": "uint256",
                    "internalType": "uint256"
                }
            ],
            "outputs": [],
            "stateMutability": "nonpayable"
        },
        {
            "type": "function",
            "name": "setTokenURIPrefix",
            "inputs": [
                {
                    "name": "_tokenURIPrefix",
                    "type": "string",
                    "internalType": "string"
                }
            ],
            "outputs": [],
            "stateMutability": "nonpayable"
        },
        {
            "type": "function",
            "name": "skirmishPrng",
            "inputs": [
                {
                    "name": "player",
                    "type": "address",
                    "internalType": "address"
                }
            ],
            "outputs": [
                {
                    "name": "prng",
                    "type": "tuple",
                    "internalType": "struct LibPRNG.PRNG",
                    "components": [
                        {
                            "name": "state",
                            "type": "uint256",
                            "internalType": "uint256"
                        }
                    ]
                }
            ],
            "stateMutability": "view"
        },
        {
            "type": "function",
            "name": "sponsor",
            "inputs": [
                {
                    "name": "account",
                    "type": "address",
                    "internalType": "address"
                },
                {
                    "name": "amount",
                    "type": "uint256",
                    "internalType": "uint256"
                }
            ],
            "outputs": [
                {
                    "name": "",
                    "type": "uint256",
                    "internalType": "uint256"
                },
                {
                    "name": "shares",
                    "type": "uint256",
                    "internalType": "uint256"
                }
            ],
            "stateMutability": "nonpayable"
        },
        {
            "type": "function",
            "name": "sponsorships",
            "inputs": [
                {
                    "name": "who",
                    "type": "address",
                    "internalType": "address"
                }
            ],
            "outputs": [
                {
                    "name": "withdrawable",
                    "type": "uint256",
                    "internalType": "uint256"
                }
            ],
            "stateMutability": "view"
        },
        {
            "type": "function",
            "name": "sweepPrizeFund",
            "inputs": [],
            "outputs": [
                {
                    "name": "shares",
                    "type": "uint256",
                    "internalType": "uint256"
                }
            ],
            "stateMutability": "nonpayable"
        },
        {
            "type": "function",
            "name": "symbol",
            "inputs": [
                {
                    "name": "id",
                    "type": "uint256",
                    "internalType": "uint256"
                }
            ],
            "outputs": [
                {
                    "name": "",
                    "type": "string",
                    "internalType": "string"
                }
            ],
            "stateMutability": "view"
        },
        {
            "type": "function",
            "name": "tokenURI",
            "inputs": [
                {
                    "name": "id",
                    "type": "uint256",
                    "internalType": "uint256"
                }
            ],
            "outputs": [
                {
                    "name": "",
                    "type": "string",
                    "internalType": "string"
                }
            ],
            "stateMutability": "view"
        },
        {
            "type": "function",
            "name": "totalDiceValue",
            "inputs": [],
            "outputs": [
                {
                    "name": "",
                    "type": "uint256",
                    "internalType": "uint256"
                }
            ],
            "stateMutability": "view"
        },
        {
            "type": "function",
            "name": "totalSponsorships",
            "inputs": [],
            "outputs": [
                {
                    "name": "",
                    "type": "uint256",
                    "internalType": "uint256"
                }
            ],
            "stateMutability": "view"
        },
        {
            "type": "function",
            "name": "transferOwnership",
            "inputs": [
                {
                    "name": "newOwner",
                    "type": "address",
                    "internalType": "address"
                }
            ],
            "outputs": [],
            "stateMutability": "payable"
        },
        {
            "type": "function",
            "name": "upgrade",
            "inputs": [
                {
                    "name": "_newGameLogic",
                    "type": "address",
                    "internalType": "address"
                }
            ],
            "outputs": [],
            "stateMutability": "nonpayable"
        },
        {
            "type": "function",
            "name": "value",
            "inputs": [
                {
                    "name": "numDice",
                    "type": "uint256",
                    "internalType": "uint256"
                }
            ],
            "outputs": [
                {
                    "name": "refundAssets",
                    "type": "uint256",
                    "internalType": "uint256"
                }
            ],
            "stateMutability": "view"
        },
        {
            "type": "function",
            "name": "vaultToken",
            "inputs": [],
            "outputs": [
                {
                    "name": "",
                    "type": "address",
                    "internalType": "contract ERC4626"
                }
            ],
            "stateMutability": "view"
        },
        {
            "type": "event",
            "name": "ChosenDice",
            "inputs": [
                {
                    "name": "player",
                    "type": "address",
                    "indexed": true,
                    "internalType": "address"
                },
                {
                    "name": "dice",
                    "type": "uint256[10]",
                    "indexed": false,
                    "internalType": "uint256[10]"
                }
            ],
            "anonymous": false
        },
        {
            "type": "event",
            "name": "Fees",
            "inputs": [
                {
                    "name": "player",
                    "type": "address",
                    "indexed": true,
                    "internalType": "address"
                },
                {
                    "name": "devFundAmount",
                    "type": "uint256",
                    "indexed": false,
                    "internalType": "uint256"
                },
                {
                    "name": "prizePoolShares",
                    "type": "uint256",
                    "indexed": false,
                    "internalType": "uint256"
                },
                {
                    "name": "totalDiceValue",
                    "type": "uint256",
                    "indexed": false,
                    "internalType": "uint256"
                },
                {
                    "name": "totalSponsorships",
                    "type": "uint256",
                    "indexed": false,
                    "internalType": "uint256"
                }
            ],
            "anonymous": false
        },
        {
            "type": "event",
            "name": "OwnershipHandoverCanceled",
            "inputs": [
                {
                    "name": "pendingOwner",
                    "type": "address",
                    "indexed": true,
                    "internalType": "address"
                }
            ],
            "anonymous": false
        },
        {
            "type": "event",
            "name": "OwnershipHandoverRequested",
            "inputs": [
                {
                    "name": "pendingOwner",
                    "type": "address",
                    "indexed": true,
                    "internalType": "address"
                }
            ],
            "anonymous": false
        },
        {
            "type": "event",
            "name": "OwnershipTransferred",
            "inputs": [
                {
                    "name": "oldOwner",
                    "type": "address",
                    "indexed": true,
                    "internalType": "address"
                },
                {
                    "name": "newOwner",
                    "type": "address",
                    "indexed": true,
                    "internalType": "address"
                }
            ],
            "anonymous": false
        },
        {
            "type": "event",
            "name": "SetMintDevFee",
            "inputs": [
                {
                    "name": "newFee",
                    "type": "uint256",
                    "indexed": false,
                    "internalType": "uint256"
                }
            ],
            "anonymous": false
        },
        {
            "type": "event",
            "name": "SetMintPrizeFee",
            "inputs": [
                {
                    "name": "newFee",
                    "type": "uint256",
                    "indexed": false,
                    "internalType": "uint256"
                }
            ],
            "anonymous": false
        },
        {
            "type": "event",
            "name": "SkirmishBags",
            "inputs": [
                {
                    "name": "draws",
                    "type": "uint256",
                    "indexed": false,
                    "internalType": "uint256"
                },
                {
                    "name": "diceBag0",
                    "type": "uint256[]",
                    "indexed": false,
                    "internalType": "uint256[]"
                },
                {
                    "name": "diceBag1",
                    "type": "uint256[]",
                    "indexed": false,
                    "internalType": "uint256[]"
                }
            ],
            "anonymous": false
        },
        {
            "type": "event",
            "name": "SkirmishColor",
            "inputs": [
                {
                    "name": "color0",
                    "type": "uint256",
                    "indexed": false,
                    "internalType": "uint256"
                },
                {
                    "name": "color1",
                    "type": "uint256",
                    "indexed": false,
                    "internalType": "uint256"
                },
                {
                    "name": "round",
                    "type": "uint16",
                    "indexed": false,
                    "internalType": "uint16"
                },
                {
                    "name": "side0",
                    "type": "uint256",
                    "indexed": false,
                    "internalType": "uint256"
                },
                {
                    "name": "side1",
                    "type": "uint256",
                    "indexed": false,
                    "internalType": "uint256"
                }
            ],
            "anonymous": false
        },
        {
            "type": "event",
            "name": "SkirmishPlayers",
            "inputs": [
                {
                    "name": "player0",
                    "type": "address",
                    "indexed": true,
                    "internalType": "address"
                },
                {
                    "name": "player1",
                    "type": "address",
                    "indexed": true,
                    "internalType": "address"
                },
                {
                    "name": "wins0",
                    "type": "uint8",
                    "indexed": false,
                    "internalType": "uint8"
                },
                {
                    "name": "wins1",
                    "type": "uint8",
                    "indexed": false,
                    "internalType": "uint8"
                },
                {
                    "name": "ties",
                    "type": "uint8",
                    "indexed": false,
                    "internalType": "uint8"
                }
            ],
            "anonymous": false
        },
        {
            "type": "event",
            "name": "Sponsored",
            "inputs": [
                {
                    "name": "sender",
                    "type": "address",
                    "indexed": true,
                    "internalType": "address"
                },
                {
                    "name": "account",
                    "type": "address",
                    "indexed": true,
                    "internalType": "address"
                },
                {
                    "name": "amount",
                    "type": "uint256",
                    "indexed": false,
                    "internalType": "uint256"
                },
                {
                    "name": "balance",
                    "type": "uint256",
                    "indexed": false,
                    "internalType": "uint256"
                },
                {
                    "name": "total",
                    "type": "uint256",
                    "indexed": false,
                    "internalType": "uint256"
                }
            ],
            "anonymous": false
        },
        {
            "type": "error",
            "name": "AlreadyInitialized",
            "inputs": []
        },
        {
            "type": "error",
            "name": "NewOwnerIsZeroAddress",
            "inputs": []
        },
        {
            "type": "error",
            "name": "NoHandoverRequest",
            "inputs": []
        },
        {
            "type": "error",
            "name": "Unauthorized",
            "inputs": []
        }
    ],
    "bytecode": {
        "object": "0x6101006040525f80555f600155348015610017575f80fd5b5060405161449038038061449083398101604081905261003691610687565b5f84116100725760405162461bcd60e51b815260206004820152600660248201526521707269636560d01b604482015260640160405180910390fd5b61007b89610574565b600480546001600160a01b03808b166001600160a01b031992831617909255600580548a84169216919091179055868116608052851660a05260e08490526006839055600782905560036100cf828261083d565b5060a0516001600160a01b03166338d52e0f6040518163ffffffff1660e01b8152600401602060405180830381865afa15801561010e573d5f803e3d5ffd5b505050506040513d601f19601f8201168201806040525081019061013291906108f7565b6001600160a01b0390811660c081905260405163095ea7b360e01b815291871660048301525f1960248301529063095ea7b3906044016020604051808303815f875af1158015610184573d5f803e3d5ffd5b505050506040513d601f19601f820116820180604052508101906101a89190610919565b5060408051610120810182526004606082018181526080830182905260a0830182905260c0830182905260e083018290526009610100840152825282518084018452600381526214995960ea1b602080830191909152808401919091528351808501855291825263f09f9fa560e01b9082015291810191909152805160089061023490829060066105b0565b5060208201516001820190610249908261083d565b506040820151600282019061025e908261083d565b505060408051610120810182526003606082018181526080830182905260a0830182905260c0830191909152600860e0830181905261010083015281528151808301835260068082526559656c6c6f7760d01b602080840191909152808401929092528351808501855281815265e2ad90efb88f60d01b92810192909252928201528051909250600b916102f39183916105b0565b5060208201516001820190610308908261083d565b506040820151600282019061031d908261083d565b505060408051610120810182526002606082018181526080830182905260a0830191909152600760c0830181905260e08301819052610100830152815281518083018352600480825263426c756560e01b602080840191909152808401929092528351808501855290815263f09f94b760e01b91810191909152918101919091528051909150600e906103b390829060066105b0565b50602082015160018201906103c8908261083d565b50604082015160028201906103dd908261083d565b505060408051610120810182526001606082018181526080830191909152600660a0830181905260c0830181905260e0830181905261010083018190529082528251808401845260078152664d6167656e746160c81b602080830191909152808401919091528351808501855260048152633c27e4a760e21b918101919091529282019290925280519092506011916104779183916105b0565b506020820151600182019061048c908261083d565b50604082015160028201906104a1908261083d565b505060408051610120810182525f6060820190815260056080830181905260a0830181905260c0830181905260e08301819052610100830181905290825282518084018452908152644f6c69766560d81b60208083019190915280830191909152825180840184526004815263784fd5c960e11b9181019190915291810191909152805190915060149061053890829060066105b0565b506020820151600182019061054d908261083d565b5060408201516002820190610562908261083d565b50905050505050505050505050610938565b6001600160a01b0316638b78c6d819819055805f7f8be0079c531659141344cd1fd0a4f28419497f9722a3daafe3b4186f6b6457e08180a35b50565b60018301918390821561063b579160200282015f5b8382111561060957835183826101000a81548163ffffffff021916908363ffffffff16021790555092602001926004016020816003010492830192600103026105c5565b80156106395782816101000a81549063ffffffff0219169055600401602081600301049283019260010302610609565b505b5061064792915061064b565b5090565b5b80821115610647575f815560010161064c565b6001600160a01b03811681146105ad575f80fd5b634e487b7160e01b5f52604160045260245ffd5b5f805f805f805f805f6101208a8c0312156106a0575f80fd5b89516106ab8161065f565b60208b01519099506106bc8161065f565b60408b01519098506106cd8161065f565b60608b01519097506106de8161065f565b60808b01519096506106ef8161065f565b60a08b015160c08c015160e08d01516101008e0151939850919650945092506001600160401b03811115610721575f80fd5b8a015f601f82018d13610732575f80fd5b81516001600160401b0381111561074b5761074b610673565b604051601f8201601f19908116603f011681016001600160401b038111828210171561077957610779610673565b6040528181528382016020018f1015610790575f80fd5b8160208501602083015e5f60208383010152809250809450505050509295985092959850929598565b600181811c908216806107cd57607f821691505b6020821081036107eb57634e487b7160e01b5f52602260045260245ffd5b50919050565b601f82111561083857805f5260205f20601f840160051c810160208510156108165750805b601f840160051c820191505b81811015610835575f8155600101610822565b50505b505050565b81516001600160401b0381111561085657610856610673565b61086a8161086484546107b9565b846107f1565b6020601f82116001811461089c575f83156108855750848201515b5f19600385901b1c1916600184901b178455610835565b5f84815260208120601f198516915b828110156108cb57878501518255602094850194600190920191016108ab565b50848210156108e857868401515f19600387901b60f8161c191681555b50505050600190811b01905550565b5f60208284031215610907575f80fd5b81516109128161065f565b9392505050565b5f60208284031215610929575f80fd5b81518015158114610912575f80fd5b60805160a05160c05160e051613a61610a2f5f395f818161065d015261276c01525f81816108c201528181611191015281816119750152611f4701525f818161059c01528181610ce501528181610f12015281816111b30152818161121a015281816114e6015281816119b901528181611a4401528181611f8d01528181612249015281816123550152818161291a0152818161299501528181612a4401528181612de40152612e7001525f81816104da01528181610c36015281816112d30152818161139401528181611417015281816115ac015281816117770152818161202b0152818161215b0152612fba0152613a615ff3fe608060405260043610610340575f3560e01c806389ea65a4116101bd578063ca7b798a116100f2578063f04e283e11610092578063f3ac3df51161006d578063f3ac3df51461099d578063f88d6732146109bc578063f979dce6146109e9578063fee81cf4146109fd575f80fd5b8063f04e283e14610963578063f122e4b014610976578063f2fde38b1461098a575f80fd5b8063e2eb41ff116100cd578063e2eb41ff146108e4578063e808c6ee1461090f578063ee41e0c914610923578063ef7de99214610944575f80fd5b8063ca7b798a14610873578063cd57ca3014610892578063d0ef024a146108b1575f80fd5b8063a1d4872d1161015d578063ad7c952d11610138578063ad7c952d14610802578063bef9c2e114610816578063c5a46ee614610835578063c87b56dd14610854575f80fd5b8063a1d4872d146107a2578063a53d1a4b146107cf578063aa92f01d146107e3575f80fd5b806396074b921161019857806396074b9214610709578063978a70551461074357806399e0dd7c14610758578063a100d96714610777575f80fd5b806389ea65a41461069e5780638c995e44146106bd5780638da5cb5b146106f1575f80fd5b806354d1f13d116102935780637249db4d116102335780637a68c10d1161020e5780637a68c10d1461060e57806380057b9a1461062d578063808d52591461064c57806382c82f541461067f575f80fd5b80637249db4d146105c657806372767009146105da5780637315ab50146105f9575f80fd5b80636177a2e91161026e5780636177a2e9146105625780636454a59214610577578063703bafd51461058b578063715018a6146105be575f80fd5b806354d1f13d1461051b57806354e05b111461052357806355b4906814610537575f80fd5b806333a8d940116102fe578063409ffae7116102d9578063409ffae71461047e5780634390d2a81461049257806347ccca02146104c95780634e41a1fb146104fc575f80fd5b806333a8d9401461041a5780633e22c36e146104445780633ee029f21461046a575f80fd5b8062ad800c146103445780630900f01014610379578063096664ee1461039a5780631ec82cb8146103c757806325692962146103e65780632f16ba25146103ee575b5f80fd5b34801561034f575f80fd5b5061036361035e3660046130b5565b610a2e565b60405161037091906130fa565b60405180910390f35b348015610384575f80fd5b50610398610393366004613122565b610c09565b005b3480156103a5575f80fd5b506103b96103b43660046131be565b610c90565b604051908152602001610370565b3480156103d2575f80fd5b506103986103e13660046131d8565b610cab565b610398610d6b565b3480156103f9575f80fd5b5061040d610408366004613291565b610db7565b6040516103709190613316565b348015610425575f80fd5b5060408051602081019091524481525b60405190518152602001610370565b34801561044f575f80fd5b50610458600a81565b60405160ff9091168152602001610370565b348015610475575f80fd5b5061040d610ec5565b348015610489575f80fd5b506103b9610eef565b34801561049d575f80fd5b506004546104b1906001600160a01b031681565b6040516001600160a01b039091168152602001610370565b3480156104d4575f80fd5b506104b17f000000000000000000000000000000000000000000000000000000000000000081565b348015610507575f80fd5b506103636105163660046130b5565b610f89565b61039861114b565b34801561052e575f80fd5b50610398611184565b348015610542575f80fd5b506104356105513660046130b5565b604080516020810190915290815290565b34801561056d575f80fd5b506103b960075481565b348015610582575f80fd5b506103b96111e0565b348015610596575f80fd5b506104b17f000000000000000000000000000000000000000000000000000000000000000081565b61039861128a565b3480156105d1575f80fd5b506103b9600581565b3480156105e5575f80fd5b506103b96105f4366004613368565b61129b565b348015610604575f80fd5b506103b960015481565b348015610619575f80fd5b506103986106283660046133e6565b611575565b348015610638575f80fd5b506103b96106473660046130b5565b6118b1565b348015610657575f80fd5b506103b97f000000000000000000000000000000000000000000000000000000000000000081565b34801561068a575f80fd5b506103986106993660046130b5565b6118bd565b3480156106a9575f80fd5b506104356106b8366004613122565b611901565b3480156106c8575f80fd5b506106dc6106d736600461341f565b611966565b60408051928352602083019190915201610370565b3480156106fc575f80fd5b50638b78c6d819546104b1565b348015610714575f80fd5b50610728610723366004613447565b611ba7565b60408051938452602084019290925290820152606001610370565b34801561074e575f80fd5b506103b960065481565b348015610763575f80fd5b50610398610772366004613494565b611c91565b348015610782575f80fd5b506103b9610791366004613122565b60026020525f908152604090205481565b3480156107ad575f80fd5b506107c16107bc366004613526565b611ca9565b604051610370929190613541565b3480156107da575f80fd5b506103b95f5481565b3480156107ee575f80fd5b506103986107fd3660046130b5565b611e90565b34801561080d575f80fd5b5061040d611ecd565b348015610821575f80fd5b5061039861083036600461341f565b611eeb565b348015610840575f80fd5b506103b961084f3660046130b5565b612027565b34801561085f575f80fd5b5061036361086e3660046130b5565b6120f8565b34801561087e575f80fd5b5061039861088d36600461341f565b612124565b34801561089d575f80fd5b5061040d6108ac366004613122565b6123c7565b3480156108bc575f80fd5b506104b17f000000000000000000000000000000000000000000000000000000000000000081565b3480156108ef575f80fd5b506103b96108fe366004613122565b60176020525f908152604090205481565b34801561091a575f80fd5b506103b9600681565b34801561092e575f80fd5b5061093761246b565b604051610370919061356e565b34801561094f575f80fd5b5061040d61095e366004613526565b612630565b610398610971366004613122565b612726565b348015610981575f80fd5b506103b9612763565b610398610998366004613122565b6127a4565b3480156109a8575f80fd5b506005546104b1906001600160a01b031681565b3480156109c7575f80fd5b506109db6109d63660046130b5565b6127ca565b604051610370929190613618565b3480156109f4575f80fd5b506103b96128fe565b348015610a08575f80fd5b506103b9610a17366004613122565b63389a75e1600c9081525f91909152602090205490565b60605f6008610a3c846118b1565b60058110610a4c57610a4c61363c565b604080516101208101909152916003919091020181606081018260068282826020028201915f905b82829054906101000a900463ffffffff1663ffffffff1681526020019060040190602082600301049283019260010382029150808411610a7457905050505050508152602001600182018054610ac990613650565b80601f0160208091040260200160405190810160405280929190818152602001828054610af590613650565b8015610b405780601f10610b1757610100808354040283529160200191610b40565b820191905f5260205f20905b815481529060010190602001808311610b2357829003601f168201915b50505050508152602001600282018054610b5990613650565b80601f0160208091040260200160405190810160405280929190818152602001828054610b8590613650565b8015610bd05780601f10610ba757610100808354040283529160200191610bd0565b820191905f5260205f20905b815481529060010190602001808311610bb357829003601f168201915b5050505050815250509050806020015183604051602001610bf292919061369f565b604051602081830303815290604052915050919050565b610c11612acc565b6040516288644960e11b81526001600160a01b038281166004830152600160248301527f00000000000000000000000000000000000000000000000000000000000000001690630110c892906044015f604051808303815f87803b158015610c77575f80fd5b505af1158015610c89573d5f803e3d5ffd5b5050505050565b602081208082525f90610ca5906006906136e4565b92915050565b638b78c6d819546001600160a01b0316336001600160a01b03161480610cdb57506004546001600160a01b031633145b610ce3575f80fd5b7f00000000000000000000000000000000000000000000000000000000000000006001600160a01b0316836001600160a01b031603610d525760405162461bcd60e51b815260206004820152600660248201526510ba37b5b2b760d11b60448201526064015b60405180910390fd5b610d666001600160a01b0384168383612ae6565b505050565b5f6202a3006001600160401b03164201905063389a75e1600c52335f52806020600c2055337fdbf36a107da19e49527a7176a1babf963b4b0ff8cde35ee35d6cd8f1f9ac7e1d5f80a250565b8051606090806001600160401b03811115610dd457610dd461313b565b604051908082528060200260200182016040528015610dfd578160200160208202803683370190505b5091505f5b81811015610eba575f848281518110610e1d57610e1d61363c565b602002602001015190505f610e3187610c90565b90505f610e3d836118b1565b90505f60088260058110610e5357610e5361363c565b600302019050808360068110610e6b57610e6b61363c565b600891828204019190066004029054906101000a900463ffffffff1663ffffffff16878681518110610e9f57610e9f61363c565b6020908102919091010152505060019092019150610e029050565b505092915050565b90565b60605f610ed0611ecd565b90505f610edc30611901565b9050610ee88183610db7565b9250505090565b5f80610ef96128fe565b60405163266d6a8360e11b8152600481018290529091507f00000000000000000000000000000000000000000000000000000000000000006001600160a01b031690634cdad50690602401602060405180830381865afa158015610f5f573d5f803e3d5ffd5b505050506040513d601f19601f82011682018060405250810190610f8391906136f7565b91505090565b60605f6008610f97846118b1565b60058110610fa757610fa761363c565b604080516101208101909152916003919091020181606081018260068282826020028201915f905b82829054906101000a900463ffffffff1663ffffffff1681526020019060040190602082600301049283019260010382029150808411610fcf5790505050505050815260200160018201805461102490613650565b80601f016020809104026020016040519081016040528092919081815260200182805461105090613650565b801561109b5780601f106110725761010080835404028352916020019161109b565b820191905f5260205f20905b81548152906001019060200180831161107e57829003601f168201915b505050505081526020016002820180546110b490613650565b80601f01602080910402602001604051908101604052809291908181526020018280546110e090613650565b801561112b5780601f106111025761010080835404028352916020019161112b565b820191905f5260205f20905b81548152906001019060200180831161110e57829003601f168201915b50505050508152505090508060400151604051602001610bf2919061370e565b63389a75e1600c52335f525f6020600c2055337ffa7b8eab7da67f412cc9575ed43464468f9bfbae89d1675917346ca6d8fe3c925f80a2565b6111d96001600160a01b037f0000000000000000000000000000000000000000000000000000000000000000167f00000000000000000000000000000000000000000000000000000000000000005f19612b26565b565b919050565b5f6111e96128fe565b90508015610ec25760055460405163a9059cbb60e01b81526001600160a01b039182166004820152602481018390527f00000000000000000000000000000000000000000000000000000000000000009091169063a9059cbb906044016020604051808303815f875af1158015611262573d5f803e3d5ffd5b505050506040513d601f19601f820116820180604052508101906112869190613724565b5090565b611292612acc565b6111d95f612b92565b5f6001600160a01b03861633148061133c5750604051635b1b1e7960e11b81526001600160a01b0387811660048301523360248301527f0000000000000000000000000000000000000000000000000000000000000000169063b6363cf290604401602060405180830381865afa158015611318573d5f803e3d5ffd5b505050506040513d601f19601f8201168201806040525081019061133c9190613724565b6113585760405162461bcd60e51b8152600401610d4990613743565b838281146113915760405162461bcd60e51b8152600401610d499060208082526004908201526310b632b760e11b604082015260600190565b5f7f00000000000000000000000000000000000000000000000000000000000000006001600160a01b03166318160ddd6040518163ffffffff1660e01b8152600401602060405180830381865afa1580156113ee573d5f803e3d5ffd5b505050506040513d601f19601f8201168201806040525081019061141291906136f7565b90505f7f00000000000000000000000000000000000000000000000000000000000000006001600160a01b0316633db0f8ab8a8a8a8a8a6040518663ffffffff1660e01b8152600401611469959493929190613792565b6020604051808303815f875af1158015611485573d5f803e3d5ffd5b505050506040513d601f19601f820116820180604052508101906114a991906136f7565b90506114b75f548284612bcf565b604051632d182be560e21b8152600481018290526001600160a01b038b811660248301523060448301529195507f00000000000000000000000000000000000000000000000000000000000000009091169063b460af94906064016020604051808303815f875af115801561152e573d5f803e3d5ffd5b505050506040513d601f19601f8201168201806040525081019061155291906136f7565b50835f8082825461156391906137e9565b90915550939998505050505050505050565b6001600160a01b0382163314806116155750604051635b1b1e7960e11b81526001600160a01b0383811660048301523360248301527f0000000000000000000000000000000000000000000000000000000000000000169063b6363cf290604401602060405180830381865afa1580156115f1573d5f803e3d5ffd5b505050506040513d601f19601f820116820180604052508101906116159190613724565b6116315760405162461bcd60e51b8152600401610d4990613743565b6001600160a01b0382165f908152601760205260408082208151600a80825261016082019093529092918160200160208202803683370190505090505f5b600a81101561172d578381600a811061168a5761168a61363c565b60200201358360010182600a81106116a4576116a461363c565b01555f5b818111611724578481600a81106116c1576116c161363c565b60200201358583600a81106116d8576116d861363c565b6020020135036117125760018383815181106116f6576116f661363c565b6020026020010181815161170a91906137fc565b905250611724565b8061171c8161380f565b9150506116a8565b5060010161166f565b505f5b600a811015611866575f828583600a811061174d5761174d61363c565b6020020135815181106117625761176261363c565b602002602001015190505f81111561185d57807f00000000000000000000000000000000000000000000000000000000000000006001600160a01b031662fdd58e888886600a81106117b6576117b661363c565b6040516001600160e01b031960e086901b1681526001600160a01b03909316600484015260200201356024820152604401602060405180830381865afa158015611802573d5f803e3d5ffd5b505050506040513d601f19601f8201168201806040525081019061182691906136f7565b101561185d5760405162461bcd60e51b8152600401610d49906020808252600490820152630858985b60e21b604082015260600190565b50600101611730565b50836001600160a01b03167f581b19b83ec15a283b6a2b7d99200d22727e6090e3eea7331d26ade83b61de67836001016040516118a39190613827565b60405180910390a250505050565b5f610ca56005836136e4565b6118c5612acc565b60068190556040518181527feba5eb1ca8247027a214a860eb7e6ab15a93b0831a0564ecce97f46029ebfb41906020015b60405180910390a150565b60408051602081019091525f81526111db44438460405160200161194a93929190928352602083019190915260601b6bffffffffffffffffffffffff1916604082015260540190565b60408051601f1981840301815291905280516020909101208252565b5f8061199d6001600160a01b037f000000000000000000000000000000000000000000000000000000000000000016333086612c6b565b604051636e553f6560e01b8152600481018490523060248201527f00000000000000000000000000000000000000000000000000000000000000006001600160a01b031690636e553f65906044016020604051808303815f875af1158015611a07573d5f803e3d5ffd5b505050506040513d601f19601f82011682018060405250810190611a2b91906136f7565b60405163266d6a8360e11b8152600481018290529091507f00000000000000000000000000000000000000000000000000000000000000006001600160a01b031690634cdad50690602401602060405180830381865afa158015611a91573d5f803e3d5ffd5b505050506040513d601f19601f82011682018060405250810190611ab591906136f7565b92505f8311611af05760405162461bcd60e51b815260206004820152600760248201526608585b5bdd5b9d60ca1b6044820152606401610d49565b6001600160a01b0384165f9081526002602052604081208054859290611b179084906137fc565b925050819055508260015f828254611b2f91906137fc565b90915550506001600160a01b0384165f818152600260205260409081902054600154915133927ffd4da46b125296e8be376b0a77089f71b7fd166556465b2a37bd2b04d4740c0e92611b94928992909283526020830191909152604082015260600190565b60405180910390a38291505b9250929050565b5f805f808551905084518114611be85760405162461bcd60e51b8152600401610d499060208082526004908201526310b632b760e11b604082015260600190565b5f93505f92505f91505f5b81811015611c88575f878281518110611c0e57611c0e61363c565b602002602001015190505f878381518110611c2b57611c2b61363c565b6020026020010151905080821115611c4f5786611c478161380f565b975050611c7e565b81811115611c695785611c618161380f565b965050611c7e565b808203611c7e5784611c7a8161380f565b9550505b5050600101611bf3565b50509250925092565b611c99612acc565b6003611ca5828261389c565b5050565b60408051600580825260c0820190925260609182915f916020820160a080368337505060408051600580825260c0820190925292955090506020820160a0803683370190505091505f611cfe600160056137e9565b90505f5b81811015611e2d57611d158160016137fc565b858281518110611d2757611d2761363c565b602002602001018181525050848181518110611d4557611d4561363c565b60200260200101515f03611d835760405162461bcd60e51b8152602060048201526005602482015264627567203160d81b6044820152606401610d49565b5f611d8e84886137e9565b9050611d9a8882612cba565b858381518110611dac57611dac61363c565b602002602001018181525050848281518110611dca57611dca61363c565b602002602001015184611ddd91906137fc565b935086841115611e175760405162461bcd60e51b8152602060048201526005602482015264313ab3901960d91b6044820152606401610d49565b868403611e245750611e2d565b50600101611d02565b50611e398160016137fc565b848281518110611e4b57611e4b61363c565b6020908102919091010152611e6082866137e9565b838281518110611e7257611e7261363c565b6020908102919091010152611e878685612cd6565b50509250929050565b611e98612acc565b60078190556040518181527faebd95d9f06c21bb5a97c4290d75216567798cb36803de1bd9073a0561d3407a906020016118f6565b60605f611ede610551600a43613956565b9050610f8381600a612630565b5f8111611f225760405162461bcd60e51b8152602060048201526005602482015264216469636560d81b6044820152606401610d49565b5f611f2b612763565b90505f611f388284613969565b9050611f6f6001600160a01b037f000000000000000000000000000000000000000000000000000000000000000016333084612c6b565b604051636e553f6560e01b8152600481018290523060248201525f907f00000000000000000000000000000000000000000000000000000000000000006001600160a01b031690636e553f65906044016020604051808303815f875af1158015611fdb573d5f803e3d5ffd5b505050506040513d601f19601f82011682018060405250810190611fff91906136f7565b90505f612010610551600a43613956565b905061201f8187878588612d59565b505050505050565b5f807f00000000000000000000000000000000000000000000000000000000000000006001600160a01b03166318160ddd6040518163ffffffff1660e01b8152600401602060405180830381865afa158015612085573d5f803e3d5ffd5b505050506040513d601f19601f820116820180604052508101906120a991906136f7565b9050808311156120e55760405162461bcd60e51b815260206004820152600760248201526621737570706c7960c81b6044820152606401610d49565b6120f15f548483612bcf565b9392505050565b606060038260405160200161210e929190613980565b6040516020818303038152906040529050919050565b6001600160a01b0382163314806121c45750604051635b1b1e7960e11b81526001600160a01b0383811660048301523360248301527f0000000000000000000000000000000000000000000000000000000000000000169063b6363cf290604401602060405180830381865afa1580156121a0573d5f803e3d5ffd5b505050506040513d601f19601f820116820180604052508101906121c49190613724565b6121e05760405162461bcd60e51b8152600401610d4990613743565b6001600160a01b0382165f90815260026020526040902054808211156122315760405162461bcd60e51b8152600401610d49906020808252600490820152630858985b60e21b604082015260600190565b604051630a28a47760e01b8152600481018390525f907f00000000000000000000000000000000000000000000000000000000000000006001600160a01b031690630a28a47790602401602060405180830381865afa158015612296573d5f803e3d5ffd5b505050506040513d601f19601f820116820180604052508101906122ba91906136f7565b90505f81116122f55760405162461bcd60e51b81526020600482015260076024820152662173686172657360c81b6044820152606401610d49565b6001600160a01b0384165f908152600260205260408120805485929061231c9084906137e9565b925050819055508260015f82825461233491906137e9565b909155505060405163a9059cbb60e01b8152306004820152602481018290527f00000000000000000000000000000000000000000000000000000000000000006001600160a01b03169063a9059cbb906044016020604051808303815f875af11580156123a3573d5f803e3d5ffd5b505050506040513d601f19601f82011682018060405250810190610c899190613724565b60408051600a80825261016082019092526060915f919060208201610140803683370190505090505f5b600a81101561244c576001600160a01b0384165f90815260176020526040902060010181600a81106124255761242561363c565b01548282815181106124395761243961363c565b60209081029190910101526001016123f1565b505f61245784611901565b90506124638183610db7565b949350505050565b612473613043565b6040805160a08101909152600860055f835b828210156126275760408051610120810190915260038302850181606081018260068282826020028201915f905b82829054906101000a900463ffffffff1663ffffffff16815260200190600401906020826003010492830192600103820291508084116124b35790505050505050815260200160018201805461250890613650565b80601f016020809104026020016040519081016040528092919081815260200182805461253490613650565b801561257f5780601f106125565761010080835404028352916020019161257f565b820191905f5260205f20905b81548152906001019060200180831161256257829003601f168201915b5050505050815260200160028201805461259890613650565b80601f01602080910402602001604051908101604052809291908181526020018280546125c490613650565b801561260f5780601f106125e65761010080835404028352916020019161260f565b820191905f5260205f20905b8154815290600101906020018083116125f257829003601f168201915b50505050508152505081526020019060010190612485565b50505050905090565b60605f8061263e8585611ca9565b815191935091505f856001600160401b0381111561265e5761265e61313b565b604051908082528060200260200182016040528015612687578160200160208202803683370190505b5094505f5b82811015612711575f8582815181106126a7576126a761363c565b602002602001015190505f5b8583815181106126c5576126c561363c565b602002602001015181101561270757818885815181106126e7576126e761363c565b6020908102919091010152836126fc8161380f565b9450506001016126b3565b505060010161268c565b5061271c8786612cd6565b5050505092915050565b61272e612acc565b63389a75e1600c52805f526020600c20805442111561275457636f5e88185f526004601cfd5b5f905561276081612b92565b50565b5f6007546006547f000000000000000000000000000000000000000000000000000000000000000061279591906137fc565b61279f91906137fc565b905090565b6127ac612acc565b8060601b6127c157637448fbae5f526004601cfd5b61276081612b92565b600881600581106127d9575f80fd5b600302015f915090508060010180546127f190613650565b80601f016020809104026020016040519081016040528092919081815260200182805461281d90613650565b80156128685780601f1061283f57610100808354040283529160200191612868565b820191905f5260205f20905b81548152906001019060200180831161284b57829003601f168201915b50505050509080600201805461287d90613650565b80601f01602080910402602001604051908101604052809291908181526020018280546128a990613650565b80156128f45780601f106128cb576101008083540402835291602001916128f4565b820191905f5260205f20905b8154815290600101906020018083116128d757829003601f168201915b5050505050905082565b5f8054604051630a28a47760e01b815282916001600160a01b037f00000000000000000000000000000000000000000000000000000000000000001691630a28a477916129519160040190815260200190565b602060405180830381865afa15801561296c573d5f803e3d5ffd5b505050506040513d601f19601f8201168201806040525081019061299091906136f7565b90505f7f00000000000000000000000000000000000000000000000000000000000000006001600160a01b0316630a28a4776001546040518263ffffffff1660e01b81526004016129e391815260200190565b602060405180830381865afa1580156129fe573d5f803e3d5ffd5b505050506040513d601f19601f82011682018060405250810190612a2291906136f7565b6040516370a0823160e01b81523060048201529091505f906001600160a01b037f000000000000000000000000000000000000000000000000000000000000000016906370a0823190602401602060405180830381865afa158015612a89573d5f803e3d5ffd5b505050506040513d601f19601f82011682018060405250810190612aad91906136f7565b905081612aba84836137e9565b612ac491906137e9565b935050505090565b638b78c6d8195433146111d9576382b429005f526004601cfd5b816014528060345263a9059cbb60601b5f5260205f604460105f875af13d1560015f51141716612b1d576390b8ec185f526004601cfd5b5f603452505050565b816014528060345263095ea7b360601b5f5260205f604460105f875af13d1560015f51141716612b1d575f60345263095ea7b360601b5f525f38604460105f875af1508060345260205f604460105f875af13d1560015f51141716612b1d57633e3f8f735f526004601cfd5b638b78c6d81980546001600160a01b039092169182907f8be0079c531659141344cd1fd0a4f28419497f9722a3daafe3b4186f6b6457e05f80a355565b8282025f198385098181108201900380612bfe5782612bf55763ae47f7025f526004601cfd5b508190046120f1565b808311612c125763ae47f7025f526004601cfd5b828486095f84810385169485900494848311909303908390038390046001010292030417600260038302811880840282030280840282030280840282030280840282030280840282030280840290910302029392505050565b60405181606052826040528360601b602c526323b872dd60601b600c5260205f6064601c5f895af13d1560015f51141716612cad57637939f4245f526004601cfd5b5f60605260405250505050565b5f5b60208320905080835281825f03068110612cbc5706919050565b80515f196fffffffffffffffffffffffffffffffff8215610c89576020840193505b6020852080865282840193608082901c0660051b850184612d1a575050610c89565b600585811b8701805183519091529091528385019482841606901b850184612d43575050610c89565b600585901b860180518251909152905250612cf8565b6001600160a01b0384165f908152601760205260408120805490918591839190612d849084906137fc565b925050819055505f612d998460075485612bcf565b90505f612da98560065486612bcf565b90505f81612db784886137e9565b612dc191906137e9565b60405163266d6a8360e11b8152600481018290529091505f906001600160a01b037f00000000000000000000000000000000000000000000000000000000000000001690634cdad50690602401602060405180830381865afa158015612e29573d5f803e3d5ffd5b505050506040513d601f19601f82011682018060405250810190612e4d91906136f7565b60405163266d6a8360e11b8152600481018590529091505f906001600160a01b037f00000000000000000000000000000000000000000000000000000000000000001690634cdad50690602401602060405180830381865afa158015612eb5573d5f803e3d5ffd5b505050506040513d601f19601f82011682018060405250810190612ed991906136f7565b6004546001600160a01b03165f90815260026020526040812080549293508392909190612f079084906137fc565b92505081905550815f80828254612f1e91906137fc565b925050819055508060015f828254612f3691906137fc565b90915550505f5460015460408051848152602081018990529081019290925260608201526001600160a01b038b16907febf2df875b555f5edaef342e52b6a9498cccaec4813df8eb0f3842acc6d082819060800160405180910390a25f80612f9e8d8c611ca9565b604051634b93bab560e11b815291935091506001600160a01b037f00000000000000000000000000000000000000000000000000000000000000001690639727756a90612ff3908f90869086906004016139f6565b6020604051808303815f875af115801561300f573d5f803e3d5ffd5b505050506040513d601f19601f8201168201806040525081019061303391906136f7565b5050505050505050505050505050565b6040518060a001604052806005905b61305a613070565b8152602001906001900390816130525790505090565b6040518060600160405280613083613097565b815260200160608152602001606081525090565b6040518060c001604052806006906020820280368337509192915050565b5f602082840312156130c5575f80fd5b5035919050565b5f81518084528060208401602086015e5f602082860101526020601f19601f83011685010191505092915050565b602081525f6120f160208301846130cc565b80356001600160a01b03811681146111db575f80fd5b5f60208284031215613132575f80fd5b6120f18261310c565b634e487b7160e01b5f52604160045260245ffd5b604051601f8201601f191681016001600160401b03811182821017156131775761317761313b565b604052919050565b5f6020828403121561318f575f80fd5b604051602081016001600160401b03811182821017156131b1576131b161313b565b6040529135825250919050565b5f602082840312156131ce575f80fd5b6120f1838361317f565b5f805f606084860312156131ea575f80fd5b6131f38461310c565b92506132016020850161310c565b929592945050506040919091013590565b5f82601f830112613221575f80fd5b81356001600160401b0381111561323a5761323a61313b565b8060051b61324a6020820161314f565b91825260208185018101929081019086841115613265575f80fd5b6020860192505b8383101561328757823582526020928301929091019061326c565b9695505050505050565b5f80604083850312156132a2575f80fd5b6132ac848461317f565b915060208301356001600160401b038111156132c6575f80fd5b6132d285828601613212565b9150509250929050565b5f8151808452602084019350602083015f5b8281101561330c5781518652602095860195909101906001016132ee565b5093949350505050565b602081525f6120f160208301846132dc565b5f8083601f840112613338575f80fd5b5081356001600160401b0381111561334e575f80fd5b6020830191508360208260051b8501011115611ba0575f80fd5b5f805f805f6060868803121561337c575f80fd5b6133858661310c565b945060208601356001600160401b0381111561339f575f80fd5b6133ab88828901613328565b90955093505060408601356001600160401b038111156133c9575f80fd5b6133d588828901613328565b969995985093965092949392505050565b5f8061016083850312156133f8575f80fd5b6134018361310c565b91508361016084011115613413575f80fd5b50926020919091019150565b5f8060408385031215613430575f80fd5b6134398361310c565b946020939093013593505050565b5f8060408385031215613458575f80fd5b82356001600160401b0381111561346d575f80fd5b61347985828601613212565b92505060208301356001600160401b038111156132c6575f80fd5b5f602082840312156134a4575f80fd5b81356001600160401b038111156134b9575f80fd5b8201601f810184136134c9575f80fd5b80356001600160401b038111156134e2576134e261313b565b6134f5601f8201601f191660200161314f565b818152856020838501011115613509575f80fd5b816020840160208301375f91810160200191909152949350505050565b5f8060408385031215613537575f80fd5b613439848461317f565b604081525f61355360408301856132dc565b828103602084015261356581856132dc565b95945050505050565b60208082525f9060c0830190830184835b600581101561360d57858403601f1901835281518051855f5b60068110156135bd57825163ffffffff16825260209283019290910190600101613598565b505050602081015161010060c08701526135db6101008701826130cc565b90506040820151915085810360e08701526135f681836130cc565b95505050602092830192919091019060010161357f565b509195945050505050565b604081525f61362a60408301856130cc565b828103602084015261356581856130cc565b634e487b7160e01b5f52603260045260245ffd5b600181811c9082168061366457607f821691505b60208210810361368257634e487b7160e01b5f52602260045260245ffd5b50919050565b5f81518060208401855e5f93019283525090919050565b5f6136aa8285613688565b6d01020b63232b939b7b7102234b2960951b8152600e8101939093525050602e01919050565b634e487b7160e01b5f52601260045260245ffd5b5f826136f2576136f26136d0565b500690565b5f60208284031215613707575f80fd5b5051919050565b61105160f21b81525f6120f16002830184613688565b5f60208284031215613734575f80fd5b815180151581146120f1575f80fd5b602080825260059082015264042c2eae8d60db1b604082015260600190565b8183525f6001600160fb1b03831115613779575f80fd5b8260051b80836020870137939093016020019392505050565b6001600160a01b03861681526060602082018190525f906137b69083018688613762565b82810360408401526137c9818587613762565b98975050505050505050565b634e487b7160e01b5f52601160045260245ffd5b81810381811115610ca557610ca56137d5565b80820180821115610ca557610ca56137d5565b5f60018201613820576138206137d5565b5060010190565b610140810181835f5b600a81101561384f578154835260209092019160019182019101613830565b50505092915050565b601f821115610d6657805f5260205f20601f840160051c8101602085101561387d5750805b601f840160051c820191505b81811015610c89575f8155600101613889565b81516001600160401b038111156138b5576138b561313b565b6138c9816138c38454613650565b84613858565b6020601f8211600181146138fb575f83156138e45750848201515b5f19600385901b1c1916600184901b178455610c89565b5f84815260208120601f198516915b8281101561392a578785015182556020948501946001909201910161390a565b508482101561394757868401515f19600387901b60f8161c191681555b50505050600190811b01905550565b5f82613964576139646136d0565b500490565b8082028115828204841417610ca557610ca56137d5565b5f80845461398d81613650565b6001821680156139a457600181146139b9576139e6565b60ff19831686528115158202860193506139e6565b875f5260205f205f5b838110156139de578154888201526001909101906020016139c2565b505081860193505b5050509283525050602001919050565b6001600160a01b03841681526060602082018190525f90613a19908301856132dc565b828103604084015261328781856132dc56fea2646970667358221220370032dc74fb7badf9f5fd1ce29925cf26f0fc624b4488d1395b1f9716421ed564736f6c634300081a0033",
        "linkReferences": {}
    },
    "methodIdentifiers": {
        "NUM_COLORS()": "7249db4d",
        "NUM_DICE_BAG()": "3e22c36e",
        "NUM_SIDES()": "e808c6ee",
        "allDice()": "ee41e0c9",
        "buyNumDice(address,uint256)": "bef9c2e1",
        "cancelOwnershipHandover()": "54d1f13d",
        "chooseDice(address,uint256[10])": "7a68c10d",
        "completeOwnershipHandover(address)": "f04e283e",
        "currentBag((uint256),uint256)": "ef7de992",
        "currentBag()": "ad7c952d",
        "devFund()": "4390d2a8",
        "dice(uint256)": "f88d6732",
        "endSponsership(address,uint256)": "ca7b798a",
        "fixGameApprovals()": "54e05b11",
        "getColor(uint256)": "80057b9a",
        "mintDevFee()": "978a7055",
        "mintPrizeFee()": "6177a2e9",
        "name(uint256)": "00ad800c",
        "nft()": "47ccca02",
        "numberPrng(uint256)": "55b49068",
        "owner()": "8da5cb5b",
        "ownershipHandoverExpiresAt(address)": "fee81cf4",
        "players(address)": "e2eb41ff",
        "prevrandaoPrng()": "33a8d940",
        "priceWithFees()": "f122e4b0",
        "prizeFund()": "f3ac3df5",
        "prizeSharesAvailable()": "f979dce6",
        "prizeToken()": "d0ef024a",
        "prizeTokenAvailable()": "409ffae7",
        "randomDice((uint256),uint256)": "a1d4872d",
        "randomRoll((uint256))": "096664ee",
        "recover(address,address,uint256)": "1ec82cb8",
        "refundPrice()": "808d5259",
        "renounceOwnership()": "715018a6",
        "requestOwnershipHandover()": "25692962",
        "returnDice(address,uint256[],uint256[])": "72767009",
        "rollCurrentBag()": "3ee029f2",
        "rollDice((uint256),uint256[])": "2f16ba25",
        "rollPlayerBag(address)": "cd57ca30",
        "scorePips(uint256[],uint256[])": "96074b92",
        "setMintDevFee(uint256)": "82c82f54",
        "setMintPrizeFee(uint256)": "aa92f01d",
        "setTokenURIPrefix(string)": "99e0dd7c",
        "skirmishPrng(address)": "89ea65a4",
        "sponsor(address,uint256)": "8c995e44",
        "sponsorships(address)": "a100d967",
        "sweepPrizeFund()": "6454a592",
        "symbol(uint256)": "4e41a1fb",
        "tokenURI(uint256)": "c87b56dd",
        "totalDiceValue()": "a53d1a4b",
        "totalSponsorships()": "7315ab50",
        "transferOwnership(address)": "f2fde38b",
        "upgrade(address)": "0900f010",
        "value(uint256)": "c5a46ee6",
        "vaultToken()": "703bafd5"
    },
    "id": 29
}