{
    "abi": [
        {
            "type": "constructor",
            "inputs": [
                {
                    "name": "_gameLogic",
                    "type": "address",
                    "internalType": "address"
                }
            ],
            "stateMutability": "nonpayable"
        },
        {
            "type": "function",
            "name": "allowance",
            "inputs": [
                {
                    "name": "owner",
                    "type": "address",
                    "internalType": "address"
                },
                {
                    "name": "spender",
                    "type": "address",
                    "internalType": "address"
                },
                {
                    "name": "id",
                    "type": "uint256",
                    "internalType": "uint256"
                }
            ],
            "outputs": [
                {
                    "name": "amount",
                    "type": "uint256",
                    "internalType": "uint256"
                }
            ],
            "stateMutability": "view"
        },
        {
            "type": "function",
            "name": "allowedBurners",
            "inputs": [
                {
                    "name": "",
                    "type": "address",
                    "internalType": "address"
                }
            ],
            "outputs": [
                {
                    "name": "",
                    "type": "bool",
                    "internalType": "bool"
                }
            ],
            "stateMutability": "view"
        },
        {
            "type": "function",
            "name": "approve",
            "inputs": [
                {
                    "name": "spender",
                    "type": "address",
                    "internalType": "address"
                },
                {
                    "name": "id",
                    "type": "uint256",
                    "internalType": "uint256"
                },
                {
                    "name": "amount",
                    "type": "uint256",
                    "internalType": "uint256"
                }
            ],
            "outputs": [
                {
                    "name": "",
                    "type": "bool",
                    "internalType": "bool"
                }
            ],
            "stateMutability": "payable"
        },
        {
            "type": "function",
            "name": "balanceOf",
            "inputs": [
                {
                    "name": "owner",
                    "type": "address",
                    "internalType": "address"
                },
                {
                    "name": "id",
                    "type": "uint256",
                    "internalType": "uint256"
                }
            ],
            "outputs": [
                {
                    "name": "amount",
                    "type": "uint256",
                    "internalType": "uint256"
                }
            ],
            "stateMutability": "view"
        },
        {
            "type": "function",
            "name": "burn",
            "inputs": [
                {
                    "name": "owner",
                    "type": "address",
                    "internalType": "address"
                },
                {
                    "name": "tokenIds",
                    "type": "uint256[]",
                    "internalType": "uint256[]"
                },
                {
                    "name": "amounts",
                    "type": "uint256[]",
                    "internalType": "uint256[]"
                }
            ],
            "outputs": [
                {
                    "name": "burned",
                    "type": "uint256",
                    "internalType": "uint256"
                }
            ],
            "stateMutability": "nonpayable"
        },
        {
            "type": "function",
            "name": "decimals",
            "inputs": [
                {
                    "name": "id",
                    "type": "uint256",
                    "internalType": "uint256"
                }
            ],
            "outputs": [
                {
                    "name": "",
                    "type": "uint8",
                    "internalType": "uint8"
                }
            ],
            "stateMutability": "view"
        },
        {
            "type": "function",
            "name": "gameLogic",
            "inputs": [],
            "outputs": [
                {
                    "name": "",
                    "type": "address",
                    "internalType": "contract IGameLogic"
                }
            ],
            "stateMutability": "view"
        },
        {
            "type": "function",
            "name": "isOperator",
            "inputs": [
                {
                    "name": "owner",
                    "type": "address",
                    "internalType": "address"
                },
                {
                    "name": "spender",
                    "type": "address",
                    "internalType": "address"
                }
            ],
            "outputs": [
                {
                    "name": "status",
                    "type": "bool",
                    "internalType": "bool"
                }
            ],
            "stateMutability": "view"
        },
        {
            "type": "function",
            "name": "mint",
            "inputs": [
                {
                    "name": "receiver",
                    "type": "address",
                    "internalType": "address"
                },
                {
                    "name": "tokenIds",
                    "type": "uint256[]",
                    "internalType": "uint256[]"
                },
                {
                    "name": "amounts",
                    "type": "uint256[]",
                    "internalType": "uint256[]"
                }
            ],
            "outputs": [
                {
                    "name": "minted",
                    "type": "uint256",
                    "internalType": "uint256"
                }
            ],
            "stateMutability": "nonpayable"
        },
        {
            "type": "function",
            "name": "name",
            "inputs": [
                {
                    "name": "id",
                    "type": "uint256",
                    "internalType": "uint256"
                }
            ],
            "outputs": [
                {
                    "name": "",
                    "type": "string",
                    "internalType": "string"
                }
            ],
            "stateMutability": "view"
        },
        {
            "type": "function",
            "name": "setOperator",
            "inputs": [
                {
                    "name": "operator",
                    "type": "address",
                    "internalType": "address"
                },
                {
                    "name": "approved",
                    "type": "bool",
                    "internalType": "bool"
                }
            ],
            "outputs": [
                {
                    "name": "",
                    "type": "bool",
                    "internalType": "bool"
                }
            ],
            "stateMutability": "payable"
        },
        {
            "type": "function",
            "name": "supportsInterface",
            "inputs": [
                {
                    "name": "interfaceId",
                    "type": "bytes4",
                    "internalType": "bytes4"
                }
            ],
            "outputs": [
                {
                    "name": "result",
                    "type": "bool",
                    "internalType": "bool"
                }
            ],
            "stateMutability": "view"
        },
        {
            "type": "function",
            "name": "symbol",
            "inputs": [
                {
                    "name": "id",
                    "type": "uint256",
                    "internalType": "uint256"
                }
            ],
            "outputs": [
                {
                    "name": "",
                    "type": "string",
                    "internalType": "string"
                }
            ],
            "stateMutability": "view"
        },
        {
            "type": "function",
            "name": "tokenSupply",
            "inputs": [
                {
                    "name": "",
                    "type": "uint256",
                    "internalType": "uint256"
                }
            ],
            "outputs": [
                {
                    "name": "",
                    "type": "uint256",
                    "internalType": "uint256"
                }
            ],
            "stateMutability": "view"
        },
        {
            "type": "function",
            "name": "tokenURI",
            "inputs": [
                {
                    "name": "id",
                    "type": "uint256",
                    "internalType": "uint256"
                }
            ],
            "outputs": [
                {
                    "name": "",
                    "type": "string",
                    "internalType": "string"
                }
            ],
            "stateMutability": "view"
        },
        {
            "type": "function",
            "name": "totalSupply",
            "inputs": [],
            "outputs": [
                {
                    "name": "",
                    "type": "uint256",
                    "internalType": "uint256"
                }
            ],
            "stateMutability": "view"
        },
        {
            "type": "function",
            "name": "transfer",
            "inputs": [
                {
                    "name": "to",
                    "type": "address",
                    "internalType": "address"
                },
                {
                    "name": "id",
                    "type": "uint256",
                    "internalType": "uint256"
                },
                {
                    "name": "amount",
                    "type": "uint256",
                    "internalType": "uint256"
                }
            ],
            "outputs": [
                {
                    "name": "",
                    "type": "bool",
                    "internalType": "bool"
                }
            ],
            "stateMutability": "payable"
        },
        {
            "type": "function",
            "name": "transferFrom",
            "inputs": [
                {
                    "name": "from",
                    "type": "address",
                    "internalType": "address"
                },
                {
                    "name": "to",
                    "type": "address",
                    "internalType": "address"
                },
                {
                    "name": "id",
                    "type": "uint256",
                    "internalType": "uint256"
                },
                {
                    "name": "amount",
                    "type": "uint256",
                    "internalType": "uint256"
                }
            ],
            "outputs": [
                {
                    "name": "",
                    "type": "bool",
                    "internalType": "bool"
                }
            ],
            "stateMutability": "payable"
        },
        {
            "type": "function",
            "name": "upgrade",
            "inputs": [
                {
                    "name": "_newGameLogic",
                    "type": "address",
                    "internalType": "address"
                },
                {
                    "name": "allowOldBurn",
                    "type": "bool",
                    "internalType": "bool"
                }
            ],
            "outputs": [],
            "stateMutability": "nonpayable"
        },
        {
            "type": "event",
            "name": "Approval",
            "inputs": [
                {
                    "name": "owner",
                    "type": "address",
                    "indexed": true,
                    "internalType": "address"
                },
                {
                    "name": "spender",
                    "type": "address",
                    "indexed": true,
                    "internalType": "address"
                },
                {
                    "name": "id",
                    "type": "uint256",
                    "indexed": true,
                    "internalType": "uint256"
                },
                {
                    "name": "amount",
                    "type": "uint256",
                    "indexed": false,
                    "internalType": "uint256"
                }
            ],
            "anonymous": false
        },
        {
            "type": "event",
            "name": "OperatorSet",
            "inputs": [
                {
                    "name": "owner",
                    "type": "address",
                    "indexed": true,
                    "internalType": "address"
                },
                {
                    "name": "operator",
                    "type": "address",
                    "indexed": true,
                    "internalType": "address"
                },
                {
                    "name": "approved",
                    "type": "bool",
                    "indexed": false,
                    "internalType": "bool"
                }
            ],
            "anonymous": false
        },
        {
            "type": "event",
            "name": "Transfer",
            "inputs": [
                {
                    "name": "by",
                    "type": "address",
                    "indexed": false,
                    "internalType": "address"
                },
                {
                    "name": "from",
                    "type": "address",
                    "indexed": true,
                    "internalType": "address"
                },
                {
                    "name": "to",
                    "type": "address",
                    "indexed": true,
                    "internalType": "address"
                },
                {
                    "name": "id",
                    "type": "uint256",
                    "indexed": true,
                    "internalType": "uint256"
                },
                {
                    "name": "amount",
                    "type": "uint256",
                    "indexed": false,
                    "internalType": "uint256"
                }
            ],
            "anonymous": false
        },
        {
            "type": "event",
            "name": "Upgrade",
            "inputs": [
                {
                    "name": "sender",
                    "type": "address",
                    "indexed": true,
                    "internalType": "address"
                },
                {
                    "name": "oldGameLogic",
                    "type": "address",
                    "indexed": true,
                    "internalType": "address"
                },
                {
                    "name": "newGameLogic",
                    "type": "address",
                    "indexed": true,
                    "internalType": "address"
                },
                {
                    "name": "allowOldBurn",
                    "type": "bool",
                    "indexed": false,
                    "internalType": "bool"
                }
            ],
            "anonymous": false
        },
        {
            "type": "error",
            "name": "BalanceOverflow",
            "inputs": []
        },
        {
            "type": "error",
            "name": "InsufficientBalance",
            "inputs": []
        },
        {
            "type": "error",
            "name": "InsufficientPermission",
            "inputs": []
        }
    ],
    "bytecode": {
        "object": "0x6080604052348015600e575f80fd5b50604051610fa4380380610fa4833981016040819052602b91604e565b5f80546001600160a01b0319166001600160a01b03929092169190911790556079565b5f60208284031215605d575f80fd5b81516001600160a01b03811681146072575f80fd5b9392505050565b610f1e806100865f395ff3fe60806040526004361061010e575f3560e01c80633db0f8ab1161009d578063598af9e711610062578063598af9e71461033f5780639727756a14610381578063b6363cf2146103a0578063c87b56dd146103d7578063fe99049a146103f6575f80fd5b80633db0f8ab146102a95780633f47e662146102c8578063426a8493146102fa5780634e41a1fb1461030d578063558a72971461032c575f80fd5b806306a85a0b116100e357806306a85a0b146101f2578063095bcdb614610220578063134087a21461023357806318160ddd146102695780632693ebf21461027e575f80fd5b8062ad800c14610112578062fdd58e146101475780630110c8921461018d57806301ffc9a7146101ae575b5f80fd5b34801561011d575f80fd5b5061013161012c366004610ae3565b610409565b60405161013e9190610afa565b60405180910390f35b348015610152575f80fd5b5061017f610161366004610b4a565b67edcaa89a822939406020526014919091525f908152604090205490565b60405190815260200161013e565b348015610198575f80fd5b506101ac6101a7366004610b72565b61047b565b005b3480156101b9575f80fd5b506101e26101c8366004610bab565b6301ffc9a760e09190911c908114630f632fb39091141790565b604051901515815260200161013e565b3480156101fd575f80fd5b506101e261020c366004610bd9565b60016020525f908152604090205460ff1681565b6101e261022e366004610bf2565b610543565b34801561023e575f80fd5b505f54610251906001600160a01b031681565b6040516001600160a01b03909116815260200161013e565b348015610274575f80fd5b5061017f60025481565b348015610289575f80fd5b5061017f610298366004610ae3565b60036020525f908152604090205481565b3480156102b4575f80fd5b5061017f6102c3366004610c6a565b6105d0565b3480156102d3575f80fd5b506102e86102e2366004610ae3565b50601290565b60405160ff909116815260200161013e565b6101e2610308366004610bf2565b6106fd565b348015610318575f80fd5b50610131610327366004610ae3565b610759565b6101e261033a366004610b72565b61078a565b34801561034a575f80fd5b5061017f610359366004610cea565b67edcaa89a8229394060349081526028939093526014919091525f9081526054812054915290565b34801561038c575f80fd5b5061017f61039b366004610c6a565b6107e2565b3480156103ab575f80fd5b506101e26103ba366004610d24565b67edcaa89a822939406020526014919091525f526034600c205490565b3480156103e2575f80fd5b506101316103f1366004610ae3565b61091a565b6101e2610404366004610d55565b61094b565b5f54604051622b600360e21b8152600481018390526060916001600160a01b03169062ad800c906024015b5f60405180830381865afa15801561044e573d5f803e3d5ffd5b505050506040513d5f823e601f3d908101601f191682016040526104759190810190610da8565b92915050565b5f546001600160a01b031633146104ad5760405162461bcd60e51b81526004016104a490610e5b565b60405180910390fd5b5f546001600160a01b031681156104e4576001600160a01b0381165f908152600160208190526040909120805460ff191690911790555b5f80546001600160a01b0319166001600160a01b038581169182179092556040518415158152909183169033907f13e756ac26355885fa54699e3f5cb409fe517e06a148be2f9638827c5d7d4c1a9060200160405180910390a4505050565b5f67edcaa89a8229394060205233601452825f5260405f208054808411156105725763f4d678b85f526004601cfd5b8381038255505083601452825f5260405f2080548381018181101561059e576389560ca15f526004601cfd5b808355505050335f5281602052828460601b60601c335f80516020610ec983398151915260405fa45060019392505050565b5f80546001600160a01b03163314806105f75750335f9081526001602052604090205460ff165b6106135760405162461bcd60e51b81526004016104a490610e5b565b8382811461064c5760405162461bcd60e51b81526020600482015260066024820152650d8cadccee8d60d31b60448201526064016104a4565b5f805f5b838110156106d95788888281811061066a5761066a610e7a565b90506020020135925086868281811061068557610685610e7a565b9050602002013591505f8211156106d1576106a18a8484610a25565b5f83815260036020526040812080548492906106be908490610ea2565b909155506106ce90508286610eb5565b94505b600101610650565b508360025f8282546106eb9190610ea2565b90915550939998505050505050505050565b5f67edcaa89a822939406034523360285283601452825f528160545f2055815f528260205160601c337fb3fd5071835887567a0671151121894ddccc2842f1d10bedad13e0d17cace9a760205fa4505f60345260019392505050565b5f54604051634e41a1fb60e01b8152600481018390526060916001600160a01b031690634e41a1fb90602401610434565b5f81151567edcaa89a8229394060205233601452835f52806034600c20558060205250600c5160601c337fceb576d9f15e4e200fdb5096d64d5dfd667e16def20c1eefd14256d8e3faa267602080a350600192915050565b5f80546001600160a01b0316331461080c5760405162461bcd60e51b81526004016104a490610e5b565b838281146108455760405162461bcd60e51b81526020600482015260066024820152650d8cadccee8d60d31b60448201526064016104a4565b5f805f5b838110156109085788888281811061086357610863610e7a565b90506020020135925086868281811061087e5761087e610e7a565b9050602002013591505f83116108bf5760405162461bcd60e51b81526004016104a4906020808252600490820152637a65726f60e01b604082015260600190565b8115610900576108d08a8484610a85565b5f83815260036020526040812080548492906108ed908490610eb5565b909155506108fd90508286610eb5565b94505b600101610849565b508360025f8282546106eb9190610eb5565b5f5460405163c87b56dd60e01b8152600481018390526060916001600160a01b03169063c87b56dd90602401610434565b5f67edcaa89a82293940603452846028523360145260346020205461099a57825f5260545f208054600181011561099757808411156109915763deda90305f526004601cfd5b83810382555b50505b8260145260406014208054808411156109ba5763f4d678b85f526004601cfd5b83810382555050836028528260145260406014208054838101818110156109e8576389560ca15f526004601cfd5b808355505050335f5281602052828460601b60601c8660601b60601c5f80516020610ec983398151915260405fa45f603452506001949350505050565b67edcaa89a8229394060205282601452815f5260405f20805480831115610a535763f4d678b85f526004601cfd5b8290039055335f908152602082905282906001600160a01b0385165f80516020610ec9833981519152604083a4505050565b67edcaa89a8229394060205282601452815f5260405f20805482810181811015610ab6576389560ca15f526004601cfd5b808355505050335f5280602052818360601b60601c5f5f80516020610ec983398151915260405fa4505050565b5f60208284031215610af3575f80fd5b5035919050565b602081525f82518060208401528060208501604085015e5f604082850101526040601f19601f83011684010191505092915050565b80356001600160a01b0381168114610b45575f80fd5b919050565b5f8060408385031215610b5b575f80fd5b610b6483610b2f565b946020939093013593505050565b5f8060408385031215610b83575f80fd5b610b8c83610b2f565b915060208301358015158114610ba0575f80fd5b809150509250929050565b5f60208284031215610bbb575f80fd5b81356001600160e01b031981168114610bd2575f80fd5b9392505050565b5f60208284031215610be9575f80fd5b610bd282610b2f565b5f805f60608486031215610c04575f80fd5b610c0d84610b2f565b95602085013595506040909401359392505050565b5f8083601f840112610c32575f80fd5b50813567ffffffffffffffff811115610c49575f80fd5b6020830191508360208260051b8501011115610c63575f80fd5b9250929050565b5f805f805f60608688031215610c7e575f80fd5b610c8786610b2f565b9450602086013567ffffffffffffffff811115610ca2575f80fd5b610cae88828901610c22565b909550935050604086013567ffffffffffffffff811115610ccd575f80fd5b610cd988828901610c22565b969995985093965092949392505050565b5f805f60608486031215610cfc575f80fd5b610d0584610b2f565b9250610d1360208501610b2f565b929592945050506040919091013590565b5f8060408385031215610d35575f80fd5b610d3e83610b2f565b9150610d4c60208401610b2f565b90509250929050565b5f805f8060808587031215610d68575f80fd5b610d7185610b2f565b9350610d7f60208601610b2f565b93969395505050506040820135916060013590565b634e487b7160e01b5f52604160045260245ffd5b5f60208284031215610db8575f80fd5b815167ffffffffffffffff811115610dce575f80fd5b8201601f81018413610dde575f80fd5b805167ffffffffffffffff811115610df857610df8610d94565b604051601f8201601f19908116603f0116810167ffffffffffffffff81118282101715610e2757610e27610d94565b604052818152828201602001861015610e3e575f80fd5b8160208401602083015e5f91810160200191909152949350505050565b602080825260059082015264042c2eae8d60db1b604082015260600190565b634e487b7160e01b5f52603260045260245ffd5b634e487b7160e01b5f52601160045260245ffd5b8181038181111561047557610475610e8e565b8082018082111561047557610475610e8e56fe1b3d7edb2e9c0b0e7c525b20aaaef0f5940d2ed71663c7d39266ecafac728859a2646970667358221220c12062526aaed98ef725186f8360bf3b2fdace6d76553f5ccf8bfe2d39a85b7364736f6c634300081a0033",
        "linkReferences": {}
    },
    "methodIdentifiers": {
        "allowance(address,address,uint256)": "598af9e7",
        "allowedBurners(address)": "06a85a0b",
        "approve(address,uint256,uint256)": "426a8493",
        "balanceOf(address,uint256)": "00fdd58e",
        "burn(address,uint256[],uint256[])": "3db0f8ab",
        "decimals(uint256)": "3f47e662",
        "gameLogic()": "134087a2",
        "isOperator(address,address)": "b6363cf2",
        "mint(address,uint256[],uint256[])": "9727756a",
        "name(uint256)": "00ad800c",
        "setOperator(address,bool)": "558a7297",
        "supportsInterface(bytes4)": "01ffc9a7",
        "symbol(uint256)": "4e41a1fb",
        "tokenSupply(uint256)": "2693ebf2",
        "tokenURI(uint256)": "c87b56dd",
        "totalSupply()": "18160ddd",
        "transfer(address,uint256,uint256)": "095bcdb6",
        "transferFrom(address,address,uint256,uint256)": "fe99049a",
        "upgrade(address,bool)": "0110c892"
    },
    "id": 30
}